:100000000A128A11F52F0A30F0000030F100790849
:10001000F3007808F2000A128A1535230A128A11B1
:100020007008303E0A128A15C5220A128A110A3057
:10003000F0000030F1007908F3007808F2000A12AD
:100040008A152C220A128A117008303E0A128A156B
:10005000C522080000300A128A1571210A128A117D
:100060001A30F500F830F400F40B3428F50B34287E
:10007000000003300A128A158B210A128A110730F8
:10008000F5007D30F400F40B4328F50B43280330D2
:100090000A128A158B210A128A110F30F500473097
:1000A000F400F40B5128F50B5128562803300A129E
:1000B0008A158B210A128A1102300A128A158B21A5
:1000C0000A128A1102300A128A158B210A128A1129
:1000D00008300A128A158B210A128A1100300A127E
:1000E0008A158B210A128A110C300A128A158B216B
:1000F0000A128A1100300A128A158B210A128A11FB
:1001000006300A128A158B210800F801F901FA015C
:10011000FB01FC01FD010A128A15E1210A128A1174
:10012000003A031DDD28CC300A128A15AE230A12CC
:100130008A1144300A128A15AE230A128A1121301C
:10014000F600F60BA1280A128A15E1210A128A117B
:10015000CC300A128A15AE230A128A11BE300A1256
:100160008A15AE230A128A110A128A155E220A1211
:100170008A11F600F7017608F8007708F9000A12EC
:100180008A155E220A128A11F600F7017608FA0033
:100190007708FB007A08F700F60178087604FC007F
:1001A00079087704FD007C0E0F39FC007D0EF039D4
:1001B000FC047D0E0F39FD00DF28FC01FD017D08E8
:1001C000F5007C08F4000800831203136508FB3E69
:1001D000E30066080318013EFF3EE4000130B20070
:1001E0000030B300FB01FB0A6408FD006308FC005B
:1001F00000300A128A1591220A128A1103308312E2
:100200000313A5002508FB006608FD006508FC0037
:1002100002300A128A1591220A128A1105308312BD
:100220000313A5002508FB003308FD003208FC007D
:1002300004300A128A1591220A128A1183120313BA
:100240006608E0006508DF000130B4000030B5004A
:1002500034033504031D9F290A128A1566210A12E8
:100260008A11023083120313A5002508F40001301F
:100270000A128A15EB230A128A119A30F50090307F
:10028000F6000A128A1571230A128A1106308312A7
:100290000313A5002508F40002300A128A15EB2387
:1002A0000A128A114F30F5009130F6000A128A15B1
:1002B00071230A128A11073083120313A50025083F
:1002C000F60006300A128A15FC220A128A117608F4
:1002D00083120313A6002608C30005187229051807
:1002E000EB2C6F29061A3129061E74296903031D98
:1002F0007B29071485140A128A1566210A128A11AD
:10030000053083120313A5002508F60004300A12F5
:100310008A15FC220A128A11770883120313C70078
:100320007608C6000730A5002508FB000030FC0059
:10033000FD0006300A128A1591220A128A1107302E
:1003400083120313A5002508F60006300A128A1549
:10035000FC220A128A11760883120313A6002608CB
:10036000C300460347040319430303192C2946031A
:100370004704031DF72C4308031DF72CF601F60A6A
:1003800000300A128A15FC220A128A117708831299
:100390000313E4007608E3000330A5002508F60007
:1003A00002300A128A15FC220A128A117708831277
:1003B0000313E6007608E500871B2C2C2E2E8312F3
:1003C00003136208803AA5006608803A2502031DDF
:1003D000EB2965086102031C7B2A01308312031399
:1003E000CD000030CE00B601B7016508033EB9006C
:1003F00066080318013E003EBA0051085204031D6E
:10040000082AD701D8010130D5000030D600922C3F
:100410006208803AA5003A08803A2502031D122A94
:1004200039086102031C1A2A013083120313B60033
:100430000030B7008312031336033704031D7B2AF1
:100440000A128A1566210A128A1183120313B60151
:10045000B701F401F40A01300A128A15EB230A12DB
:100460008A115930F5009030F6000A128A1571236E
:100470000A128A11831203138517023083120313A1
:10048000A7008630A6009830A500A50B452AA60B2C
:10049000452AA70B452A00008312031385130A126D
:1004A0008A1185200A128A11750883120313B1007C
:1004B0007408B000033083120313A7008A30A6002B
:1004C0005530A500A50B622AA60B622AA70B622A4B
:1004D000831203133108803AA5003A08803A2502B6
:1004E000031D742A390830020318252A0A128A15B6
:1004F00066210A128A1183120313AE01AF01103074
:10050000A5002508F40001300A128A15EB230A120F
:100510008A112430F5009030F6000A128A157123F2
:100520000A128A11023083120313A5002508F40071
:1005300001300A128A15EB230A128A11F230F500F3
:100540009030F6000A128A1571230A128A11DF30E0
:100550000A128A15C5220A128A110F308312031358
:10056000A5002508F40001300A128A15EB230A12AF
:100570008A117630F5009130F6000A128A1571233F
:100580000A128A11F401F40A02300A128A15EB23C6
:100590000A128A116A30F5009130F6000A128A15A3
:1005A00071230A128A11053083120313A50025084E
:1005B000F40002300A128A15EB230A128A11831200
:1005C00003136608F9006508F8000A128A1103206F
:1005D0000A128A11073083120313A5002508F400BC
:1005E00002300A128A15EB230A128A115830F500DC
:1005F0009130F6000A128A1571230A128A110F30FF
:1006000083120313A5002508F40002300A128A158C
:10061000EB230A128A11831203136208F90061089E
:10062000F8000A128A1103200A128A118312031396
:100630006008803AA5006208803A2502031D222B3B
:1006400061085F02031C2D2B83120313530854040B
:10065000031D2D2BDF01E001412B831203136408DE
:10066000803AA5006208803A2502031D392B6108F3
:100670006302031C462B8312031353085404031D07
:10068000462B0130D7000030D800922C8312031380
:10069000BB01BC013C08803AFF0083307F02031D90
:1006A000532BE9303B0203182C2C83120313871FB2
:1006B000071B852BED01ED0ABD01BE013E08803A06
:1006C000FF0083307F02031D672BE9303D020318D2
:1006D000E72D83120313871B702BCC01CC0A712BDF
:1006E000CC014C0803195C2BC73083120313A500FF
:1006F000792BA50B782B7C2B013083120313BD07BC
:100700000318BE0A0030BE075E2B871BAB2B0230DE
:10071000A5002508F40001300A128A15EB230A12FD
:100720008A110030F5009030F6000A128A15712304
:100730000A128A11F401F40A02300A128A15EB2314
:100740000A128A111430F5009030F6000A128A1548
:1007500071230A128A11831203130518DC2B8517E3
:10076000023083120313A700C730A6008730A5000C
:10077000A50BB82BA60BB82BA70BB82BBF2B83123E
:100780000313570358040319CD2B550356040319BB
:10079000CD2B4D034E04031DDA2BD701D8010130B8
:1007A000D5000030D600DD01DE010130DB00003075
:1007B000DC00162C051CDA2B061A1B2C85170230C0
:1007C00083120313A700C730A6008730A500A50B2E
:1007D000E72BA60BE72BA70BE72BEE2B073083129B
:1007E0000313A5002508FB000130FC000030FD00CC
:1007F00006300A128A1591220A128A1183120313F3
:100800005703580403190C2C5503560403190C2CD8
:100810004D034E04031D192CD701D8010130D5001A
:100820000030D6000130DD000030DE00CD01CE0109
:10083000922C061E192CC73083120313A500202CFE
:10084000A50B1F2C232C013083120313BB070318A5
:10085000BC0A0030BC074A2B83120313EA010A12B8
:100860008A1185200A128A11750883120313E20087
:100870007408E100AE01AF016208803AFF008030E9
:100880007F02031D452C013061020318DF2902306D
:1008900083120313A5002508F40001300A128A15FB
:1008A000EB230A128A116A30F5009030F6000A1222
:1008B0008A1571230A128A11F401F40A02300A120D
:1008C0008A15EB230A128A111530F5009030F600D4
:1008D0000A128A1571230A128A11831203138517CB
:1008E000023083120313A7000430A600B930A5001C
:1008F000A50B782CA60B782CA70B782C7F2C8312B9
:1009000003138513023083120313A7000430A600DB
:10091000B930A500A50B8A2CA60B8A2CA70B8A2C14
:10092000912C2C2C8312031357035804031DC12C44
:10093000071485148517023083120313A70045306E
:10094000A600A930A500A50BA32CA60BA32CA70BD2
:10095000A32C8312031385130130D3000030D4007D
:10096000D101D2010130CF000030D0005D035E0420
:10097000031DBE29D501D601DD01DE01D701D80155
:100980002C2955035604031D752D07108510851756
:10099000023083120313A7004530A600A930A5003A
:1009A000A50BD02CA60BD02CA70BD02C8312031395
:1009B0008513D301D4010130D1000030D2000130C1
:1009C000CF000030D0005B035C04031DEE2CD5018A
:1009D000D601DB01DC010A128A15962E5D035E0446
:1009E000031DBE29D501D601DD01DE012C294608F3
:1009F0004704031D752D0130A5002508CC070330E1
:100A00004C020318F22F02304C060319CC01871B4D
:100A1000F22FBF01C0014008803AFF0083307F02FF
:100A2000031D142DE9303F020318F22F8312031324
:100A3000871FEC2DC73083120313A5001F2DA50BB4
:100A40001E2D222D013083120313BF070318C00A85
:100A50000030C0070B2D023083120313A5002508B8
:100A6000F40001300A128A15EB230A128A116A3047
:100A7000F5009030F6000A128A1571230A128A11C5
:100A8000F401F40A02300A128A15EB230A128A11C1
:100A90001530F5009030F6000A128A1571230A12FB
:100AA0008A11831203138517023083120313A700E0
:100AB0000430A600B930A500A50B5C2DA60B5C2D5B
:100AC000A70B5C2D632D8312031385130230831251
:100AD0000313A7000430A600B930A500A50B6E2DA6
:100AE000A60B6E2DA70B6E2D752D83120313051506
:100AF0000A128A15871B202E023083120313A500C9
:100B00002508F40001300A128A15EB230A128A1113
:100B1000C730F5009030F6000A128A1571230A12C8
:100B20008A11063083120313A7001330A600AD30DC
:100B3000A500A50B992DA60B992DA70B992D073074
:100B400083120313A5002508F60006300A128A1541
:100B5000FC220A128A11760883120313A6002608C3
:100B6000EE00871F071BF02DC101C2014208803A29
:100B7000FF0083307F02031DBF2DE93041020318BF
:100B8000E72D83120313871BC82DCC01CC0AC92D76
:100B9000CC014C080319B42DC73083120313A500F0
:100BA000D12DA50BD02DD42D013083120313C107F5
:100BB0000318C20A0030C2074208803AFF0083309F
:100BC0007F02031DE52DE9304102031CC12D831274
:100BD00003134C03031D052FC501C50ACC012E2E9E
:100BE000071FB12D0230A5002508F40001300A12BC
:100BF0008A15EB230A128A117A30F5009030F6003C
:100C00000A128A1571230A128A1183120313851797
:100C1000023083120313A7000430A600B930A500E8
:100C2000A50B102EA60B102EA70B102E172E83121D
:100C300003138513023083120313A7000430A600A8
:100C4000B930A500A50B222EA60B222EA70B222E13
:100C5000292E83120313871B752D052E0A128A1560
:100C600066210A128A11023083120313A500250897
:100C7000F40001300A128A15EB230A128A1145305A
:100C8000F5009130F6000A128A1571230A128A11B2
:100C9000F401F40A02300A128A15EB230A128A11AF
:100CA0001530F5009030F6000A128A1571230A12E9
:100CB0008A11023083120313A5002508F4000230C4
:100CC0000A128A15EB230A128A11831203136A0887
:100CD000A500A6012508F8002608F9000A128A11C5
:100CE00003200A128A11063083120313A500250877
:100CF000F40002300A128A15EB230A128A118312B9
:100D000003136808F9006708F8000A128A11032023
:100D10000A128A110B1D072F0B11013083120313C6
:100D2000C8070318C90A0030C9070F30F0000030A7
:100D3000F1004908F3004808F2000A128A15352428
:100D40000A128A11710883120313E8007008E70081
:100D50004908803AFF0083307F02031DB12E933093
:100D600048020318BA2E831203136B08031DBA2E10
:100D7000EC01EC0A831203134908803AFF00833028
:100D80007F02031DC52E95304802031CD12E83120D
:100D900003136B03031DD12E0130A5002508EA07BC
:100DA000EC01831203134908803AFF0083307F026D
:100DB000031DDC2EE1304802031CE22E83120313D4
:100DC000C801C90183120313071B871F072F0630B1
:100DD00083120313A7001330A600AD30A500A50BA6
:100DE000EF2EA60BEF2EA70BEF2E83120313071B7C
:100DF000871F752D8511C801C9014503031D752D78
:100E00006E03031D052FC5012C29C501DC298312A2
:100E10000313871F4B2F6A03031D4B2F85110230CD
:100E2000A5002508F40001300A128A15EB230A12E6
:100E30008A11D630F5009030F6000A128A15712317
:100E40000A128A11831203138517023083120313C7
:100E5000A7000430A600B930A500A50B2D2FA60BC6
:100E60002D2FA70B2D2F342F831203138513023040
:100E700083120313A7000430A600B930A500A50B08
:100E80003F2FA60B3F2FA70B3F2F462F8312031395
:100E9000071F0E2FEA01071B871B8E2F6A03031DF6
:100EA0008E2F85110230A5002508F40001300A12AA
:100EB0008A15EB230A128A11E430F5009030F6000F
:100EC0000A128A1571230A128A11831203138517D5
:100ED000023083120313A7000430A600B930A50026
:100EE000A50B702FA60B702FA70B702F772F8312D7
:100EF00003138513023083120313A7000430A600E6
:100F0000B930A500A50B822FA60B822FA70B822F2D
:100F1000892F83120313871F512FEA0103306A06BA
:100F2000031DE62F6D03031DE62FEA01C801C90169
:100F30000230A5002508F40001300A128A15EB23BF
:100F40000A128A113030F5009130F6000A128A1523
:100F500071230A128A11023083120313A500250897
:100F6000F40002300A128A15EB230A128A11FF30AC
:100F7000F5009030F6000A128A1571230A128A11C0
:100F8000831203138517823083120313A600DD300A
:100F9000A500A50BC92FA60BC92F83120313851318
:100FA000413083120313A600ED30A500A50BD62F08
:100FB000A60BD62FDB2F8312031307108510851184
:100FC000871F952FEA01E901E90A2C296C03031D0B
:100FD000EC2F8515EB01EB0A6C08031D592E8511CA
:100FE000EB01592E0A128A15F72F83134D30840016
:100FF00070300A128A155E2183010A128A15CA2DE1
:10100000FF1B0A2883137F1883170008840A03191B
:10101000FF0A08007F087F398A000408840A031940
:04102000FF0A820041
:1012BC0064008001840A04060319003404065F29C3
:1012CC0000300A128A158B210A128A1501300A1273
:1012DC008A158B210800F000701C782983120313E7
:1012EC0006147B29831203130610F01C7F29861425
:1012FC0080298610701D8429061585290611F01D7C
:10130C0089298615080086110800F300831203133F
:10131C00071273080A128A1571210A128A15831290
:10132C00031387160630F2003030F100F10B9C29C4
:10133C00F20B9C2900008312031387120800F100A2
:10134C006400831603178C18A629710883120317DF
:10135C008D003F30F0007008831603178C050C14B9
:10136C0003100C18031400300318013083120317F8
:10137C000C080800F401F501701CCA297208F40766
:10138C000318F50A7308F50701300310F20DF30D7D
:10139C00FF3E031DCB2901300310F10CF00CFF3E76
:1013AC00031DD22970087104031DC2297508F100B0
:1013BC007408F000080083160313871183120313BB
:1013CC0087119F30F000F00BE929EC2983160313E9
:1013DC0087151330F000F00BF129F4298312031355
:1013EC008719FF299F30F000F00BFA29FD290030F6
:1013FC0008009F30F000F00B012A042A013008008D
:10140C00FA00831603178C18072A7A08831203171D
:10141C008D0078088C003F30F9007908831603178B
:10142C008C058312031303108B1B03148B1383166D
:10143C0003170C1555308D00AA308D008C140C112F
:10144C0083120313031C08008B1708007008710427
:10145C000319592AF501F50AF11B402A0130031032
:10146C00F00DF10DFF3E031D352A0130F400740818
:10147C00F507322A71087302031D462A700872029E
:10148C00031C4E2A7008F2027108031CF303F302CA
:10149C0001300310F10CF00CFF3E031D4F2A0130FC
:1014AC00F502031D402A7308F1007208F0000800D1
:1014BC00F201831603138715F30108307302031826
:1014CC008F2A8316031387118312031387116E2A35
:1014DC0083160313871583120313871D822A013089
:1014EC00F000730A7B2A0310F00DFF3E031D792ACE
:1014FC007008F1007108F2041330F000F00B842A2C
:10150C00872A0130F0007008F30708307302031CBF
:10151C00672A7208080083120313A1000A30F00036
:10152C000030F1007D08F3007C08F2000A128A15E5
:10153C0035230A128A15700883120313A0002008A1
:10154C00F80021080A128A1506220A128A150A3096
:10155C00F0000030F1007D08F3007C08F2000A1264
:10156C008A152C220A128A15700883120313A00004
:10157C002008F8007B080A128A1506220800F400DD
:10158C0074080F39F1007108F2007408F039F10099
:10159C007108F3008312031307167308F10004306B
:1015AC000310F10CFF3E031DD62A71080A128A158E
:1015BC0071210A128A158312031387160D30F1005C
:1015CC00F10BE62A83120313871272080A128A158A
:1015DC0071210A128A158312031387160D30F1003C
:1015EC00F10BF62A831203138712080083120313DC
:1015FC00A000A101A201A301A40120080A128A15CE
:10160C00A5210A128A15F800F90178088312031330
:10161C00A1007908A20076080A128A15A5210A12DF
:10162C008A15F800F901780883120313A3007908CE
:10163C00A4002208F1002108F0000A30F20000306A
:10164C00F3000A128A15C0218312031323087007B2
:10165C00F60024080318240A7107F7000800F501A6
:10166C00F6017008710403196C2BF701F70AF11BD2
:10167C004B2B01300310F00DF10DFF3E031D402BE1
:10168C000130F4007408F7073D2B01300310F50D01
:10169C00F60DFF3E031D4C2B71087302031D582BD6
:1016AC0070087202031C612B7008F2027108031C93
:1016BC00F303F302751401300310F10CF00CFF3E30
:1016CC00031D622B0130F702031D4B2B7608F10032
:1016DC007508F0000800FA01FB017A087507F8009C
:1016EC007608F7000318F70AFA1BF7037708F900D6
:1016FC00790883120313FF00780884000A128A15F4
:10170C0000200A128A15003A031908007A08750796
:10171C00F8007608F7000318F70AFA1BF7037708A6
:10172C00F900790883120313FF00780884000A1269
:10173C008A1500200A128A150A128A15C5220A1265
:10174C008A150130FA070318FB0A0030FB07732BCC
:10175C00F1007108F0007008F2008316031387156E
:10176C00F30108307302031808000130F000730A0B
:10177C00C12B0310F00DFF3E031DBF2B700872052B
:10178C000319D82B831603138711831203138711A4
:10179C0000008316031387151330F000F00BD42BC5
:1017AC00D72BE62B83160313871183120313871190
:1017BC001330F000F00BE02BE32B8316031387158B
:1017CC000130F0007008F307B72BF7007703031D07
:1017DC00102C74087F3EF5007508FA007A08F500A5
:1017EC0004300310F50CFF3E031DF72B7508F600B3
:1017FC007608F8007A080F39F5007508F9007808B2
:10180C000A128A158B210A128A1579080A128A156E
:10181C008B21080002307706031D08007408BF3EB8
:10182C00F5007508FA007A08F50004300310F50C81
:10183C00FF3E031D1C2C7508F6007608F8007A088C
:10184C000F39F5007508F90078080A128A158B21F2
:10185C000A128A1579080A128A158B210800F601DA
:10186C00F11F3F2CF009F109F00A0319F10AF601F6
:10187C00F60AF31F4A2CF209F309F20A0319F30AC8
:10188C000130F4007408F606F701F80170087104D1
:10189C000319812CF501F50AF11B602C01300310A2
:1018AC00F00DF10DFF3E031D552C0130F4007408B2
:1018BC00F507522C01300310F70DF80DFF3E031DF8
:1018CC00612C71087302031D6D2C70087202031CCD
:1018DC00762C7008F2027108031CF303F3027714E0
:1018EC0001300310F10CF00CFF3E031D772C01307E
:1018FC00F502031D602C76080319892CF709F809E9
:10190C00F70A0319F80A7808F1007708F0000800C4
:10191C00633065066604031D952CE501E601013074
:10192C00E5070318E60A0030E607C33083120313F9
:10193C00A600CC30A500A50BA12CA60BA12C000059
:10194C00C02C65086604031DAF2C6330E500003025
:10195C00E600FF30E5070318E60AFF30E607C33060
:10196C0083120313A600CC30A500A50BBB2CA60B31
:10197C00BB2C0000073083120313A5002508F400CC
:10198C0001300A128A15EB230A128A156F30F50002
:10199C009130F6000A128A1571230A128A15043046
:1019AC0083120313A5002508F40002300A128A15CD
:1019BC00EB230A128A153B30F5009130F6000A121F
:1019CC008A1571230A128A150D3083120313A50090
:1019DC002508F40002300A128A15EB230A128A1524
:1019EC00831203136608F9006508F8000A128A11BD
:1019FC0003200A128A1583120313061F8E2C861ECF
:101A0C00A72C861BC02C861F092D0A128A1566214D
:101A1C000A128A15F401F40A01300A128A15EB2312
:101A2C000A128A156130F5009130F6000A128A15F7
:101A3C0071230A128A15F401F40A02300A128A156B
:101A4C00EB230A128A15A930F5009030F6000A1221
:101A5C008A1571230A128A150A128A1185200A1214
:101A6C008A15750883120313E2007408E10006302E
:101A7C0083120313A7001330A600AD30A500A50BED
:101A8C00452DA60B452DA70B452D8312031362087C
:101A9C00803AA5006608803A2502031D572D65087B
:101AAC0061020A128A11031CE4280A128A156621A3
:101ABC000A128A15F401F40A01300A128A15EB2372
:101ACC000A128A158A30F5009030F6000A128A152F
:101ADC0071230A128A15831203138517023083129D
:101AEC000313A7000430A600B930A500A50B7C2D6C
:101AFC00A60B7C2DA70B7C2D832D83120313851332
:101B0C00823083120313A600DD30A500A50B8C2DAB
:101B1C00A60B8C2D8312031385170230831203132B
:101B2C00A7000430A600B930A500A50B9B2DA60B71
:101B3C009B2DA70B9B2DA22D831203138513823093
:101B4C0083120313A600DD30A500A50BAB2DA60B4D
:101B5C00AB2D831203138517023083120313A700D6
:101B6C000430A600B930A500A50BBA2DA60BBA2DD2
:101B7C00A70BBA2DC12D8312031385130A128A15D4
:101B8C0066210A128A15C02C0130831603138500B6
:101B9C00F0308600C03087000730810083120313B9
:101BAC0081018316031788018901F0308316031312
:101BBC00950083120313AA01AB01CA01CB01A80142
:101BCC00A901AC01AD01C401B201B301071085102C
:101BDC00B401B501C301C801C901C501CC010A1288
:101BEC008A112A200A128A150A128A1566210A12EB
:101BFC008A15F601F60A00300A128A15FC220A121E
:101C0C008A15770883120313E4007608E300033087
:101C1C00A5002508F60002300A128A15FC220A12C9
:101C2C008A15770883120313E6007608E5000A127A
:101C3C008A11752D0A128A1185200A128A157508C7
:101C4C0083120313DA007408D9005A08803AFF0093
:101C5C0080307F02031D342E013059020A128A1182
:101C6C00031C2B2DF401F40A01300A128A15EB2304
:101C7C000A128A152630F5009030F6000A128A15E1
:101C8C0071230A128A15F401F40A02300A128A1519
:101C9C00EB230A128A154830F5009030F6000A1230
:101CAC008A1571230A128A15063083120313A700B2
:101CBC001330A600AD30A500A50B622EA60B622E2C
:101CCC00A70B622E8312031385170630831203139E
:101CDC00A7001330A600AD30A500A50B732EA60BE4
:101CEC00732EA70B732E8312031385130A128A15F6
:101CFC0066210A128A15053083120313A5002508E4
:101D0C00F60004300A128A15FC220A128A1577088A
:101D1C0083120313C7007608C6000518FD2FB801FF
:101D2C0003304406031DB12E8517083083120313AC
:101D3C00A7001B30A6002630A500A50BA32EA60BD2
:101D4C00A32EA70BA32E0000831203138513C4012B
:101D5C000A128A112C290A128A1566210A128A156E
:101D6C00F401F40A01300A128A15EB230A128A15BF
:101D7C003730F5009030F6000A128A1571230A12DA
:101D8C008A15073083120313A5002508F4000230CE
:101D9C000A128A15EB230A128A157330F50091305A
:101DAC00F6000A128A1571230A128A15831203137C
:101DBC00061BEB2E0130CA070318CB0A0030CB07E9
:101DCC00B801B80A061BCC2FE82E861ADC2EFF3081
:101DDC00CA070318CB0AFF30CB07B801B80A861A1A
:101DEC00CC2FF52E0730A5002508F40002300A127E
:101DFC008A15EB230A128A15831203134B08F90078
:101E0C004A08F8000A128A1103200A128A15831252
:101E1C000313061B2A2F32304A064B04031D182FBE
:101E2C00CA01CB010130CA070318CB0A0030CB071B
:101E3C00C33083120313A600CC30A500A50B242FAE
:101E4C00A60B242F0000452F861A452F4A034B045E
:101E5C00031D342F3230CA000030CB00FF30CA07CC
:101E6C000318CB0AFF30CB07C33083120313A60031
:101E7C00CC30A500A50B402FA60B402F00008312E1
:101E8C000313061ACC2F02304A064B04031D582F9D
:101E9C00AA01AB010130AC000030AD00CA01CB018E
:101EAC00C401CF2F0A128A1566210A128A15F40171
:101EBC00F40A01300A128A15EB230A128A15B8307B
:101ECC00F5009030F6000A128A1571230A128A1551
:101EDC00013083120313A5002508C4070330440204
:101EEC000318C92F8517023083120313A70004307F
:101EFC00A600B930A500A50B812FA60B812FA70B2F
:101F0C00812F882F831203138513823083120313BE
:101F1C00A600DD30A500A50B912FA60B912F8312E7
:101F2C0003138517023083120313A7000430A60095
:101F3C00B930A500A50BA02FA60BA02FA70BA02F87
:101F4C00A72F831203138513823083120313A60069
:101F5C00DD30A500A50BB02FA60BB02F83120313F9
:101F6C008517023083120313A7000430A600B93082
:101F7C00A500A50BBF2FA60BBF2FA70BBF2FC62FDE
:101F8C00831203138513CA01CB01962E3808031D47
:101F9C00F82E0A128A1566210A128A150430831249
:101FAC000313A5002508F40001300A128A15EB234F
:101FBC000A128A152530F5009130F6000A128A159E
:101FCC0071230A128A15063083120313A7001330EB
:101FDC00A600AD30A500A50BF12FA60BF12FA70B7A
:101FEC00F12F0A128A1566210A128A15C02C0A12C0
:101FFC008A112829733465346E3473346F34723417
:10200C00323420346634613475346C347434213495
:10201C002134203420342034203400342034203433
:10202C002034203420342034203420342034203404
:10203C002034203420342034203420342034003414
:10204C0020342A34203442345234453457344D34FD
:10205C004134533454344534523420342A342034EB
:10206C000034203445344E34543445345234203406
:10207C00503441345334533457344F345234443441
:10208C0020340034203445345834543445345234DC
:10209C004E3441344C34203442344F3449344C3473
:1020AC00453452340034483469346734683420344D
:1020BC00543465346D347034653472346134743432
:1020CC007534723465340034533445344E345334DF
:1020DC004F34523420344634413455344C34543417
:1020EC002134213421340034733465346E34733428
:1020FC006F347234323420346634613475346C3459
:10210C00743421342134003445346E3474346534E1
:10211C00723420346834693467346834203474344D
:10212C0065346D34703400342A34203442345234E3
:10213C00453457344D34413453345434453452348B
:10214C0020342A340034543465346D34703465349E
:10215C007234613474347534723465342E342E34E4
:10216C002E340034773472346F346E346734203448
:10217C00703461347334733477346F347234643440
:10218C00003443346834653463346B3469346E34EE
:10219C0067342034773461347434653472340034E9
:1021AC00733465346E3473346F3472343134203498
:1021BC006634613475346C3474340034733465347F
:1021CC006E3473346F347234323420346634613488
:1021DC0075346C3474340034543445344D345034C8
:1021EC00453452344134543455345234453420340B
:1021FC000034633461347534743469346F346E3440
:10220C002134213421342134213400347334743496
:10221C00613474347534733420343A3420344F348C
:10222C004634463400347334743461347434753445
:10223C00733420343A3420344F344E3400344C341C
:10224C004F34473449344E3453342E342E342E34D8
:10225C002E340034703475346D347034203466345C
:10226C00613475346C34743400344D344134583426
:10227C002034543445344D3450343A3400344C34D6
:10228C004F345734203457346134743465347234D9
:10229C000034523445344134443459342E342E34C1
:1022AC002E340034203441344334543455344134C6
:1022BC004C343A34003443346834653463346B340E
:1022CC0069346E34673400345334453454343A34FE
:1022DC00003453344534543400342A342A34003412
:0422EC004334003443
:04400E00D4E3FFFFF9
:1042000000000000090000000000000000000000A5
:00000001FF
