:100000008A11F92F00308A000408840A820700341C
:10001000633475347234723465346E34743420341D
:10002000743465346D3470343A3400344F3466348B
:1000300066345F34743465346D3470343A3400346B
:100040004F346E345F34743465346D3470343A3404
:0200500000347A
:1005740000308A11E1228A1101308A11E122080037
:1005840001308316031788000130831203139F0080
:10059400831603139F0108007808F0007908F1001E
:1005A400F2018E30FB007B08F300F4018A116E2403
:1005B4007008F8007108F9007208FA000800F300E6
:1005C40083120313071073088A11F9228A11831204
:1005D400031387140630F2003030F100F10BF02AD7
:1005E400F20BF02A00008312031387100800F000B6
:1005F400701C002B831203130715032B83120313A0
:100604000711F01C072B8715082B8711701D0C2B65
:1006140007160D2B0712F01D112B871608008712E1
:100624000800F40008307402031C1B2BF001F101D4
:100634000800C530F2007208831203139F05740882
:10064400F20002300310F20DFF3E031D242B0310B1
:10065400720DF30073089F040330F3009730F20027
:10066400F20B322BF30B322B372B831203139F1411
:100674009F183A2B1E08F100831603131E08F0007E
:100684000800F40074080F39F1007108F2007408CE
:10069400F039F1007108F30083120313071473088F
:1006A400F10004300310F10CFF3E031D542B7108BC
:1006B4008A11F9228A118312031387140D30F10071
:1006C400F10B622B83120313871072088A11F9222B
:1006D4008A118312031387140D30F100F10B702B70
:1006E400831203138710080000308A11F9228A113B
:1006F4001A30F500F830F400F40B7E2BF50B7E2B4A
:10070400000003308A11E1228A110730F5007D30A0
:10071400F400F40B8B2BF50B8B2B03308A11E122A5
:100724008A110F30F5004730F400F40B972BF50BCA
:10073400972B9C2B03308A11E1228A1102308A11F3
:10074400E1228A1102308A11E1228A1108308A11C9
:10075400E1228A1100308A11E1228A110C308A11B7
:10076400E1228A1100308A11E1228A1106308A11AD
:10077400E122080000308A1113238A1171088312C0
:100784000313E0007008DF006008F9005F08F80058
:100794008A11CE228A11780883120313A3007908E0
:1007A400A4007A08A5002930A0009C30A1004030A4
:1007B400A2008A111F268A11831203132008B30092
:1007C4002108B4002208B500F230B0003030B10086
:1007D400BB30B2008A11F1268A1183120313300848
:1007E400C0003108C1003208C2000030BD00203012
:1007F400BE004130BF008A1168258A118312031399
:100804003D08CD003E08CE003F08CF008A11DA240F
:10081400831203134E08DE004D08DD005E08DC0081
:100824005D08DB000800FF308316031385000F30DA
:10083400860087018030831603178900831203130F
:100844009F01831603139F010B128A11C2228A117E
:100854008A1176238A11463083160313A0000030D0
:10086400A1000A30A2000030A300A401A501A80140
:10087400A901AA01AB018A1176238A118A11BA222D
:100884008A1183160313AC01AD018A11BA228A11AD
:100894008A11BC238A11831203135C088316031381
:1008A400A700831203135B0883160313A6006330A7
:1008B400AE000030AF00DF308A1143238A1182304A
:1008C400FD00DD30FC00FC0B652CFD0B652C6A2C57
:1008D4008A11BA228A11472C73080319762C7208DC
:1008E40071047004031D892C0030F0000030F10005
:1008F4000030F20008000130F5007508F3070130FC
:100904000310F20CF10CF00CFF3E031D822CFE30A0
:1009140072050319A42C7D2C0130F5007508F3072A
:100924000130F007003003180130F10700300318DC
:100934000130F20701300310F20CF10CF00CFF3E11
:10094400031D9D2CFF3072050319B32C8E2C01302E
:10095400F30201300310F00DF10DF20DFF3E031D03
:10096400AC2CF11BB92C023073020318A92C731898
:10097400C12CFF30F0057F30F105FF30F205031084
:10098400F30C7308F500F601F70110300310F50DB0
:10099400F60DF70DFF3E031DC82C7508F00476080C
:1009A400F1047708F204740803190800F217080028
:1009B400831203134D08D1004E08D2004F08D30010
:1009C4000310520D530DD4005408DA005A08031DC5
:1009D400F42C0030D0000030CF000030CE000030C6
:1009E400CD0008004D08D1004E08D2004F08D300B6
:1009F40017300310D30CD20CD10CFF3E031DFB2C7B
:100A04005108D4005408D500CE17FF30CD05FF306F
:100A1400CE050030CF054D08D6004E08D7004F084C
:100A2400D800D9018E30DA02DA1F362D5A08803AFE
:100A34008F3E0318262D0030D0000030CF00003048
:100A4400CE000030CD00080001300310D90CD80CC2
:100A5400D70CD60CFF3E031D272D0130D1005108C1
:100A6400DA070319512D262D18305A02031C4E2D76
:100A74000030D0000030CF000030CE000030CD0078
:100A840008000130D1000310D60DD70DD80DD90DB3
:100A9400D10B452D0130DA025A08031D432D5508A8
:100AA40003195F2DD609D709D809D909D60A03191C
:100AB400D70A0319D80A0319D90A5908D0005808C3
:100AC400CF005708CE005608CD0008008312031348
:100AD4004008C3004108C4004208C5000310440D87
:100AE400450DC6004608CB004B08031D802D003081
:100AF400BD000030BE000030BF0008003D08C30048
:100B04003E08C4003F08C5000310440D450DC6004F
:100B14004608CC004C08031D962D0030BD00003063
:100B2400BE000030BF0008000030C8000030C9001B
:100B34000030CA0089304C07C3004308CB02400888
:100B4400C3004108C4004208C50010300310C50C9E
:100B5400C40CC30CFF3E031DA82D4308C600460861
:100B6400CC003D08C3003E08C4003F08C500103057
:100B74000310C50CC40CC30CFF3E031DBA2D43085F
:100B8400C6004608CC068030C3004308CC05C11714
:100B9400FF30C005FF30C1050030C205BE17FF306D
:100BA400BD05FF30BE050030BF051830C300430843
:100BB400C70001300310C80DC90DCA0DFF3E031D47
:100BC400DC2D3F084202031DED2D3E084102031DAA
:100BD400ED2D3D084002031CFA2D3D08C0023E08DD
:100BE400031C3E0FC1023F08031C3F0AC202481403
:100BF40001300310C00DC10DC20DFF3E031DFB2DBE
:100C04000130C702031DDB2D4808F0004908F1003C
:100C14004A08F2004B08C3004308F3004C08C40020
:100C24004408F4008A116E24700883120313BD0073
:100C34007108BE007208BF00080083120313200865
:100C4400A6002108A7002208A8000310270D280DDC
:100C5400A9002908AA002A08031D372E0030A00085
:100C64000030A1000030A20008002308A6002408D8
:100C7400A7002508A8000310270D280DA90029089E
:100C8400AF002F08031D4D2E0030A0000030A1003E
:100C94000030A20008002F087B3EA6002608AA0701
:100CA4002008A6002108A7002208A800103003107D
:100CB400A80CA70CA60CFF3E031D592E2608A9005C
:100CC4002908AF002308A6002408A7002508A800C7
:100CD40010300310A80CA70CA60CFF3E031D6B2EAE
:100CE4002608A9002908AF068030A6002608AF050B
:100CF400A117A417FF30A305FF30A4050030A505F4
:100D04000030AB000030AC000030AD000730A6006E
:100D14002608AE00201C9C2E2308AB0724080311D0
:100D24000318240A031DAC07250803110318250A18
:100D3400031DAD0701300310A20CA10CA00CFF3E53
:100D4400031D9D2E01300310A30DA40DA50DFF3E20
:100D5400031DA52E0130AE02031D8C2E0930A60002
:100D64002608AE00201CC42E2308AB072408031158
:100D74000318240A031DAC07250803110318250AC8
:100D8400031DAD0701300310A20CA10CA00CFF3E03
:100D9400031DC52E01300310AD0CAC0CAB0CFF3E93
:100DA400031DCD2E0130AE02031DB42E2B08F0001E
:100DB4002C08F1002D08F2002A08A6002608F300EA
:100DC4002F08A7002708F4008A116E2470088312E4
:100DD4000313A0007108A1007208A2000800831286
:100DE40003133008B6003108B7003208B800031006
:100DF400370D380DB9003908BC003308B600340883
:100E0400B7003508B8000310370D380DB90039089C
:100E1400BB003C0803191A2F3B083C020318212F7E
:100E24003C03FF3A3B07B60019303602031C212F5E
:100E34003308B0003408B1003508B20008003B089C
:100E4400031908003C083B020318302F3B03FF3A08
:100E54003C07B60019303602031808000630B60005
:100E64003608BA00B21BBA17B51B3A17B117FF30D0
:100E7400B005FF30B1050030B205B417FF30B3053B
:100E8400FF30B4050030B5053B083C020318702F51
:100E940001300310B30DB40DB50DFF3E031D4B2FF0
:100EA4000130BB023B083C0603196B2F0130BA0228
:100EB4003A08073903196B2F4A2F01300310B20C7B
:100EC400B10CB00CFF3E031D602F0130B600360894
:100ED400BC073C083B060319992F5F2F3C083B02D3
:100EE4000318992F01300310B00DB10DB20DFF3E60
:100EF400031D752F0130BC023B083C060319952FD6
:100F04000130BA023A0807390319952F742F0130BA
:100F14000310B50CB40CB30CFF3E031D8A2F013033
:100F2400B6003608BB073C083B06031D892FBA1FD1
:100F3400AB2FFF30B006FF30B106FF30B2060130F0
:100F4400B007003003180130B10700300318013036
:100F5400B2073A1FBD2FFF30B306FF30B406FF308F
:100F6400B5060130B307003003180130B407003070
:100F740003180130B507BA013008B307310803116B
:100F84000318310A031DB407320803110318320A87
:100F9400031DB507B51FE02FFF30B306FF30B406BD
:100FA400FF30B5060130B307003003180130B40731
:100FB400003003180130B507BA01BA0A3308F0004B
:100FC4003408F1003508F2003C08B6003608F30096
:100FD4003A08B7003708F4008A116E2470088312A7
:100FE4000313B0007108B1007208B2000800831244
:0C0FF4000313E101E20183018A11152CB6
:00000001FF
