:10000000FD2B00308A000408840A82070034633420
:1000100075347234723465346E347434203474340C
:1000200065346D3470343A3400347334743461346C
:1000300074347534733420343A3420344F344634B5
:100040004634003465346E347434723469346E343A
:10005000673420346D346F34643465340034733461
:100060007434613474347534733420343A34203445
:100070004F344E3400347334743461347434753412
:10008000733420344F344634463400344F346E34A5
:100090002034743465346D3470343A342034003490
:1000A0004F34463446342034743465346D347034FF
:1000B0003A3400344F34663466345F347434653413
:1000C0006D3470343A3400347334743461347434BD
:1000D0007534733420344F344E3400344F346E341E
:1000E0005F34743465346D3470343A3400344F34D2
:1000F0006E343A34203400344F34463446343A3483
:0801000000343C343C340034AF
:10018E000030CC200130CC2008008312A300851053
:10019E002308DE20831205150730A2007D30A10052
:1001AE00A10BD728A20BD7288312051108008312A2
:1001BE00A000201CE4280714E5280710A01CE9283D
:1001CE008714EA288710201DEE280715EF2807113F
:1001DE00A01DF32887150800871108008312A700B9
:1001EE00A501A6012508270784000120003A03195E
:1001FE00080025082707840001202A2101308312D8
:10020E00A5070318A60A0030A607F9280A3083129C
:10021E00A0000030A1002A08A3002908A20016227F
:10022E0083122008303E2A210A308312A0000030AB
:10023E00A1002A08A3002908A200CA2183122008BF
:10024E00303E2A2108008312A40024080F39A10091
:10025E002108A2002408F039A1002108A30085146A
:10026E002308A10004300310A10CFF3E031D3A2900
:10027E002108DE20831205150D30A100A10B4529A2
:10028E00831205112208DE20831205150D30A10000
:10029E00A10B4F298312051108000030DE201A3001
:1002AE008312A500F830A400A40B5B29A50B5B29D3
:1002BE0000000330CC2007308312A5007D30A4004F
:1002CE00A40B6729A50B67290330CC200F308312AE
:1002DE00A5004730A400A40B7229A50B722977291B
:1002EE000330CC200230CC200230CC200830CC2081
:1002FE000030CC200C30CC200030CC200630CC206E
:10030E0008008312A7002703031DA92924087F3E96
:10031E00A5002508AA002A08A50004300310A50C84
:10032E00FF3E031D95292508A6002608A8002A08C9
:10033E000F39A5002508A9002808CC20831229080A
:10034E00CC200800023083122706031D0800240863
:10035E00BF3EA5002508AA002A08A50004300310F8
:10036E00A50CFF3E031DB6292508A6002608A800E9
:10037E002A080F39A5002508A9002808CC208312C9
:10038E002908CC2008008312A601A31FD529A20993
:10039E00A309A20A0319A30AA601A60AA11FDC2912
:1003AE00A009A109A00A0319A10A20082104031912
:1003BE00092AA501A50AA11BF02901300310A00DE1
:1003CE00A10DFF3E031DE5290130A4002408A50759
:1003DE00E22921082302031DF62920082202031C0C
:1003EE00FE292008A2022108031CA303A302013048
:1003FE000310A10CA00CFF3E031DFF290130A50226
:10040E00031DF02926080319112AA209A309A20A1D
:10041E000319A30A2308A1002208A00008008312D2
:10042E00A601A11F212AA009A109A00A0319A10A48
:10043E00A601A60AA31F2C2AA209A309A20A031920
:10044E00A30A0130A4002408A606A701A8012008CB
:10045E0021040319632AA501A50AA11B422A013012
:10046E000310A00DA10DFF3E031D372A0130A4007D
:10047E002408A507342A01300310A70DA80DFF3E4E
:10048E00031D432A21082302031D4F2A200822029E
:10049E00031C582A2008A2022108031CA303A3024E
:1004AE00271401300310A10CA00CFF3E031D592A86
:1004BE000130A502031D422A260803196B2AA7093B
:1004CE00A809A70A0319A80A2808A1002708A0004E
:1004DE00080083169101073083129900AE01AF0117
:1004EE00B001B101B201B3016030BE000030BF00F7
:1004FE005C30C0000030C100B401B501C201C301BF
:10050E003030831687008510051185150516851266
:10051E0082308312AC00DD30AB00AB0B942AAC0BF7
:10052E00942A992A5421C7208312071A822BC72096
:10053E008312A401A40A013088211C30F520063054
:10054E008312AD001330AC00AD30AB00AB0BAD2A57
:10055E00AC0BAD2AAD0BAD2AB42AC7204030F52026
:10056E0083124108AA004008A9000D218312A4019C
:10057E00A40A023088214A30F52083123F08AA00CF
:10058E003E08A9000D218312BA01BB01BA01BB01BD
:10059E003B08803ADF0080305F02031DD82A6530A9
:1005AE003A020318822B8312051A552B0130C2070B
:1005BE000318C30A0030C307C72083124203430443
:1005CE00031D192B4308803ADF0080305F02031DA4
:1005DE00F22A033042020318192BC7207130F5207E
:1005EE0083124108AA004008A9000D218312A4011C
:1005FE00A40A023088217630F52083123F08AA0023
:10060E003E08A9000D210F308312AB002B08A40069
:10061E00013088217B30F52001308312B800003084
:10062E00B900552B0230831242064304031D552B8D
:10063E004308803ADF0080305F02031D282B033011
:10064E0042020318552BC7207130F5208312410842
:10065E00AA004008A9000D218312A401A40A0230A9
:10066E0088217630F52083123F08AA003E08A900A3
:10067E000D210F308312AB002B08A400023088210D
:10068E007B30F52002308312B8000030B900023002
:10069E0042064304031D552BC201C3018312071AE0
:1006AE005C2B380339040319822B071A632B023093
:1006BE00380639040319822B0330AD008A30AC00A2
:1006CE005530AB00AB0B692BAC0B692BAD0B692B0B
:1006DE00702B01308312BA070318BB0A0030BB0718
:1006EE003B08803ADF0080305F02031D802B6530AF
:1006FE003A02031CDA2A83123D08803AAB00410805
:10070E00803A2B02031D8D2B40083C02031CA12BAB
:10071E0083123F08803AAB003D08803A2B02031D3E
:10072E009A2B3C083E02031CA12B83128516B601A0
:10073E00B701A72B831285120130B6000030B70027
:10074E00A401A40A013088216830F52083124108E3
:10075E00AA004008A9000D218312A401A40A0230A8
:10076E0088215430F52083123F08AA003E08A900C4
:10077E000D2106308312AD001330AC00AD30AB004E
:10078E00AB0BC72BAC0BC72BAD0BC72BCE2BC72080
:10079E008312A401A40A013088210130F5208312AE
:1007AE003D08AA003C08A9000D2183123603370428
:1007BE00031DE72BA401A40A023088213530ED2B4E
:1007CE008312A401A40A023088215E30F52006307F
:1007DE008312AD001330AC00AD30AB00AB0BF52B7C
:1007EE00AC0BF52BAD0BF52BFC2B9A2A8301702A43
:02400E0084FF2D
:00000001FF
