:040000008A11F72F3B
:10001200F601F11F1328F009F109F00A0319F10A98
:10002200F601F60AF31F1E28F209F309F20A031970
:10003200F30A0130F4007408F606F701F8017008BB
:10004200710403195528F501F50AF11B3428013012
:100052000310F00DF10DFF3E031D29280130F400BD
:100062007408F507262801300310F70DF80DFF3E3E
:10007200031D352871087302031D4128700872029E
:10008200031C4A287008F2027108031CF303F302EE
:10009200771401300310F10CF00CFF3E031D4B28C6
:1000A2000130F502031D3428760803195D28F7098B
:1000B200F809F70A0319F80A7808F1007708F0003E
:1000C2000800633065066604031D6928E501E60140
:1000D2000130E5070318E60A0030E607C330831251
:1000E2000313A600CC30A500A50B7528A60B752816
:1000F2007A28942865086604031D83286330E50086
:100102000030E600FF30E5070318E60AFF30E60795
:10011200C33083120313A600CC30A500A50B8F2891
:10012200A60B8F289428073083120313A5002508F5
:10013200F40001308A1525258A116F30F5008930C7
:10014200F6008A1575248A11043083120313A50060
:100152002508F40002308A1525258A113B30F50066
:100162008930F6008A1575248A110D308312031323
:10017200A5002508F40002308A1525258A1183126C
:1001820003136608F9006508F8008A15F0228A113F
:1001920083120313061F6228861E7B28861B94285F
:1001A200861FD1288A1593228A11F401F40A01309C
:1001B2008A1525258A116130F5008930F6008A15E5
:1001C20075248A11F401F40A02308A1525258A1150
:1001D200A930F5008830F6008A1575248A118A152F
:1001E200AF258A11750883120313E2007408E10037
:1001F200063083120313A7001330A600AD30A5000A
:10020200A50B0129A60B0129A70B012900008312C6
:1002120003136208803AA5006608803A2502031D8E
:10022200142965086102031C7C298A1593228A110C
:10023200F401F40A01308A1525258A118A30F50065
:100242008830F6008A1575248A11831203138517E4
:10025200023083120313A7000430A600BA30A500AF
:10026200A50B3129A60B3129A70B312983120313C0
:100272008513823083120313A600DD30A500A50B7F
:100282004029A60B40290000831203138517023070
:1002920083120313A7000430A600BA30A500A50BF1
:1002A2005029A60B5029A70B50298312031385133B
:1002B200823083120313A600DD30A500A50B5F294F
:1002C200A60B5F29000083120313851702308312E5
:1002D2000313A7000430A600BA30A500A50B6F29AE
:1002E200A60B6F29A70B6F298312031385138A1597
:1002F20093228A119428831203136508FB3EE300BC
:1003020066080318013EFF3EE4000130B2000030EF
:10031200B300FB01FB0A6408FD006308FC00003027
:100322008A157C238A11033083120313A500250842
:10033200FB006608FD006508FC0002308A157C237C
:100342008A11053083120313A5002508FB00330828
:10035200FD003208FC0004308A157C238A118312C6
:1003620003136608E0006508DF000130B4000030C6
:10037200B50034033504031D1F2A8A1593228A11FE
:10038200023083120313A5002508F40001308A15F8
:1003920025258A119A30F5008830F6008A157524D1
:1003A2008A11063083120313A5002508F4000230D7
:1003B2008A1525258A114F30F5008930F6008A15F5
:1003C20075248A11073083120313A5002508F6004D
:1003D20006308A1541248A11760883120313A60077
:1003E2002608C3000518F82905182A2DF529061A2A
:1003F200C129061EFA296903031D012A071485145F
:100402008A1593228A11053083120313A500250849
:10041200F60004308A1541248A11770883120313E7
:10042200C7007608C6000730A5002508FB0000308B
:10043200FC00FD0006308A157C238A1107308312E6
:100442000313A5002508F60006308A1541248A11F7
:10045200760883120313A6002608C3004603470446
:10046200031943030319BE2946034704031D352D0F
:100472004308031D352DF601F60A00308A15412482
:100482008A11770883120313E4007608E30003302D
:10049200A5002508F60002308A1541248A11770842
:1004A20083120313E6007608E500871B752C582E8D
:1004B200831203136208803AA5006608803A250277
:1004C200031D652A65086102031CEC2A01308312B0
:1004D2000313CD000030CE00B601B7016508033E1C
:1004E200B90066080318013E003EBA0051085204E2
:1004F200031D822AD701D8010130D5000030D60071
:10050200CF2C6208803AA5003A08803A2502031DE2
:100512008C2A39086102031C942A013083120313C6
:10052200B6000030B7008312031336033704031DED
:10053200EC2A8A1593228A1183120313B601B7019A
:10054200F401F40A01308A1525258A115930F50083
:100552008830F6008A1575248A11831203138517D1
:10056200023083120313A7008630A6009830A5003C
:10057200A50BB92AA60BB92AA70BB92AC02A83123E
:10058200031385138A15AF258A1175088312031385
:10059200B1007408B000033083120313A7008A303D
:1005A200A6005530A500A50BD42AA60BD42AA70B6A
:1005B200D42A0000831203133108803AA5003A08B6
:1005C200803A2502031DE72A3908300203189D2AC2
:1005D2008A1593228A1183120313AE01AF011030E0
:1005E200A5002508F40001308A1525258A1124303A
:1005F200F5008830F6008A1575248A1102308312BC
:100602000313A5002508F40001308A1525258A1157
:10061200F230F5008830F6008A1575248A11DF3031
:100622008A15DB238A110F3083120313A5002508D4
:10063200F40001308A1525258A117630F5008930BB
:10064200F6008A1575248A11F401F40A02308A151B
:1006520025258A116A30F5008930F6008A1575243D
:100662008A11053083120313A5002508F400023015
:100672008A1525258A11831203136608F900650875
:10068200F8008A15F0228A11073083120313A5009D
:100692002508F40002308A1525258A115830F50004
:1006A2008930F6008A1575248A110F3083120313DC
:1006B200A5002508F40002308A1525258A11831227
:1006C20003136208F9006108F8008A15F0228A1102
:1006D200831203136008803AA5006208803A25025B
:1006E200031D752B61085F02031C802B8312031309
:1006F20053085404031D802BDF01E001942B831265
:1007020003136408803AA5006208803A2502031D9B
:100712008C2B61086302031C992B83120313530869
:100722005404031D992B0130D7000030D800CF2C80
:1007320083120313BB01BC013C08803AFF008330E3
:100742007F02031DA62BE9303B020318752C83128E
:100752000313871F071BD92BED01ED0ABD01BE0153
:100762003E08803AFF0083307F02031DBA2BE93036
:100772003D020318172E83120313871BC32BCC01D0
:10078200CC0AC42BCC014C080319AF2BC7308312FF
:100792000313A500CC2BA50BCB2BCF2B00000130D4
:1007A20083120313BD070318BE0A0030BE07B12B24
:1007B200871BF72B0230A5002508F40001308A15AB
:1007C20025258A110030F5008830F6008A15752437
:1007D2008A11F401F40A02308A1525258A1114308F
:1007E200F5008830F6008A1575248A1183120313E6
:1007F2000518272C8517023083120313A700C73070
:10080200A6008830A500A50B042CA60B042CA70B70
:10081200042C83120313570358040319182C55038D
:1008220056040319182C4D034E04031D252CD70121
:10083200D8010130D5000030D600DD01DE010130E3
:10084200DB000030DC005E2C051C252C061A632C14
:100852008517023083120313A700C730A600883021
:10086200A500A50B322CA60B322CA70B322C07307D
:1008720083120313A5002508FB000130FC000030A1
:10088200FD0006308A157C238A1183120313570355
:1008920058040319542C550356040319542C4D03C0
:1008A2004E04031D612CD701D8010130D500003060
:1008B200D6000130DD000030DE00CD01CE01CF2CAC
:1008C200061E612CC73083120313A500682CA50BEA
:1008D200672C6B2C0000013083120313BB07031833
:1008E200BC0A0030BC079D2B83120313EA018A1550
:1008F200AF258A11750883120313E2007408E10020
:10090200AE01AF016208803AFF0080307F02031D12
:100912008C2C013061020318592A0230831203130E
:10092200A5002508F40001308A1525258A116A30B0
:10093200F5008830F6008A1575248A11F401F40A4C
:1009420002308A1525258A111530F5008830F60007
:100952008A1575248A1183120313851702308312B4
:100962000313A7000430A600BA30A500A50BB72CCC
:10097200A60BB72CA70BB72C8312031385130230D7
:1009820083120313A7000430A600BA30A500A50BFA
:10099200C82CA60BC82CA70BC82C752C83120313CA
:1009A20057035804031DFF2C0714851485170230C2
:1009B20083120313A7004530A600A930A500A50B9A
:1009C200E02CA60BE02CA70BE02C000083120313F3
:1009D20085130130D3000030D400D101D20101309F
:1009E200CF000030D0005D035E04031D3C2AD50118
:1009F200D601DD01DE01D701D801BE295503560417
:100A0200031DAA2D071085108517023083120313C8
:100A1200A7004530A600A930A500A50B0E2DA60BF8
:100A22000E2DA70B0E2D0000831203138513D30185
:100A3200D4010130D1000030D2000130CF000030AB
:100A4200D0005B035C04031D2C2DD501D601DB0114
:100A5200DC018A15B42E5D035E04031D3C2AD50118
:100A6200D601DD01DE01BE2946084704031DAA2D79
:100A72000130A5002508CC0703304C020318F52FDE
:100A820002304C060319CC01871BF52FBF01C001B0
:100A92004008803AFF0083307F02031D522DE93067
:100AA2003F020318F52F83120313871F1C2EC73032
:100AB20083120313A5005D2DA50B5C2D602D000094
:100AC200013083120313BF070318C00A0030C007A6
:100AD200492D023083120313A5002508F4000130CA
:100AE2008A1525258A116A30F5008830F6008A15A4
:100AF20075248A11F401F40A02308A1525258A1117
:100B02001530F5008830F6008A1575248A11831293
:100B120003138517023083120313A7000430A600C3
:100B2200BA30A500A50B932DA60B932DA70B932DE1
:100B3200831203138513023083120313A7000430B8
:100B4200A600BA30A500A50BA42DA60BA42DA70BB9
:100B5200A42D8312031305158A15871B4B2E023011
:100B620083120313A5002508F40001308A152525F8
:100B72008A11C730F5008830F6008A1575248A116B
:100B8200063083120313A7001330A600AD30A50070
:100B9200A50BC92DA60BC92DA70BC92D0000073027
:100BA20083120313A5002508F60006308A15412496
:100BB2008A11760883120313A6002608EE00871F07
:100BC200071B202EC101C2014208803AFF00833078
:100BD2007F02031DEE2DE93041020318172E831206
:100BE2000313871BF72DCC01CC0AF82DCC014C083E
:100BF2000319E32DC73083120313A500002EA50BA2
:100C0200FF2D032E0000013083120313C1070318C6
:100C1200C20A0030C2074208803AFF0083307F02D6
:100C2200031D152EE9304102031CF02D831203131C
:100C32004C03031D1C2FC501C50ACC01582E071FEA
:100C4200E02D0230A5002508F40001308A15252583
:100C52008A117A30F5008830F6008A1575248A11D7
:100C6200831203138517023083120313A700043083
:100C7200A600BA30A500A50B3C2EA60B3C2EA70B56
:100C82003C2E831203138513023083120313A70031
:100C92000430A600BA30A500A50B4D2EA60B4D2E92
:100CA200A70B4D2E83120313871BAA2D312E8A15F3
:100CB20093228A11023083120313A5002508F4003F
:100CC20001308A1525258A114530F5008930F60054
:100CD2008A1575248A11F401F40A02308A15252531
:100CE2008A111530F5008830F6008A1575248A11AC
:100CF200023083120313A5002508F40002308A157E
:100D020025258A11831203136A08A500A601250866
:100D1200F8002608F9008A15F0228A11063083129B
:100D22000313A5002508F40002308A1525258A112F
:100D3200831203136808F9006708F8008A15F02285
:100D42008A110B1D1E2F0B11013083120313C807CA
:100D52000318C90A0030C9070F30F0000030F10053
:100D62004908F3004808F2008A1109208A11710823
:100D720083120313E8007008E7004908803AFF0075
:100D820083307F02031DC72E933048020318D02EF2
:100D9200831203136B08031DD02EEC01EC0A83129D
:100DA20003134908803AFF0083307F02031DDB2EC4
:100DB20095304802031CE72E831203136B03031DB5
:100DC200E72E0130A5002508EA07EC018312031380
:100DD2004908803AFF0083307F02031DF22EE13082
:100DE2004802031CF82E83120313C801C90183129F
:100DF2000313071B871F1E2F063083120313A7003E
:100E02001330A600AD30A500A50B052FA60B052FAC
:100E1200A70B052F000083120313071B871FAA2DA0
:100E22008511C801C9014503031DAA2D6E03031DC7
:100E32001C2FC501BE29C501562A83120313871F21
:100E42005C2F6A03031D5C2F85110230A500250863
:100E5200F40001308A1525258A11D630F500883034
:100E6200F6008A1575248A1183120313851702303E
:100E720083120313A7000430A600BA30A500A50B05
:100E8200402FA60B402FA70B402F8312031385136D
:100E9200023083120313A7000430A600BA30A50063
:100EA200A50B512FA60B512FA70B512F8312031302
:100EB200071F252FEA01071B871B992F6A03031DB2
:100EC200992F85110230A5002508F40001308A15FA
:100ED20025258A11E430F5008830F6008A1575243C
:100EE2008A11831203138517023083120313A7009A
:100EF2000430A600BA30A500A50B7D2FA60B7D2FCE
:100F0200A70B7D2F83120313851302308312031361
:100F1200A7000430A600BA30A500A50B8E2FA60BA1
:100F22008E2FA70B8E2F83120313871F622FEA01C6
:100F320003306A06031DE92F6D03031DE92FEA0141
:100F4200C801C9010230A5002508F40001308A1544
:100F520025258A113030F5008930F6008A1575246E
:100F62008A11023083120313A5002508F40002300F
:100F72008A1525258A11FF30F5008830F6008A157A
:100F820075248A1183120313851782308312031387
:100F9200A600DD30A500A50BCC2FA60BCC2F0000A0
:100FA200831203138513413083120313A600EE301C
:100FB200A500A50BDA2FA60BDA2F83120313071055
:100FC20085108511871FA02FEA01E901E90ABE29D0
:100FD2006C03031DEF2F8515EB01EB0A6C08031D53
:100FE200792E8511EB01792E8A15FA2F83134D3054
:100FF200840070308A159B2283018A15FE2D73347A
:1010020065346E3473346F3472343234203466345F
:10101200613475346C3474342134213420342034F6
:10102200203420340034203420342034203420343E
:10103200203420342034203420342034203420340E
:101042002034203420342034003420342A34203414
:1010520042345234453457344D3441345334543489
:101062004534523420342A34203400342034453478
:101072004E34543445345234203450344134533491
:10108200533457344F3452344434203400342034EF
:10109200453458345434453452344E3441344C344B
:1010A200203442344F3449344C34453452340034C1
:1010B20048346934673468342034543465346D34C8
:1010C2007034653472346134743475347234653416
:1010D2000034533445344E3453344F345234203474
:1010E2004634413455344C3454342134213421347F
:1010F2000034733465346E3473346F347234323482
:1011020020346634613475346C34743421342134BF
:10111200003445346E3474346534723420346834A7
:101122006934673468342034743465346D3470340F
:1011320000342A34203442345234453457344D3446
:101142004134533454344534523420342A34003434
:10115200543465346D3470346534723461347434AB
:101162007534723465342E342E342E340034773490
:1011720072346F346E3467342034703461347334B3
:10118200733477346F3472346434003443346834E3
:10119200653463346B3469346E34673420347734A5
:1011A20061347434653472340034733465346E34AB
:1011B20073346F34723431342034663461347534AC
:1011C2006C3474340034733465346E3473346F3475
:1011D2007234323420346634613475346C3474348D
:1011E2000034543445344D3450344534523441344F
:1011F2005434553452344534203400346334613429
:101202007534743469346F346E34213421342134AA
:1012120021342134003473347434613474347534B9
:10122200733420343A3420344F3446344634003454
:1012320073347434613474347534733420343A340E
:1012420020344F344E3400344C344F344734493414
:101252004E3453342E342E342E342E340034703423
:1012620075346D34703420346634613475346C34C2
:10127200743400344D3441345834203454344534B9
:101282004D3450343A3400344C344F3457342034D3
:101292005734613474346534723400345234453412
:1012A2004134443459342E342E342E340034203414
:1012B200413443345434553441344C343A34003498
:1012C20043346834653463346B3469346E34673460
:1012D20000345334453454343A34003453344534AE
:1012E200543400342A342A34003443340034FF1B8B
:1012F200822983137F1883170008840A0319FF0ABF
:1013020008007F087F398A000408840A0319FF0A4B
:02131200820057
:1015260000308A15A3228A1501308A15A3220800E5
:1015360064008001840A04060319003404069C2A08
:10154600F30083120313071273088A15BB228A1548
:101556008312031387160630F2003030F100F10BC8
:10156600B22AF20BB22A0000831203138712080074
:10157600F000701CC22A831203130614C52A8312B4
:1015860003130610F01CC92A8614CA2A8610701D79
:10159600CE2A0615CF2A0611F01DD32A8615080075
:1015A60086110800F1006400831603178C18D62AEA
:1015B6007108831203178D003F30F0007008831600
:1015C60003178C050C1403100C18031400300318B1
:1015D6000130831203170C0808000A30F0000030AF
:1015E600F1007908F3007808F2008A15AC248A1510
:1015F6007008303E8A15DB238A150A30F000003069
:10160600F1007908F3007808F2008A15A9238A15F3
:101616007008303E8A15DB230800F401F501701CC2
:101626001A2B7208F4070318F50A7308F507013038
:101636000310F20DF30DFF3E031D1B2B01300310AB
:10164600F10CF00CFF3E031D222B70087104031DE4
:10165600122B7508F1007408F000080083160313B6
:1016660087118312031387119F30F000F00B392B7B
:101676003C2B8316031387151330F000F00B412B18
:10168600442B8312031387194F2B9F30F000F00B66
:101696004A2B4D2B003008009F30F000F00B512BE9
:1016A600542B01300800FA00831603178C18572BA9
:1016B6007A08831203178D0078088C003F30F900F2
:1016C6007908831603178C058312031303108B1BEB
:1016D60003148B13831603170C1555308D00AA308F
:1016E6008D008C140C1183120313031C08008B1736
:1016F600080083120313A1000A30F0000030F10045
:101706007D08F3007C08F2008A15AC248A1570085F
:1017160083120313A0002008F80021088A15562317
:101726008A150A30F0000030F1007D08F3007C08CD
:10173600F2008A15A9238A15700883120313A000E4
:101746002008F8007B088A155623080070087104E3
:101756000319D62BF501F50AF11BBD2B0130031039
:10176600F00DF10DFF3E031DB22B0130F40074089D
:10177600F507AF2B71087302031DC32B70087202A5
:10178600031CCB2B7008F2027108031CF303F3024F
:1017960001300310F10CF00CFF3E031DCC2B013081
:1017A600F502031DBD2B7308F1007208F000080056
:1017B600F40074080F39F1007108F2007408F0396A
:1017C600F1007108F3008312031307167308F10082
:1017D60004300310F10CFF3E031DEC2B71088A1533
:1017E600BB228A158312031387160D30F100F10B05
:1017F600FA2B83120313871272088A15BB228A15E5
:101806008312031387160D30F100F10B082C831297
:10181600031387120800F201831603138715F301D9
:101826000830730203183F2C8316031387118312A3
:10183600031387111E2C83160313871583120313B4
:10184600871D322C0130F000730A2B2C0310F00D8B
:10185600FF3E031D292C7008F1007108F2041330B5
:10186600F000F00B342C372C0130F0007008F30731
:1018760008307302031C172C720808008312031326
:10188600A000A101A201A301A40120088A15D52266
:101896008A15F800F901780883120313A100790864
:1018A600A20076088A15D5228A15F800F90178086B
:1018B60083120313A3007908A4002208F10021086B
:1018C600F0000A30F2000030F3008A15102383126C
:1018D600031323087007F60024080318240A710767
:1018E600F7000800FA01FB017A087507F800760888
:1018F600F7000318F70AFA1BF7037708F9007908C7
:1019060083120313FF00780884008A1578218A154C
:10191600003A031908007A087507F8007608F700F8
:101926000318F70AFA1BF7037708F90079088312F8
:101936000313FF00780884008A1578218A158A1512
:10194600DB238A150130FA070318FB0A0030FB0770
:10195600772CF501F601700871040319E32CF701E1
:10196600F70AF11BC22C01300310F00DF10DFF3EFA
:10197600031DB72C0130F4007408F707B42C0130AE
:101986000310F50DF60DFF3E031DC32C71087302FF
:10199600031DCF2C70087202031CD82C7008F202AB
:1019A6007108031CF303F302751401300310F10CE4
:1019B600F00CFF3E031DD92C0130F702031DC22C8B
:1019C6007608F1007508F0000800F1007108F000D3
:1019D6007008F200831603138715F30108307302AB
:1019E600031808000130F000730AFB2C0310F00DF9
:1019F600FF3E031DF92C700872050319122D83167C
:101A06000313871183120313871100008316031330
:101A160087151330F000F00B0E2D112D202D831697
:101A2600031387118312031387111330F000F00B91
:101A36001A2D1D2D8316031387150130F00070082B
:101A4600F307F12CF7007703031D472D74087F3E3B
:101A5600F5007508FA007A08F50004300310F50C55
:101A6600FF3E031D312D7508F6007608F8007A084A
:101A76000F39F5007508F90078088A15A3228A152A
:101A860079088A15A322080002307706031D08008C
:101A96007408BF3EF5007508FA007A08F5000430B0
:101AA6000310F50CFF3E031D532D7508F60076084E
:101AB600F8007A080F39F5007508F90078088A15D4
:101AC600A3228A1579088A15A322080000308A15F0
:101AD600BB228A151A30F500F830F400F40B712D8C
:101AE600F50B712D000003308A15A3228A150730E5
:101AF600F5007D30F400F40B7E2DF50B7E2D0330C2
:101B06008A15A3228A150F30F5004730F400F40B2E
:101B16008A2DF50B8A2D8F2D03308A15A3228A155F
:101B260002308A15A3228A1502308A15A3228A1545
:101B360008308A15A3228A1500308A15A3228A1531
:101B46000C308A15A3228A1500308A15A3228A151D
:101B560006308A15A3220800F801F901FA01FB01F3
:101B6600FC01FD018A1531238A15003A031DF72D64
:101B7600CC308A15E8248A1544308A15E8248A155B
:101B86002130F600F60BC52D8A1531238A15CC3087
:101B96008A15E8248A15BE308A15E8248A158A151E
:101BA6000E248A15F600F7017608F8007708F90082
:101BB6008A150E248A15F600F7017608FA007708CA
:101BC600FB007A08F700F60178087604FC0079082D
:101BD6007704FD007C0E0F39FC007D0EF039FC0405
:101BE6007D0E0F39FD00F92DFC01FD017D08F50084
:101BF6007C08F40008000130831603138500F030DA
:101C06008600C030870007308100831203138101EC
:101C16008316031788018901F03083160313950094
:101C260083120313AA01AB01CA01CB01A801A901C2
:101C3600AC01AD01C401B201B30107108510B401B6
:101C4600B501C301C801C901C501CC018A156925C1
:101C56008A158A1593228A15F601F60A00308A1526
:101C660041248A15770883120313E4007608E300FB
:101C76000330A5002508F60002308A1541248A158E
:101C8600770883120313E6007608E5008A11AA2D69
:101C96008A15AF258A15750883120313DA007408AE
:101CA600D9005A08803AFF0080307F02031D5D2E5E
:101CB600013059028A11031C6A2DF401F40A01301D
:101CC6008A1525258A152630F5008830F6008A15EE
:101CD60075248A15F401F40A02308A1525258A1519
:101CE6004830F5008830F6008A1575248A150630C6
:101CF60083120313A7001330A600AD30A500A50B71
:101D0600822EA60B822EA70B822E000083120313AF
:101D16008517063083120313A7001330A600AD30D3
:101D2600A500A50B942EA60B942EA70B942E0000AF
:101D36008312031385138A1593228A15053083129D
:101D46000313A5002508F60004308A1541248A15D8
:101D5600770883120313C7007608C6000518FE2FFE
:101D6600B80103304406031DCE2E851708308312B2
:101D76000313A7001B30A6002630A500A50BC12E15
:101D8600A60BC12EA70BC12EC82E831203138513D3
:101D9600C4018A11BE298A1593228A15F401F40A10
:101DA60001308A1525258A153730F5008830F6006A
:101DB6008A1575248A15073083120313A500250892
:101DC600F40002308A1525258A157330F50089300E
:101DD600F6008A1575248A1583120313061BFE2E38
:101DE6000130CA070318CB0A0030CB07B801B80A7E
:101DF600061BD42FFB2E861AEF2EFF30CA070318B8
:101E0600CB0AFF30CB07B801B80A861AD42F082FA1
:101E16000730A5002508F40002308A1525258A1505
:101E2600831203134B08F9004A08F8008A15F022BA
:101E36008A1583120313061B392F32304A064B04C8
:101E4600031D272FCA01CB010130CA070318CB0A8D
:101E56000030CB07C33083120313A600CC30A50095
:101E6600A50B332FA60B332F382F542F861A542F3A
:101E76004A034B04031D432F3230CA000030CB0007
:101E8600FF30CA070318CB0AFF30CB07C3308312D3
:101E96000313A600CC30A500A50B4F2FA60B4F2F82
:101EA600542F83120313061AD42F02304A064B040A
:101EB600031D672FAA01AB010130AC000030AD0055
:101EC600CA01CB01C401D72F8A1593228A15F401C2
:101ED600F40A01308A1525258A15B830F5008830B0
:101EE600F6008A1575248A15013083120313A5009E
:101EF6002508C407033044020318D12F8517023082
:101F060083120313A7000430A600BA30A500A50B60
:101F16008A2FA60B8A2FA70B8A2F831203138513EA
:101F2600823083120313A600DD30A500A50B992F7E
:101F3600A60B992F00008312031385170230831214
:101F46000313A7000430A600BA30A500A50BA92FDD
:101F5600A60BA92FA70BA92F831203138513823073
:101F660083120313A600DD30A500A50BB82FA60B20
:101F7600B82F000083120313851702308312031350
:101F8600A7000430A600BA30A500A50BC82FA60BE3
:101F9600C82FA70BC82F831203138513CA01CB01C1
:101FA600B42E3808031D0B2F8A1593228A15043088
:101FB60083120313A5002508F40001308A15252590
:101FC6008A152530F5008930F6008A1575248A159C
:101FD600063083120313A7001330A600AD30A50008
:101FE600A50BF32FA60BF32FA70BF32F00008A15D3
:0A1FF60093228A1194288A11BA2957
:04400E00D4E3FFFFF9
:1042000000000000090000000000000000000000A5
:00000001FF
