:100000008A11FD2F00308A000408840A8207003418
:1000100045346E3474346534723469346E34673404
:10002000203473346534743475347034003463347C
:1000300075347234723465346E34743420347434EC
:1000400065346D3470343A340034483445344134C6
:100050005434453452342034203420344F34463420
:100060004634003473347434613474347534733406
:1000700020343A3420344F34463446340034483443
:1000800045344134543445345234203420342034FF
:100090004F344E34003473347434613474347534F2
:1000A000733420343A3420344F344E3400344F34D7
:1000B0006E342034743465346D3470343A34203402
:1000C00000344F34463446342034743465346D344F
:1000D00070343A3400344F34663466345F347434E8
:1000E00065346D3470343A3400344F346E345F34D8
:1000F000743465346D3470343A3400344F346E34B3
:100100003A34203400344F34463446343A340034E0
:0E0110004F346E343A3400343C343C34003406
:1004EE0000308A117F228A1101308A117F22080082
:1004FE00F30083120313851073088A1197228A1151
:10050E008312031305150630F2003030F100F10BA3
:10051E008E2AF20B8E2A0000831203130511080097
:10052E00F000701C9E2A831203130714A12A831253
:10053E0003130710F01CA52A8714A62A8710701D16
:10054E00AA2A0715AB2A0711F01DAF2A8715080036
:10055E0087110800F700F501F6017508770784008A
:10056E008A1102208A11003A0319080075087707CC
:10057E0084008A1102208A118A1112238A110130F5
:10058E00F5070318F60A0030F607B42A0A30F00011
:10059E000030F1007A08F3007908F2008A11D624AF
:1005AE008A117008303E8A1112238A110A30F00027
:1005BE000030F1007A08F3007908F2008A113F2426
:1005CE008A117008303E8A11122308008316031315
:1005DE0005108312031305109F30F000F00BF52A5F
:1005EE00F82A8316031305141330F000F00BFD2ABE
:1005FE00002B8312031305180B2B9F30F000F00B0A
:10060E00062B092B003008009F30F000F00B0D2B4D
:10061E00102B01300800F40074080F39F100710836
:10062E00F2007408F039F1007108F300831203131D
:10063E0085147308F10004300310F10CFF3E031D06
:10064E00232B71088A1197228A1183120313051521
:10065E000D30F100F10B312B8312031305117208CB
:10066E008A1197228A118312031305150D30F1009A
:10067E00F10B3F2B8312031305110800F2018316B1
:10068E0003130514F301083073020318762B831637
:10069E0003130510831203130510552B8316031332
:1006AE00051483120313051C692B0130F000730A25
:1006BE00622B0310F00DFF3E031D602B7008F1003E
:1006CE007108F2041330F000F00B6B2B6E2B01301F
:1006DE00F0007008F30708307302031C4E2B7208EB
:1006EE000800F1007108F0007008F2008316031381
:1006FE000514F30108307302031808000130F000EE
:10070E00730A8B2B0310F00DFF3E031D892B70080F
:10071E0072050319A22B83160313051083120313FC
:10072E00051000008316031305141330F000F00BB0
:10073E009E2BA12BB02B83160313051083120313CC
:10074E0005101330F000F00BAA2BAD2B83160313FC
:10075E0005140130F0007008F307812BF7007703C2
:10076E00031DD72B74087F3EF5007508FA007A0832
:10077E00F50004300310F50CFF3E031DC12B750868
:10078E00F6007608F8007A080F39F5007508F900BA
:10079E0078088A117F228A1179088A117F2208002F
:1007AE0002307706031D08007408BF3EF500750879
:1007BE00FA007A08F50004300310F50CFF3E031D15
:1007CE00E32B7508F6007608F8007A080F39F50065
:1007DE007508F90078088A117F228A1179088A1122
:1007EE007F22080000308A1197228A111A30F500F4
:1007FE00F830F400F40B012CF50B012C0000033043
:10080E008A117F228A110730F5007D30F400F40B37
:10081E000E2CF50B0E2C03308A117F228A110F300D
:10082E00F5004730F400F40B1A2CF50B1A2C1F2C84
:10083E0003308A117F228A1102308A117F228A1197
:10084E0002308A117F228A1108308A117F228A1182
:10085E0000308A117F228A110C308A117F228A1170
:10086E0000308A117F228A1106308A117F220800F9
:10087E00F601F31F492CF209F309F20A0319F30AE0
:10088E00F601F60AF11F502CF009F109F00A0319CE
:10089E00F10A7008710403197D2CF501F50AF11B9C
:1008AE00642C01300310F00DF10DFF3E031D592C89
:1008BE000130F4007408F507562C71087302031DFD
:1008CE006A2C70087202031C722C7008F2027108F6
:1008DE00031CF303F30201300310F10CF00CFF3E86
:1008EE00031D732C0130F502031D642C76080319C9
:1008FE00852CF209F309F20A0319F30A7308F100C1
:10090E007208F0000800F801F901FA01FB01FC0180
:10091E00FD018A11ED228A11003A031DD12CCC3033
:10092E008A1178238A1144308A1178238A11C730AC
:10093E00F600F60BA02CA32C8A11ED228A11CC30D6
:10094E008A1178238A11BE308A1178238A118A116E
:10095E0045238A11F600F7017608F8007708F900AA
:10096E008A114523F600F7017608FA007708FB0096
:10097E007A08F700F60178087604FC007908770407
:10098E00FD007C0E0F39FC007D0EF039FC047D0E4F
:10099E000F39FD007D08F5007C08F4000800F60113
:1009AE00F11FE02CF009F109F00A0319F10AF60122
:1009BE00F60AF31FEB2CF209F309F20A0319F30AF4
:1009CE000130F4007408F606F701F801700871049E
:1009DE000319222DF501F50AF11B012D013003102B
:1009EE00F00DF10DFF3E031DF62C0130F4007408DE
:1009FE00F507F32C01300310F70DF80DFF3E031D24
:100A0E00022D71087302031D0E2D70087202031C55
:100A1E00172D7008F2027108031CF303F30277140A
:100A2E0001300310F10CF00CFF3E031D182D0130A8
:100A3E00F502031D012D760803192A2DF709F80971
:100A4E00F70A0319F80A7808F1007708F000080091
:100A5E00831603139101F730831203139900A30138
:100A6E00A401A501A601A701A8016030B7000030BE
:100A7E00B8005C30B9000030BA00A901AA01B50176
:100A8E00B6013030831603138700851005118515C6
:100A9E0005168512823083120313A100DD30A000EB
:100AAE00A00B572DA10B572D00008A11F9238A1187
:100ABE008A1177228A118A118A248A117508831263
:100ACE000313B4007408B300071A402F8A1177225B
:100ADE008A11F401F40A01308A11B5238A1101300A
:100AEE008A11B1228A11063083120313A200133029
:100AFE00A100AD30A000A00B822DA10B822DA20B68
:100B0E00822D00008A1177228A11F401F40A013035
:100B1E008A11B5238A1150308A11B1228A1183129B
:100B2E0003133A08FA003908F9008A11CD228A1106
:100B3E00F401F40A02308A11B5238A115A308A114F
:100B4E00B1228A11831203133808FA003708F9000C
:100B5E008A11CD228A1183120313AB01AC018312C9
:100B6E000313051AC92D0130B5070318B60A003054
:100B7E00B607033035063604031DC92D0130B50006
:100B8E000030B60035033604031D502E3608803A69
:100B9E00FF0080307F02031DD62D0330350203186F
:100BAE00502E8A1177228A11F401F40A01308A112B
:100BBE00B5238A1177308A11B1228A110C30831233
:100BCE000313A0002008F40001308A11B5238A1106
:100BDE00831203133A08FA003908F9008A11CD225C
:100BEE008A11F401F40A02308A11B5238A117C307D
:100BFE008A11B1228A110C3083120313A00020082F
:100C0E00F40002308A11B5238A11831203133808B7
:100C1E00FA003708F9008A11CD228A110F3083129B
:100C2E000313A0002008F40001308A11B5238A11A5
:100C3E0085308A11B1228A11013083120313AF005D
:100C4E000030B00085193E2E0130B9070318BA0ADC
:100C5E000030BA0738083A06031D372E3708390612
:100C6E00031DE42E3C30B9000030BA00E42E871A82
:100C7E00212F3C3039063A04031D492E3808BA009C
:100C8E003708B900FF30B9070318BA0AFF30BA07A0
:100C9E00E42E02308312031335063604031D212F72
:100CAE003608803AFF0080307F02031D602E03302D
:100CBE0035020318212F8A1177228A11F401F40AC2
:100CCE0001308A11B5238A1177308A11B1228A1127
:100CDE000C3083120313A0002008F40001308A1197
:100CEE00B5238A11831203133A08FA003908F90062
:100CFE008A11CD228A11F401F40A02308A11B52329
:100D0E008A117C308A11B1228A110C30831203139E
:100D1E00A0002008F40002308A11B5238A11831234
:100D2E0003133808FA003708F9008A11CD228A1108
:100D3E000F3083120313A0002008F40002308A1132
:100D4E00B5238A1185308A11B1228A11023083129D
:100D5E000313AF000030B0008519C42E6230370681
:100D6E003804031DBE2E3A08B8003908B70001300A
:100D7E00B7070318B80A0030E32E871A212F380858
:100D8E00B2003708B1003108FF3EB1003208031837
:100D9E00013EFF3EB2003A083206031DD82E390836
:100DAE003106031DDE2E6330B7000030B800FF3071
:100DBE00B7070318B80AFF30B8078A1177228A11CD
:100DCE00F401F40A01308A11B5238A1181308A1197
:100DDE00B1228A110C3083120313A0002008F400F4
:100DEE0001308A11B5238A11831203133A08FA00CF
:100DFE003908F9008A11CD228A11F401F40A023061
:100E0E008A11B5238A117C308A11B1228A110C30D5
:100E1E0083120313A0002008F40002308A11B523B8
:100E2E008A11831203133808FA003708F9008A1161
:100E3E00CD228A1183120313071A292F2F03300490
:100E4E000319402F071A302F02302F0630040319D2
:100E5E00402F033083120313A2008A30A1005530B5
:100E6E00A000A00B382FA10B382FA20B382F00009B
:100E7E00B62D8A1177228A11831203133408803A11
:100E8E00A0003A08803A2002031D4F2F3908330282
:100E9E00031C652F831203133808803AA000340810
:100EAE00803A2002031D5D2F33083702031C652F85
:100EBE00831203138516AD01AE016C2F831203133B
:100ECE0085120130AD000030AE00F401F40A01309D
:100EDE008A11B5238A116E308A11B1228A110E3011
:100EEE0083120313A0002008F40001308A11B523E9
:100EFE008A11831203133A08FA003908F9008A118D
:100F0E00CD228A11F401F40A02308A11B5238A1116
:100F1E0064308A11B1228A110E3083120313A0009D
:100F2E002008F40002308A11B5238A1183120313AC
:100F3E003808FA003708F9008A11CD228A110630D6
:100F4E0083120313A2001330A100AD30A000A00B3A
:100F5E00AE2FA10BAE2FA20BAE2F00008A1177225F
:100F6E008A11F401F40A01308A11B5238A11103066
:100F7E008A11B1228A110E3083120313A0002008A9
:100F8E00F40001308A11B5238A1183120313340839
:100F9E00FA003308F9008A11CD228A118312031345
:100FAE002D032E04031DE32FF401F40A02308A11DF
:100FBE00B5238A111E30EA2FF401F40A02308A1189
:100FCE00B5238A1138308A11B1228A110630831264
:100FDE000313A2001330A100AD30A000A00BF52F1B
:100FEE00A10BF52FA20BF52F00005F2D83018A11A7
:020FFE002F2D95
:02400E00D4FCE0
:00000001FF
