:10000000F22B00308A000408840A8207003453343B
:0A00100044345334413444340034C6
:10061400831691010730831299008316850187019F
:100624006A238312B101B10A01302D230130522310
:10063400182B8312B00007123008992383128716EF
:100644000730AF007D30AE00AE0B262BAF0B262B50
:100654008312871208008312B2003203031D362B63
:100664003108803E1B230800023083123206031D2A
:1006740008003108C03E1B2308008312B00007168F
:1006840030089923831287160630AF003030AE004D
:10069400AE0B4A2BAF0B4A2B0000831287120800C3
:1006A4008312B300B101B201310833078400012081
:1006B400003A0319080031083307840001203F235E
:1006C40001308312B1070318B20A0030B207562B67
:1006D40000309923831207122130B2007630B10022
:1006E400B10B722BB20B722B000030301B2307307E
:1006F4008312B2007D30B100B10B7E2BB20B7E2B86
:1007040030301B2314308312B2007930B100B10BA6
:10071400892BB20B892B8E2B30301B2338301B23B3
:100724000C301B2301301B2306301B2308008312CB
:10073400AD002D1CA02BA001A00AA12BA001AD1C73
:10074400A62BA101A10AA72BA1012D1DAC2BA2014F
:10075400A20AAD2BA201AD1DB22BA301A30AB32B98
:10076400A3012D1EB82BA401A40AB92BA401AD1E0C
:10077400BE2BA501A50ABF2BA5012D1FC42BA601C5
:10078400A60AC52BA601AD1FCA2BA701A70ACB2B0E
:10079400A701AB01AC012C08803ADF0080305F0276
:1007A400031DD62B08302B0203180800831287146C
:1007B4000330AA00AA0BDC2B83122B08203E8400F2
:1007C4008313001CE82B83120714EA2B83120710EF
:1007D40087100130AB070318AC0A0030AC07CD2BEF
:1007E4008312A001A101A201A301A401A501A601F4
:0A07F400A701A801A90183010A2B47
:02400E00D4FFDD
:00000001FF
