:100000000A128A11F52FF1007108F0007008F20051
:10001000831603138715F3010830730203180800D1
:100020000130F000730A16280310F00DFF3E031D87
:1000300014287008720503192D28831603138711DD
:1000400083120313871100008316031387151330DF
:10005000F000F00B29282C283B2883160313871166
:100060008312031387111330F000F00B3528382862
:100070008316031387150130F0007008F3070C286E
:10008000F801F901FA01FB01FC01FD010A128A15D0
:10009000D8220A128A11003A031D9828CC300A127D
:1000A0008A1103200A128A1144300A128A1103208D
:1000B0000A128A112130F600F60B5C280A128A1502
:1000C000D8220A128A11CC300A128A1103200A128D
:1000D0008A11BE300A128A1103200A128A110A12EA
:1000E0008A157C230A128A11F600F7017608F800B7
:1000F0007708F9000A128A157C230A128A11F60081
:10010000F7017608FA007708FB007A08F700F60195
:1001100078087604FC0079087704FD007C0E0F391E
:10012000FC007D0EF039FC047D0E0F39FD009A288D
:10013000FC01FD017D08F5007C08F4000800633037
:1001400065066604031DA628E501E6010130E50702
:100150000318E60A0030E607C33083120313A60033
:10016000CC30A500A50BB228A60BB2280000D128E0
:1001700065086604031DC0286330E5000030E60012
:10018000FF30E5070318E60AFF30E607C3308312A5
:100190000313A600CC30A500A50BCC28A60BCC28B9
:1001A0000000073083120313A5002508F400013076
:1001B0000A128A15CC240A128A112E30F5009130C9
:1001C000F6000A128A158F240A128A11043083124B
:1001D0000313A5002508F40002300A128A15CC2466
:1001E0000A128A11FA30F5009030F6000A128A15C8
:1001F0008F240A128A110D3083120313A5002508DB
:10020000F40002300A128A15CC240A128A118312D1
:1002100003136608F9006508F8000A128A152323FB
:100220000A128A1183120313061F9F28861EB828FC
:10023000861BD128861F1A290A128A155D220A12E6
:100240008A11F401F40A01300A128A15CC240A1228
:100250008A112030F5009130F6000A128A158F2499
:100260000A128A11F401F40A02300A128A15CC2407
:100270000A128A118430F5009030F6000A128A15AD
:100280008F240A128A110A128A1140200A128A1136
:10029000750883120313E2007408E100063083122C
:1002A0000313A7001330A600AD30A500A50B5629F7
:1002B000A60B5629A70B5629831203136208803A0E
:1002C000A5006608803A2502031D682965086102B9
:1002D000031CD9290A128A155D220A128A11F40117
:1002E000F40A01300A128A15CC240A128A116530E8
:1002F000F5009030F6000A128A158F240A128A112E
:10030000831203138517023083120313A7000430EE
:10031000A600B930A500A50B8B29A60B8B29A70B2E
:100320008B299229831203138513823083120313BE
:10033000A600DD30A500A50B9B29A60B9B298312E7
:1003400003138517023083120313A7000430A6009D
:10035000B930A500A50BAA29A60BAA29A70BAA2983
:10036000B129831203138513823083120313A6006D
:10037000DD30A500A50BBA29A60BBA2983120313F9
:100380008517023083120313A7000430A600B9308A
:10039000A500A50BC929A60BC929A70BC929D029D6
:1003A0008312031385130A128A155D220A128A1119
:1003B000D128831203136508FB3EE3006608031887
:1003C000013EFF3EE4000130B2000030B300FB010B
:1003D000FB0A6408FD006308FC0000300A128A155D
:1003E000AF230A128A11033083120313A5002508D4
:1003F000FB006608FD006508FC0002300A128A1541
:10040000AF230A128A11053083120313A5002508B1
:10041000FB003308FD003208FC0004300A128A1584
:10042000AF230A128A11831203136608E0006508DD
:10043000DF000130B4000030B50034033504031D83
:10044000942A0A128A155D220A128A110230831236
:100450000313A5002508F40001300A128A15CC24E4
:100460000A128A117530F5009030F6000A128A15CA
:100470008F240A128A11063083120313A50025085F
:10048000F40002300A128A15CC240A128A110E30A6
:10049000F5009130F6000A128A158F240A128A118B
:1004A000073083120313A5002508F60006300A1250
:1004B0008A151A240A128A11760883120313A600D9
:1004C0002608C3000518672A0518B42D642A061AE1
:1004D000262A061E692A6903031D702A071485143B
:1004E0000A128A155D220A128A110530831203133B
:1004F000A5002508F60004300A128A151A240A12EB
:100500008A11770883120313C7007608C6000730E4
:10051000A5002508FB000030FC00FD0006300A1293
:100520008A15AF230A128A11073083120313A5001C
:100530002508F60006300A128A151A240A128A11B2
:10054000760883120313A6002608C3004603470457
:10055000031943030319212A46034704031DC02D31
:100560004308031DC02DF601F60A00300A128A1551
:100570001A240A128A11770883120313E4007608FA
:10058000E3000330A5002508F60002300A128A15A0
:100590001A240A128A11770883120313E6007608D8
:1005A000E500071BF82CB72E831203136208803A6C
:1005B000A5006608803A2502031DE02A650861024D
:1005C000031C702B013083120313CD000030CE00CA
:1005D000B601B7016508033EB90066080318013E7D
:1005E000003EBA0051085204031DFD2AD701D8016C
:1005F0000130D5000030D6005B2D6208803AA5009E
:100600003A08803A2502031D072B39086102031CB2
:100610000F2B013083120313B6000030B700831292
:10062000031336033704031D702B0A128A155D224B
:100630000A128A1183120313B601B701F401F40AF6
:1006400001300A128A15CC240A128A114430F500AE
:100650009030F6000A128A158F240A128A1183122A
:1006600003138517023083120313A7008630A600F8
:100670009830A500A50B3A2BA60B3A2BA70B3A2BCB
:1006800000008312031385130A128A1140200A12F4
:100690008A11750883120313B1007408B000033087
:1006A00083120313A7008A30A6005530A500A50BBE
:1006B000572BA60B572BA70B572B8312031331086D
:1006C000803AA5003A08803A2502031D692B3908B3
:1006D000300203181A2B0A128A155D220A128A1197
:1006E00083120313AE01AF011030A5002508F400FA
:1006F00001300A128A15CC240A128A110F30F50033
:100700009030F6000A128A158F240A128A110230DC
:1007100083120313A5002508F40001300A128A157C
:10072000CC240A128A11B130F5009030F6000A127A
:100730008A158F240A128A11DF300A128A15E323E0
:100740000A128A110F3083120313A5002508F40042
:1007500001300A128A15CC240A128A113530F500AC
:100760009130F6000A128A158F240A128A11F401B8
:10077000F40A02300A128A15CC240A128A1129308E
:10078000F5009130F6000A128A158F240A128A1198
:10079000053083120313A5002508F40002300A1265
:1007A0008A15CC240A128A11831203136608F900F1
:1007B0006508F8000A128A1523230A128A110730E5
:1007C00083120313A5002508F40002300A128A15CB
:1007D000CC240A128A111730F5009130F6000A1263
:1007E0008A158F240A128A110F3083120313A50071
:1007F0002508F40002300A128A15CC240A128A1144
:10080000831203136208F9006108F8000A128A15BE
:1008100023230A128A11831203136008803AA50069
:100820006208803A2502031D172C61085F02031C31
:10083000222C8312031353085404031D222CDF01BE
:10084000E001362C831203136408803AA500620885
:10085000803A2502031D2E2C61086302031C3B2CE9
:100860008312031353085404031D3B2C0130D7009B
:100870000030D8005B2D83120313BB01BC013C0880
:10088000803AFF0083307F02031D482CE9303B0291
:100890000318F82C83120313071B792CED01ED0AC2
:1008A000BD01BE013E08803AFF0083307F02031D78
:1008B0005B2CE9303D020318AF2E83120313071B94
:1008C000642CCC01CC0A652CCC014C080319502CAB
:1008D000C73083120313A5006D2CA50B6C2C702C54
:1008E000013083120313BD070318BE0A0030BE0790
:1008F000522C0518A82C8517023083120313A70069
:10090000C730A6008730A500A50B842CA60B842C2D
:10091000A70B842C8B2C8312031357035804031941
:10092000992C550356040319992C4D034E04031DAD
:10093000A62CD701D8010130D5000030D600DD014A
:10094000DE010130DB000030DC00E22C051CA62CAF
:10095000061AE72C8517023083120313A700C7304D
:10096000A6008730A500A50BB32CA60BB32CA70BB4
:10097000B32CBA2C073083120313A5002508FB0003
:100980000130FC000030FD0006300A128A15AF234A
:100990000A128A1183120313570358040319D82C1F
:1009A000550356040319D82C4D034E04031DE52CA2
:1009B000D701D8010130D5000030D6000130DD006C
:1009C0000030DE00CD01CE015B2D061EE52CC730C8
:1009D00083120313A500EC2CA50BEB2CEF2C01309C
:1009E00083120313BB070318BC0A0030BC073F2C5B
:1009F0000A128A1140200A128A1175088312031301
:100A0000E2007408E100AE01AF016208803AFF0025
:100A100080307F02031D0E2D013061020318D42A9D
:100A2000023083120313A5002508F40001300A12D6
:100A30008A15CC240A128A115530F5009030F60040
:100A40000A128A158F240A128A11F401F40A02305C
:100A50000A128A15CC240A128A110030F50090304F
:100A6000F6000A128A158F240A128A1183120313C0
:100A70008517023083120313A7000430A600B93093
:100A8000A500A50B412DA60B412DA70B412D482DEF
:100A9000831203138513023083120313A70004305B
:100AA000A600B930A500A50B532DA60B532DA70BFF
:100AB000532D5A2DF82C8312031357035804031D8A
:100AC0008A2D071485148517023083120313A7009B
:100AD0004530A600A930A500A50B6C2DA60B6C2DEA
:100AE000A70B6C2D8312031385130130D300003044
:100AF000D400D101D2010130CF000030D0005D031D
:100B00005E04031DB32AD501D601DD01DE01D70144
:100B1000D801212A55035604031D3E2E07108510C7
:100B20008517023083120313A7004530A600A930B1
:100B3000A500A50B992DA60B992DA70B992D831216
:100B400003138513D301D4010130D1000030D2004A
:100B50000130CF000030D0005B035C04031DB72DD3
:100B6000D501D601DB01DC010A128A15962E5D0340
:100B70005E04031DB32AD501D601DD01DE01212A61
:100B800046084704031D3E2E0130A5002508CC076A
:100B900003304C020318F22F02304C060319CC012B
:100BA000071BF22FBF01C0014008803AFF008330CD
:100BB0007F02031DDD2DE9303F020318F22F83125F
:100BC0000313071FB42EC73083120313A500E82DAB
:100BD000A50BE72DEB2D013083120313BF0703187C
:100BE000C00A0030C007D42D023083120313A500C1
:100BF0002508F40001300A128A15CC240A128A1141
:100C00005530F5009030F6000A128A158F240A122A
:100C10008A11F401F40A02300A128A15CC240A124D
:100C20008A110030F5009030F6000A128A158F24E0
:100C30000A128A11831203138517023083120313D9
:100C4000A7000430A600B930A500A50B252EA60BE1
:100C5000252EA70B252E2C2E83120313851302306D
:100C600083120313A7000430A600B930A500A50B1A
:100C7000372EA60B372EA70B372E3E2E83120313CB
:100C800005150A128A15071B202E02308312031342
:100C9000A5002508F40001300A128A15CC240A1296
:100CA0008A11A230F5009030F6000A128A158F24BE
:100CB0000A128A11063083120313A7001330A6000C
:100CC000AD30A500A50B622EA60B622EA70B622EDF
:100CD000073083120313A5002508F60006300A1218
:100CE0008A151A240A128A11760883120313A600A1
:100CF0002608EE00071B7A2EC101C2014208803A85
:100D0000FF0083307F02031D872EE9304102031864
:100D1000AF2E83120313071B902ECC01CC0A912E09
:100D2000CC014C0803197C2EC73083120313A50095
:100D3000992EA50B982E9C2E013083120313C10708
:100D40000318C20A0030C2074208803AFF0083300D
:100D50007F02031DAD2EE9304102031C892E831250
:100D600003134C03031D8D2FC501C50ACC010A12C4
:100D70008A155D220A128A11023083120313A5001C
:100D80002508F40001300A128A15CC240A128A11AF
:100D90000430F5009130F6000A128A158F240A12E9
:100DA0008A11F401F40A02300A128A15CC240A12BC
:100DB0008A110030F5009030F6000A128A158F244F
:100DC0000A128A11023083120313A5002508F400C9
:100DD00002300A128A15CC240A128A1183120313D4
:100DE0006A08A500A6012508F8002608F9000A12DD
:100DF0008A1523230A128A11063083120313A500D1
:100E00002508F40002300A128A15CC240A128A112D
:100E1000831203136808F9006708F8000A128A159C
:100E200023230A128A110B1DE22E0B1101308312AB
:100E30000313C8070318C90A0030C9070F30F000B0
:100E40000030F1004908F3004808F2000A128A1540
:100E500016250A128A11710883120313E80070081C
:100E6000E7004908803AFF0083307F02031D3A2FD4
:100E7000933048020318432F831203136B08031D9A
:100E8000432FEC01EC0A831203134908803AFF0058
:100E900083307F02031D4E2F95304802031C5A2FCA
:100EA000831203136B03031D5A2F0130A50025087D
:100EB000EA07EC01831203134908803AFF008330EC
:100EC0007F02031D652FE1304802031C6B2F831244
:100ED0000313C801C90183120313071F8F2F0630A4
:100EE00083120313A7001330A600AD30A500A50B95
:100EF000772FA60B772FA70B772F83120313071FCC
:100F00008F2FEA018511C801C9014503031D8F2FE9
:100F10006E03031D8D2FC501212AC501D12A03307F
:100F20006A06031DE62F6D03031DE62FEA01C801C3
:100F3000C9010230A5002508F40001300A128A1503
:100F4000CC240A128A11EF30F5009030F6000A1214
:100F50008A158F240A128A11023083120313A50006
:100F60002508F40002300A128A15CC240A128A11CC
:100F7000BE30F5009030F6000A128A158F240A124E
:100F80008A11831203138517823083120313A6007C
:100F9000DD30A500A50BCA2FA60BCA2F83120313A1
:100FA0008513413083120313A600ED30A500A50B75
:100FB000D72FA60BD72FDC2F831203130710851012
:100FC0008511071F962FE901E90A212A6C03031DE9
:100FD000EC2F8515EB01EB0A6C08031DE22E851141
:100FE000EB01E22E0A128A15F72F83134D3084008D
:100FF0006F300A128A15552283010A128A15CA2DEA
:10100000FF1B0A2883137F1883170008840A03191B
:10101000FF0A08007F087F398A000408840A031940
:04102000FF0A820041
:1014AA0064008001840A0406031900340406562ADB
:1014BA0000300A128A1582220A128A1501300A128B
:1014CA008A1582220800F000701C6F2A8312031307
:1014DA000614722A831203130610F01C762A861445
:1014EA00772A8610701D7B2A06157C2A0611F01DA4
:1014FA00802A8615080086110800F3008312031358
:10150A00071273080A128A1568220A128A158312A8
:10151A00031387160630F2003030F100F10B932ADC
:10152A00F20B932A00008312031387120800F100BA
:10153A006400831603178C189D2A710883120317F7
:10154A008D003F30F0007008831603178C050C14C9
:10155A0003100C1803140030031801308312031708
:10156A000C080800F401F501701CC12A7208F4077E
:10157A000318F50A7308F50701300310F20DF30D8D
:10158A00FF3E031DC22A01300310F10CF00CFF3E8E
:10159A00031DC92A70087104031DB92A7508F100D0
:1015AA007408F000080083160313871183120313CB
:1015BA0087119F30F000F00BE02AE32A8316031309
:1015CA0087151330F000F00BE82AEB2A8312031375
:1015DA008719F62A9F30F000F00BF12AF42A00301E
:1015EA0008009F30F000F00BF82AFB2A01300800AF
:1015FA00FA00831603178C18FE2A7A088312031737
:10160A008D0078088C003F30F9007908831603179B
:10161A008C058312031303108B1B03148B1383167D
:10162A0003170C1555308D00AA308D008C140C113F
:10163A0083120313031C08008B1708000A30F000FA
:10164A000030F1007908F3007808F2000A128A15CE
:10165A0053240A128A157008303E0A128A15E323A7
:10166A000A128A150A30F0000030F1007908F300F6
:10167A007808F2000A128A154A230A128A15700893
:10168A00303E0A128A15E323080070087104031910
:10169A00772BF501F50AF11B5E2B01300310F00DD3
:1016AA00F10DFF3E031D532B0130F4007408F507BA
:1016BA00502B71087302031D642B70087202031CFD
:1016CA006C2B7008F2027108031CF303F302013059
:1016DA000310F10CF00CFF3E031D6D2B0130F502D7
:1016EA00031D5E2B7308F1007208F0000800F20176
:1016FA00831603138715F301083073020318AD2B01
:10170A008316031387118312031387118C2B8316F5
:10171A000313871583120313871DA02B0130F000D2
:10172A00730A992B0310F00DFF3E031D972B7008C7
:10173A00F1007108F2041330F000F00BA22BA52B74
:10174A000130F0007008F30708307302031C852B80
:10175A007208080083120313A1000A30F000003057
:10176A00F1007D08F3007C08F2000A128A1553245E
:10177A000A128A15700883120313A0002008F800C1
:10178A0021080A128A15FD220A128A150A30F00067
:10179A000030F1007D08F3007C08F2000A128A1575
:1017AA004A230A128A15700883120313A00020081C
:1017BA00F8007B080A128A15FD220800F400740852
:1017CA000F39F1007108F2007408F039F10071085C
:1017DA00F3008312031307167308F1000430031091
:1017EA00F10CFF3E031DF42B71080A128A156822B8
:1017FA000A128A158312031387160D30F100F10BB2
:10180A00042C83120313871272080A128A1568229B
:10181A000A128A158312031387160D30F100F10B91
:10182A00142C831203138712080083120313A000D7
:10183A00A101A201A301A40120080A128A159C226F
:10184A000A128A15F800F901780883120313A10015
:10185A007908A20076080A128A159C220A128A15A9
:10186A00F800F901780883120313A3007908A40089
:10187A002208F1002108F0000A30F2000030F300DB
:10188A000A128A15B7228312031323087007F60077
:10189A0024080318240A7107F7000800F501F60165
:1018AA007008710403198A2CF701F70AF11B692CD5
:1018BA0001300310F00DF10DFF3E031D5E2C0130C7
:1018CA00F4007408F7075B2C01300310F50DF60DD0
:1018DA00FF3E031D6A2C71087302031D762C7008E3
:1018EA007202031C7F2C7008F2027108031CF303B6
:1018FA00F302751401300310F10CF00CFF3E031DC6
:10190A00802C0130F702031D692C7608F100750856
:10191A00F0000800FA01FB017A087507F80076085A
:10192A00F7000318F70AFA1BF7037708F900790892
:10193A0083120313FF00780884000A128A15002014
:10194A000A128A15003A031908007A087507F8007E
:10195A007608F7000318F70AFA1BF7037708F90065
:10196A00790883120313FF00780884000A128A1583
:10197A0000200A128A150A128A15E3230A128A1506
:10198A000130FA070318FB0A0030FB07912CF70015
:10199A007703031DF12C74087F3EF5007508FA00E1
:1019AA007A08F50004300310F50CFF3E031DD82C0D
:1019BA007508F6007608F8007A080F39F5007508F8
:1019CA00F90078080A128A1582220A128A157908F9
:1019DA000A128A158222080002307706031D0800BF
:1019EA007408BF3EF5007508FA007A08F50004305D
:1019FA000310F50CFF3E031DFD2C7508F600760852
:101A0A00F8007A080F39F5007508F90078080A1203
:101A1A008A1582220A128A1579080A128A158222DE
:101A2A000800F601F11F202DF009F109F00A031947
:101A3A00F10AF601F60AF31F2B2DF209F309F20A4D
:101A4A000319F30A0130F4007408F606F701F801E5
:101A5A00700871040319622DF501F50AF11B412D75
:101A6A0001300310F00DF10DFF3E031D362D01303C
:101A7A00F4007408F507332D01300310F70DF80D43
:101A8A00FF3E031D422D71087302031D4E2D70087F
:101A9A007202031C572D7008F2027108031CF3032B
:101AAA00F302771401300310F10CF00CFF3E031D12
:101ABA00582D0130F502031D412D760803196A2DB0
:101ACA00F709F809F70A0319F80A7808F1007708FC
:101ADA00F000080000300A128A1568220A128A15D4
:101AEA001A30F500F830F400F40B792DF50B792D46
:101AFA00000003300A128A1582220A128A15073058
:101B0A00F5007D30F400F40B882DF50B882D033099
:101B1A000A128A1582220A128A150F30F5004730F6
:101B2A00F400F40B962DF50B962D9B2D03300A121B
:101B3A008A1582220A128A1502300A128A1582220C
:101B4A000A128A1502300A128A1582220A128A1584
:101B5A0008300A128A1582220A128A1500300A12DD
:101B6A008A1582220A128A150C300A128A158222D2
:101B7A000A128A1500300A128A1582220A128A1556
:101B8A0006300A128A1582220800013083160313CE
:101B9A008500F0308600C03087000730810083124C
:101BAA00031381018316031788018901F030831614
:101BBA000313950083120313AA01AB01CA01CB01D7
:101BCA00A801A901AC01AD01C401B201B30107101A
:101BDA008510B401B501C301C801C901C501CC0111
:101BEA000A128A156F250A128A150A128A155D22A7
:101BFA000A128A15F601F60A00300A128A151A2400
:101C0A000A128A15770883120313E4007608E300A0
:101C1A000330A5002508F60002300A128A151A2494
:101C2A000A128A15770883120313E6007608E5007C
:101C3A000A128A113E2E0A128A1140200A128A15A5
:101C4A00750883120313DA007408D9005A08803A17
:101C5A00FF0080307F02031D342E013059020A1220
:101C6A008A11031CF42DF401F40A01300A128A15B0
:101C7A00CC240A128A151130F5009030F6000A12A7
:101C8A008A158F240A128A15F401F40A02300A12FC
:101C9A008A15CC240A128A153330F5009030F600E2
:101CAA000A128A158F240A128A1506308312031320
:101CBA00A7001330A600AD30A500A50B622EA60B17
:101CCA00622EA70B622E8312031385170630831226
:101CDA000313A7001330A600AD30A500A50B732E81
:101CEA00A60B732EA70B732E8312031385130A12E6
:101CFA008A155D220A128A15053083120313A5007C
:101D0A002508F60004300A128A151A240A128A15BE
:101D1A00770883120313C7007608C6000518FD2F3B
:101D2A00B80103304406031DB12E8517083083120B
:101D3A000313A7001B30A6002630A500A50BA32E6F
:101D4A00A60BA32EA70BA32E000083120313851341
:101D5A00C4010A128A11212A0A128A155D220A125C
:101D6A008A15F401F40A01300A128A15CC240A12DF
:101D7A008A152230F5009030F6000A128A158F244F
:101D8A000A128A15073083120313A5002508F400E6
:101D9A0002300A128A15CC240A128A153230F5004A
:101DAA009130F6000A128A158F240A128A158312B4
:101DBA000313061BEB2E0130CA070318CB0A0030A7
:101DCA00CB07B801B80A061BCC2FE82E861ADC2EE0
:101DDA00FF30CA070318CB0AFF30CB07B801B80A8D
:101DEA00861ACC2FF52E0730A5002508F4000230FC
:101DFA000A128A15CC240A128A15831203134B0875
:101E0A00F9004A08F8000A128A1523230A128A15C9
:101E1A0083120313061B2A2F32304A064B04031D72
:101E2A00182FCA01CB010130CA070318CB0A0030A8
:101E3A00CB07C33083120313A600CC30A500A50B31
:101E4A00242FA60B242F0000452F861A452F4A035C
:101E5A004B04031D342F3230CA000030CB00FF3050
:101E6A00CA070318CB0AFF30CB07C3308312031308
:101E7A00A600CC30A500A50B402FA60B402F0000D2
:101E8A0083120313061ACC2F02304A064B04031D91
:101E9A00582FAA01AB010130AC000030AD00CA01D5
:101EAA00CB01C401CF2F0A128A155D220A128A15A4
:101EBA00F401F40A01300A128A15CC240A128A158E
:101ECA009330F5009030F6000A128A158F240A1210
:101EDA008A15013083120313A5002508C4070330AD
:101EEA0044020318C92F8517023083120313A7006F
:101EFA000430A600B930A500A50B812FA60B812FAF
:101F0A00A70B812F882F8312031385138230831224
:101F1A000313A600DD30A500A50B912FA60B912F68
:101F2A00831203138517023083120313A7000430A8
:101F3A00A600B930A500A50BA02FA60BA02FA70BB2
:101F4A00A02FA72F83120313851382308312031342
:101F5A00A600DD30A500A50BB02FA60BB02F83126B
:101F6A0003138517023083120313A7000430A60057
:101F7A00B930A500A50BBF2FA60BBF2FA70BBF2FEC
:101F8A00C62F831203138513CA01CB01962E380874
:101F9A00031DF82E0A128A155D220A128A150430C8
:101FAA0083120313A5002508F40001300A128A15CA
:101FBA00CC240A128A15E430F5009030F6000A1291
:101FCA008A158F240A128A15063083120313A70072
:101FDA001330A600AD30A500A50BF12FA60BF12FEB
:101FEA00A70BF12F0A128A155D220A128A11D1282B
:101FFA000A128A111D2A2034203420342034203435
:10200A002034203420342034203420342034203426
:10201A00203420342034003420342A34203442340A
:10202A005234453457344D3441345334543445349E
:10203A00523420342A3420340034203445344E3487
:10204A0054344534523420345034413453345334A4
:10205A0057344F3452344434203400342034453415
:10206A0058345434453452344E3441344C34203488
:10207A0042344F3449344C344534523400344834B1
:10208A006934673468342034543465346D347034B8
:10209A00653472346134743475347234653400349E
:1020AA00533445344E3453344F3452342034463446
:1020BA00413455344C3454342134213421340034DD
:1020CA0045346E3474346534723420346834693477
:1020DA00673468342034743465346D3470340034B1
:1020EA002A34203442345234453457344D3441343E
:1020FA00533454344534523420342A34003454345A
:10210A0065346D34703465347234613474347534C2
:10211A00723465342E342E342E34003477347234CB
:10212A006F346E34673420347034613473347334EA
:10213A0077346F3472346434003443346834653429
:10214A0063346B3469346E346734203477346134E1
:10215A007434653472340034543445344D34503454
:10216A00453452344134543455345234453420348D
:10217A000034633461347534743469346F346E34C2
:10218A002134213421342134213400347334743419
:10219A00613474347534733420343A3420344F340F
:1021AA0046344634003473347434613474347534C8
:1021BA00733420343A3420344F344E3400344C349F
:1021CA004F34473449344E3453342E342E342E345B
:1021DA002E340034703475346D34703420346634DF
:1021EA00613475346C34743400344D3441345834A9
:1021FA002034543445344D3450343A3400344C3459
:10220A004F3457342034573461347434653472345B
:10221A000034523445344134443459342E342E3443
:10222A002E34003420344134433454345534413448
:10223A004C343A34003443346834653463346B3490
:10224A0069346E34673400345334453454343A3480
:10225A00003453344534543400342A342A34003494
:04226A0043340034C5
:04400E00D4E3FFFFF9
:1042000000000000090000000000000000000000A5
:00000001FF
