:020000040000FA
:100000000A128A11F52FFF3FF20183160313871599
:10001000F301083073020318352883160313871180
:100020008312031387111428831603138715831271
:100030000313871D28280130F000730A21280310BC
:10004000F00DFF3E031D1F287008F1007108F20437
:100050001330F000F00B2A282D280130F000700832
:10006000F30708307302031C0D287208080083127E
:100070000313A1000A30F0000030F1007D08F30006
:100080007C08F2000A128A11DB200A128A11700819
:1000900083120313A0002008F80021080A128A1511
:1000A00078240A128A110A30F0000030F1007D082D
:1000B000F3007C08F2000A128A159E240A128A11A3
:1000C000700883120313A0002008F8007B080A12AE
:1000D0008A1578240800F40074080F39F1007108BB
:1000E000F2007408F039F1007108F3008312031371
:1000F00007167308F10004300310F10CFF3E031DD6
:100100007C2871080A128A15E3230A128A118312C5
:10011000031387160D30F100F10B8C2883120313A3
:10012000871272080A128A15E3230A128A118312AF
:10013000031387160D30F100F10B9C288312031373
:100140008712080083120313A000A101A201A301DA
:10015000A40120080A128A1517240A128A11F8002D
:10016000F901780883120313A1007908A200760828
:100170000A128A1517240A128A11F800F901780860
:1001800083120313A3007908A4002208F1002108B8
:10019000F0000A30F2000030F3000A128A1532240F
:1001A0008312031323087007F60024080318240A97
:1001B0007107F7000800F501F601700871040319D2
:1001C0001229F701F70AF11BF12801300310F00D95
:1001D000F10DFF3E031DE6280130F4007408F70717
:1001E000E32801300310F50DF60DFF3E031DF22844
:1001F00071087302031DFE2870087202031C072990
:100200007008F2027108031CF303F3027514013045
:100210000310F10CF00CFF3E031D08290130F7021A
:10022000031DF1287608F1007508F0000800FA01B6
:10023000FB017A087507F8007608F7000318F70A3B
:10024000FA1BF7037708F900790883120313FF00FC
:10025000780884000A128A1500200A128A11003ACE
:10026000031908007A087507F8007608F7000318E4
:10027000F70AFA1BF7037708F900790883120313CA
:10028000FF00780884000A128A1500200A128A11D9
:100290000A128A116B200A128A110130FA07031818
:1002A000FB0A0030FB071929F1007108F000700803
:1002B000F200831603138715F30108307302031845
:1002C00008000130F000730A67290310F00DFF3EAB
:1002D000031D65297008720503197E29831603130F
:1002E00087118312031387110000831603138715E8
:1002F0001330F000F00B7A297D298C298316031323
:1003000087118312031387111330F000F00B862935
:1003100089298316031387150130F0007008F3074D
:100320005D29F7007703031DB62974087F3EF500A9
:100330007508FA007A08F50004300310F50CFF3E4A
:10034000031D9D297508F6007608F8007A080F3914
:10035000F5007508F90078080A128A15FD230A12BB
:100360008A1179080A128A15FD23080002307706DF
:10037000031D08007408BF3EF5007508FA007A08EE
:10038000F50004300310F50CFF3E031DC22975086B
:10039000F6007608F8007A080F39F5007508F900BC
:1003A00078080A128A15FD230A128A1179080A129E
:1003B0008A15FD2308001030F0002730F10079087D
:1003C000F3007808F2000A128A159E240A128A1194
:1003D0007108F9007008F800E830F0000330F1000F
:1003E0007908F3007808F2000A128A159E240A128E
:1003F0008A117108F9007008F8006430F0000030CC
:10040000F1007908F3007808F2000A128A159E2498
:100410000A128A117108F9007008F8000A30F00019
:100420000030F1007908F3007808F2000A128A110E
:10043000DB200A128A117008303E0A128A116B20E2
:100440000A128A110A30F0000030F1007908F30036
:100450007808F2000A128A159E240A128A1170087E
:10046000303E0A128A116B20080000300A128A15E9
:10047000E3230A128A111A30F500F830F400F40B65
:100480003F2AF50B3F2A000003300A128A15FD238C
:100490000A128A110730F5007D30F400F40B4E2A61
:1004A000F50B4E2A03300A128A15FD230A128A110F
:1004B0000F30F5004730F400F40B5C2AF50B5C2A92
:1004C000612A03300A128A15FD230A128A110230AA
:1004D0000A128A15FD230A128A1102300A128A159D
:1004E000FD230A128A1108300A128A15FD230A1206
:1004F0008A1100300A128A15FD230A128A110C3063
:100500000A128A15FD230A128A1100300A128A156E
:10051000FD230A128A1106300A128A15FD230800EB
:10052000F801F901FA01FB01FC01FD010A128A152B
:1005300053240A128A11003A031DE82ACC300A1209
:100540008A1154210A128A1144300A128A11542144
:100550000A128A112130F600F60BAC2A0A128A150B
:1005600053240A128A11CC300A128A1154210A1219
:100570008A11BE300A128A1154210A128A110A12F3
:100580008A1104200A128A11F600F7017608F80091
:100590007708F9000A128A1104200A128A11F6005B
:1005A000F7017608FA007708FB007A08F700F601F1
:1005B00078087604FC0079087704FD007C0E0F397A
:1005C000FC007D0EF039FC047D0E0F39FD00EA2A97
:1005D000FC01FD017D08F5007C08F40008000130F5
:1005E000831603138500F03086008701810183168E
:1005F000031788018901F0308316031395009601D3
:1006000065308F0083120313B201B301CE01CF0115
:10061000A801A901AA01AB01B401B501CA01CB012E
:10062000AC01AD01BA01BB01AE01AF0107108510ED
:10063000BC01BD01B001B101C801C9018230831202
:100640000313A600DD30A500A50B242BA60B242B3D
:100650000A128A1135220A128A110A128A15D8231F
:100660000A128A11F601F60A00300A128A11A22033
:100670000A128A11770883120313EB007608EA0046
:100680000330A5002508F60002300A128A11A220C4
:100690000A128A11770883120313ED007608EC0022
:1006A0000A128A15972FF401F40A01300A128A11EE
:1006B00091210A128A111130F5009030F6000A12C9
:1006C0008A1117210A128A11F401F40A02300A125F
:1006D0008A1191210A128A113330F5009030F60008
:1006E0000A128A1117210A128A1106308312031383
:1006F000A7001330A600AD30A500A50B7D2BA60BDF
:100700007D2BA70B7D2B83120313851706308312D5
:100710000313A7001330A600AD30A500A50B8E2B48
:10072000A60B8E2BA70B8E2B8312031385130A1295
:100730008A15D8230A128A11053083120313A500E3
:100740002508F60004300A128A11A2200A128A1122
:10075000770883120313CD007608CC0005183F2FCD
:10076000BE01BF0103304A064B04031DCD2B851784
:10077000083083120313A7001B30A6002630A50003
:10078000A50BC02BA60BC02BA70BC02B0000831200
:1007900003138513CA01CB01432F0A128A15D823EC
:1007A0000A128A11F401F40A01300A128A11912105
:1007B0000A128A112230F5009030F6000A128A11CE
:1007C00017210A128A11073083120313A500250886
:1007D000F40002300A128A1191210A128A110030A3
:1007E000F5009130F6000A128A1117210A128A11B7
:1007F00083120313061B092C0130CE070318CF0AFE
:100800000030CF070130BE000030BF00061B332D83
:10081000062C861AF82BFF30CE070318CF0AFF30BC
:10082000CF070130BE000030BF00861A332D152CD3
:100830000730A5002508F40002300A128A11912120
:100840000A128A11831203134F08F9004E08F800A8
:100850000A128A11DB210A128A1183120313061B62
:10086000502C32304E064F04031D382CCE01CF01E0
:10087000C33083120313A600CC30A500A50B3E2C79
:10088000A60B3E2C000083120313061F712C0130AF
:10089000CE070318CF0A0030CF07061B712C4D2C52
:1008A000861A712C4E034F04031D5A2C3230CE0091
:1008B0000030CF00C33083120313A600CC30A50054
:1008C000A50B602CA60B602C000083120313861E60
:1008D000712CFF30CE070318CF0AFF30CF07861EDA
:1008E0006F2C061B872C32304E064F04031D7A2CCA
:1008F000CE01CF010130CE070318CF0A0030CF0759
:10090000E83083120313A500A50B842C000083128A
:100910000313861AA02C32304E064F04031D922C6E
:10092000CE01CF01FF30CE070318CF0AFF30CF072B
:10093000E83083120313A500A50B9C2C0000332D77
:10094000061A332D02304E064F04031DB22CB2019D
:10095000B3010130B4000030B500CE01CF01CA01AF
:10096000CB01392D0A128A15D8230A128A11F401F3
:10097000F40A01300A128A1191210A128A11933065
:10098000F5009030F6000A128A1117210A128A1116
:10099000013083120313CA070318CB0A0030CB07B8
:1009A0004B08803AFF0080307F02031DD92C0330B2
:1009B0004A0203182E2D8312031385170230831267
:1009C0000313A7000430A600B930A500A50BE62C40
:1009D000A60BE62CA70BE62CED2C83120313851334
:1009E000823083120313A600DD30A500A50BF62C80
:1009F000A60BF62C83120313851702308312031300
:100A0000A7000430A600B930A500A50B052DA60B44
:100A1000052DA70B052D0C2D831203138513823092
:100A200083120313A600DD30A500A50B152DA60B20
:100A3000152D831203138517023083120313A700A9
:100A40000430A600B930A500A50B242DA60B242D3B
:100A5000A70B242D2B2D831203138513831203134D
:100A6000CE01CF01B22B831203133E083F04031DB6
:100A7000182C0A128A15D8230A128A1104308312FC
:100A80000313A5002508F40001300A128A119121F0
:100A90000A128A11C830F5009030F6000A128A1145
:100AA00017210A128A11063083120313A70013308C
:100AB000A600AD30A500A50B5B2DA60B5B2DA70BEB
:100AC0005B2D0A128A15D8230A128A110730831265
:100AD0000313A5002508F40001300A128A119121A0
:100AE0000A128A11FC30F5009030F6000A128A11C1
:100AF00017210A128A11043083120313A500250856
:100B0000F40002300A128A1191210A128A11D3309C
:100B1000F5009030F6000A128A1117210A128A1184
:100B20000D3083120313A5002508F40002300A12C9
:100B30008A1191210A128A11831203136D08F90098
:100B40006C08F8000A128A11DB210A128A1183123A
:100B50000313061BCA2D63306C066D04031DB22DF2
:100B6000EC01ED01C33083120313A600CC30A500C5
:100B7000A50BB82DA60BB82D000083120313061F7A
:100B8000EB2D0130EC070318ED0A0030ED07061BD2
:100B9000EB2DC72D861AEB2D6C086D04031DD42D8B
:100BA0006330EC000030ED00C33083120313A60065
:100BB000CC30A500A50BDA2DA60BDA2D0000831290
:100BC0000313861EEB2DFF30EC070318ED0AFF30F0
:100BD000ED07861EE92D061B012E63306C066D04A1
:100BE000031DF42DEC01ED010130EC070318ED0AB3
:100BF0000030ED07E83083120313A500A50BFE2D8E
:100C0000000083120313861A1B2E6C086D04031D4B
:100C10000D2E6330EC000030ED00FF30EC070318C0
:100C2000ED0AFF30ED07E83083120313A500A50B92
:100C3000172E0000662D861B662D0A128A15D823F2
:100C40000A128A11F401F40A01300A128A11912160
:100C50000A128A11E630F5009030F6000A128A1165
:100C600017210A128A11F401F40A02300A128A11B9
:100C700091210A128A118430F5009030F6000A1290
:100C80008A1117210A128A1183120313C401C501A4
:100C90004508803AFF0080307F02031D512E02304C
:100CA000440203187F2E0A128A1190220A128A1116
:100CB000750883120313E9007408E80006308312F4
:100CC0000313A7001330A600AD30A500A50B662EB8
:100CD000A60B662EA70B662E013083120313C407E2
:100CE0000318C50A0030C5074508803AFF00803068
:100CF0007F02031D7D2E02304402031C532E8312FB
:100D000003136908803AA5006D08803A2502031D87
:100D10008B2E6C086802031CF72E0A128A15D82342
:100D20000A128A11F401F40A01300A128A1191217F
:100D30000A128A116530F5009030F6000A128A1105
:100D400017210A128A1183120313851702308312A6
:100D50000313A7000430A600B930A500A50BAE2EE2
:100D6000A60BAE2EA70BAE2EB52E83120313851342
:100D7000823083120313A600DD30A500A50BBE2E22
:100D8000A60BBE2E831203138517023083120313A2
:100D9000A7000430A600B930A500A50BCD2EA60BE8
:100DA000CD2EA70BCD2ED42E8312031385138230A4
:100DB00083120313A600DD30A500A50BDD2EA60BC4
:100DC000DD2E831203138517023083120313A7004D
:100DD0000430A600B930A500A50BEC2EA60BEC2E16
:100DE000A70BEC2EF32E831203138513612D8312B0
:100DF00003136C08FB3EEA006D080318013EFF3E3A
:100E0000EB000130BA000030BB00FB01FB0A6B08AD
:100E1000FD006A08FC0000300A128A1137200A120D
:100E20008A11033083120313A5002508FB006D0807
:100E3000FD006C08FC0002300A128A1137200A12E9
:100E40008A11053083120313A5002508FB003B0817
:100E5000FD003A08FC0004300A128A1137200A12F9
:100E60008A11831203136D08E5006C08E400013059
:100E7000BC000030BD003F2F861B662D3C2F3C037D
:100E80003D04031DB32F0A128A15D8230A128A11B2
:100E9000023083120313A5002508F40001300A1262
:100EA0008A1191210A128A117530F5009030F600EE
:100EB0000A128A1117210A128A11063083120313AB
:100EC000A5002508F40002300A128A1191210A12A5
:100ED0008A11DD30F5009030F6000A128A111721D0
:100EE0000A128A11073083120313A5002508F600A1
:100EF00006300A128A11A2200A128A117708831278
:100F00000313C9007608C800051CB22B892F051CE5
:100F1000872F061A482F0A128A15D8230A128A1117
:100F2000053083120313A5002508F60004300A12C9
:100F30008A11A2200A128A11770883120313CD00A6
:100F40007608CC000730A5002508FB000030FC0027
:100F5000FD0006300A128A1137200A128A11831204
:100F60000313061EAF2F0730A5002508F600063034
:100F70000A128A11A2200A128A1177088312031317
:100F8000C9007608C8004C034D04031DCB2F48034D
:100F900049040319432F4C034D04031DF22F480845
:100FA0004904031DF22FF601F60A00300A128A11D5
:100FB000A2200A128A11770883120313EB00760825
:100FC000EA000330A5002508F60002300A128A1153
:100FD000A220770883120313ED007608EC000A12B2
:100FE0008A15C72E0A128A15912F83135030840058
:100FF0006E300A128A15D02383010A128A11EF2A51
:10100000FF1B0A2883137F1883170008840A03191B
:10101000FF0A08007F087F398A000408840A031940
:10102000FF0A8200FF3FFF3FFF3FFF3FFF3FFF3FC1
:10103000FF3FFF3FFF3FFF3FFF3FFF3FFF3FFF3FC0
:10104000FF3FFF3FFF3FFF3FFF3FFF3FFF3FFF3FB0
:10105000FF3FFF3FFF3FFF3FFF3FFF3FFF3FFF3FA0
:10106000FF3FFF3FFF3FFF3FFF3FFF3FFF3FFF3F90
:1017A00064008001840A0406031900340406D12B66
:1017B00000300A128A15FD230A128A1501300A1216
:1017C0008A15FD230800F000701CEA2B8312031316
:1017D0000614ED2B831203130610F01CF12B861454
:1017E000F22B8610701DF62B0615F72B0611F01D37
:1017F000FB2B8615080086110800F30083120313E3
:10180000071273080A128A15E3230A128A15831233
:10181000031387160630F2003030F100F10B0E2C66
:10182000F20B0E2C00008312031387120800F10044
:101830006400831603178C18182C71088312031781
:101840008D003F30F0007008831603178C050C14D0
:1018500003100C180314003003180130831203170F
:101860000C080800F401F501701C3C2C7208F40708
:101870000318F50A7308F50701300310F20DF30D94
:10188000FF3E031D3D2C01300310F10CF00CFF3E18
:10189000031D442C70087104031D342C7508F100DD
:1018A0007408F000080083160313871183120313D2
:1018B00087119F30F000F00B5B2C5E2C8316031316
:1018C00087151330F000F00B632C662C8312031382
:1018D0008719712C9F30F000F00B6C2C6F2C0030AE
:1018E00008009F30F000F00B732C762C01300800BC
:1018F000FA00831603178C18792C7A0883120317C1
:101900008D0078088C003F30F900790883160317A2
:101910008C058312031303108B1B03148B13831684
:1019200003170C1555308D00AA308D008C140C1146
:1019300083120313031C08008B170800700871043E
:101940000319CB2CF501F50AF11BB22C0130031061
:10195000F00DF10DFF3E031DA72C0130F4007408BB
:10196000F507A42C71087302031DB82C70087202CD
:10197000031CC02C7008F2027108031CF303F3026D
:1019800001300310F10CF00CFF3E031DC12C01309F
:10199000F502031DB22C7308F1007208F000080074
:1019A000831203136908803AA5006D08803A250266
:1019B000031DDC2C6C086802031C6C2D01308312A3
:1019C0000313D0000030D100C001C1016C08033EF8
:1019D000C2006D080318013E003EC30054085504C0
:1019E000031DF92CDA01DB010130D8000030D900E9
:1019F0002A2F6908803AA5004308803A2502031D72
:101A0000032D42086802031C0B2D013083120313BF
:101A1000C0000030C1008312031340034104031DC2
:101A20006C2D0A128A15D8230A128A158312031301
:101A3000C001C101F401F40A01300A128A11912196
:101A40000A128A154430F5009030F6000A128A1105
:101A500017210A128A158312031385170230831285
:101A60000313A7008630A6009830A500A50B362DDD
:101A7000A60B362DA70B362D0000831203138513FA
:101A80000A128A1190220A128A157508831203130A
:101A9000B9007408B800033083120313A7008A301A
:101AA000A6005530A500A50B532DA60B532DA70B53
:101AB000532D831203133908803AA5004308803A56
:101AC0002502031D652D420838020318162D0A123F
:101AD0008A15D8230A128A1583120313B601B70197
:101AE0001030A5002508F40001300A128A11912156
:101AF0000A128A150F30F5009030F6000A128A118A
:101B000017210A128A15023083120313A500250833
:101B1000F40001300A128A1191210A128A15A230AA
:101B2000F5009030F6000A128A1117210A128A1560
:101B3000DF300A128A116B200A128A150F308312C5
:101B40000313A5002508F40001300A128A1191211F
:101B50000A128A150330F5009130F6000A128A1134
:101B600017210A128A15F401F40A02300A128A11A6
:101B700091210A128A15F730F5009030F6000A120A
:101B80008A1117210A128A15053083120313A50042
:101B90002508F40002300A128A1191210A128A15CE
:101BA000831203136D08F9006C08F8000A128A11F9
:101BB000DB210A128A15083083120313A5002508B9
:101BC000F40002300A128A1191210A128A15EF30AC
:101BD000F5009030F6000A128A1117210A128A15B0
:101BE0000F3083120313A5002508F40002300A12F7
:101BF0008A1191210A128A15831203136908F900C8
:101C00006808F8000A128A11DB210A128A15831269
:101C100003136508803AA5006908803A2502031D70
:101C2000132E68086402031C1E2E83120313560829
:101C30005704031D1E2EE401E501322E8312031307
:101C40006B08803AA5006908803A2502031D2A2EF8
:101C500068086A02031C372E8312031356085704C0
:101C6000031D372E0130DA000030DB002A2F8312EB
:101C70000313C601C7014708803AFF0083307F0283
:101C8000031D442EE93046020318C72E83120313A6
:101C90000518772E8517023083120313A700C7306B
:101CA000A6008730A500A50B532EA60B532EA70B1D
:101CB000532E5A2E831203135A035B040319682E02
:101CC000580359040319682E50035104031D752E3F
:101CD000DA01DB010130D8000030D900E001E10178
:101CE0000130DE000030DF00B12E051C752E061A13
:101CF000B62E8517023083120313A700C730A60043
:101D00008730A500A50B822EA60B822EA70B822E54
:101D1000892E073083120313A5002508FB0001302C
:101D2000FC000030FD0006300A128A1137200A122A
:101D30008A15831203135A035B040319A72E580351
:101D400059040319A72E50035104031DB42EDA01C0
:101D5000DB010130D8000030D9000130E000003054
:101D6000E100D001D1012A2F061EB42EC730831204
:101D70000313A500BB2EA50BBA2EBE2E0130831275
:101D80000313C6070318C70A0030C7073B2E0A1201
:101D90008A1190220A128A15750883120313E9002A
:101DA0007408E800B601B7016908803AFF00803086
:101DB0007F02031DDD2E013068020318D02C023093
:101DC00083120313A5002508F40001300A128A11BA
:101DD00091210A128A155530F5009030F6000A124A
:101DE0008A1117210A128A15F401F40A02300A1224
:101DF0008A1191210A128A150030F5009030F60000
:101E00000A128A1117210A128A15831203138517E1
:101E1000023083120313A7000430A600B930A500D6
:101E2000A50B102FA60B102FA70B102F172F831207
:101E300003138513023083120313A7000430A60096
:101E4000B930A500A50B222FA60B222FA70B222FFE
:101E5000292FC72E831203135A035B04031D5B2F24
:101E6000071485148517023083120313A700453029
:101E7000A600A930A500A50B3B2FA60B3B2FA70B57
:101E80003B2F8312031385130130D6000030D70097
:101E9000D401D5010130D2000030D30060036104C9
:101EA000031DFD2FD801D901E001E101DA01DB01B9
:101EB0000A128A11432F58035904031D972F071044
:101EC00085108517023083120313A7004530A60042
:101ED000A930A500A50B6A2FA60B6A2FA70B6A2FA6
:101EE000831203138513D601D7010130D4000030CB
:101EF000D5000130D2000030D3005E035F04031D23
:101F0000882FD801D901DE01DF010A128A11B22B14
:101F100060036104031DFD2FD801D901E001E10137
:101F2000582F4C084D040A128A110319612D83128F
:101F3000031305150A128A1190220A128A157508D0
:101F400083120313DD007408DC005D08803AFF0093
:101F500080307F02031DAE2F01305C020A128A110D
:101F60000318532B023083120313A5002508F40035
:101F700001300A128A1191210A128A155530F50092
:101F80009030F6000A128A1117210A128A15F401FC
:101F9000F40A02300A128A1191210A128A150030BD
:101FA000F5009030F6000A128A1117210A128A15DC
:101FB000831203138517023083120313A700043022
:101FC000A600B930A500A50BE32FA60BE32FA70BA6
:101FD000E32FEA2F831203138513023083120313B6
:101FE000A7000430A600B930A500A50BF52FA60B5D
:101FF000F52FA70BF52FFC2F972F0A128A11D32F3D
:102000002034203420342034203420342034203430
:102010002034203420342034203420342034203420
:10202000003420342A342034423452344534573476
:102030004D344134533454344534523420342A34EA
:1020400020340034203445344E3454344534523432
:102050002034503441345334533457344F34523491
:102060004434203400342034453458345434453416
:1020700052344E3441344C34203442344F34493499
:102080004C3445345234003448346934673468344D
:102090002034543465346D347034653472346134B2
:1020A00074347534723465340034533445344E34EA
:1020B00053344F34523420344634413455344C3444
:1020C0005434213421342134003445346E34743492
:1020D00065347234203468346934673468342034A9
:1020E000743465346D34703400342A34203442340E
:1020F0005234453457344D344134533454344534D8
:10210000523420342A340034543465346D347034FD
:1021100065347234613474347534723465342E34F9
:102120002E342E340034773472346F346E34673486
:102130002034703461347334733477346F347234D0
:1021400064340034543445344D34503445345234BE
:1021500041345434553452344534203400347334CB
:102160007434613474347534733420343A34203424
:102170004F34463446340034733474346134743428
:102180007534733420343A3420344F344E340034B0
:102190004C344F34473449344E3453342E342E3477
:1021A0002E342E3400344D344134583420345434D9
:1021B00045344D3450343A3400345234453441348B
:1021C000443459342E342E342E340034433468349D
:1021D000653463346B3469346E34673400344134AD
:1021E00043345434553441344C343A340034533449
:1021F000453454343A340034533445345434003480
:102200002A342A34003443340034FF3FFF3FFF3F79
:10221000FF3FFF3FFF3FFF3FFF3FFF3FFF3FFF3FCE
:10222000FF3FFF3FFF3FFF3FFF3FFF3FFF3FFF3FBE
:10223000FF3FFF3FFF3FFF3FFF3FFF3FFF3FFF3FAE
:10224000FF3FFF3FFF3FFF3FFF3FFF3FFF3FFF3F9E
:104200000500070006000200000001000000010098
:10421000FF00FF00FF00FF00FF00FF00FF00FF00A6
:10422000FF00FF00FF00FF00FF00FF00FF00FF0096
:10423000FF00FF00FF00FF00FF00FF00FF00FF0086
:10424000FF00FF00FF00FF00FF00FF00FF00FF0076
:10425000FF00FF00FF00FF00FF00FF00FF00FF0066
:10426000FF00FF00FF00FF00FF00FF00FF00FF0056
:10427000FF00FF00FF00FF00FF00FF00FF00FF0046
:10428000FF00FF00FF00FF00FF00FF00FF00FF0036
:10429000FF00FF00FF00FF00FF00FF00FF00FF0026
:1042A000FF00FF00FF00FF00FF00FF00FF00FF0016
:1042B000FF00FF00FF00FF00FF00FF00FF00FF0006
:1042C000FF00FF00FF00FF00FF00FF00FF00FF00F6
:1042D000FF00FF00FF00FF00FF00FF00FF00FF00E6
:1042E000FF00FF00FF00FF00FF00FF00FF00FF00D6
:1042F000FF00FF00FF00FF00FF00FF00FF00FF00C6
:10430000FF00FF00FF00FF00FF00FF00FF00FF00B5
:10431000FF00FF00FF00FF00FF00FF00FF00FF00A5
:10432000FF00FF00FF00FF00FF00FF00FF00FF0095
:10433000FF00FF00FF00FF00FF00FF00FF00FF0085
:10434000FF00FF00FF00FF00FF00FF00FF00FF0075
:10435000FF00FF00FF00FF00FF00FF00FF00FF0065
:10436000FF00FF00FF00FF00FF00FF00FF00FF0055
:10437000FF00FF00FF00FF00FF00FF00FF00FF0045
:10438000FF00FF00FF00FF00FF00FF00FF00FF0035
:10439000FF00FF00FF00FF00FF00FF00FF00FF0025
:1043A000FF00FF00FF00FF00FF00FF00FF00FF0015
:1043B000FF00FF00FF00FF00FF00FF00FF00FF0005
:1043C000FF00FF00FF00FF00FF00FF00FF00FF00F5
:1043D000FF00FF00FF00FF00FF00FF00FF00FF00E5
:1043E000FF00FF00FF00FF00FF00FF00FF00FF00D5
:1043F000FF00FF00FF00FF00FF00FF00FF00FF00C5
:04400E00D523FF3F78
:08400000FF3FFF3FFF3FFF3FC0
:00000001FF
