:040000008A11F92F39
:10099600831603138501FF3086008701831603172C
:1009A60088018901FF30831603139500960165308F
:1009B6008F000730810083120313810185018701AF
:1009C600CC2F861AD22F851107178713061B5D2E8B
:1009D600061FEB2C071487104E2D83120313861B5C
:1009E6004E2D85157530F500E130F400F40BF92C29
:1009F600F50BF92C8312031385114130F500EE3007
:100A0600F400F40B042DF50B042D000083120313E0
:100A160085157530F500E130F400F40B102DF50B5B
:100A2600102D8312031385114130F500EE30F400CA
:100A3600F40B1B2DF50B1B2D0000831203138515DC
:100A46007530F500E130F400F40B272DF50B272D5A
:100A56008312031385114130F500EE30F400F40BD8
:100A6600322DF50B322D00008312031385157530D8
:100A7600F500E130F400F40B3E2DF50B3E2D83120C
:100A8600031385114130F500EE30F400F40B492DC7
:100A9600F50B492D000083120313061A7D2D0B1D3D
:100AA6004E2D0B110130F2070318F30A0030F3073D
:100AB6007308803AFF0083307F02031D642D843063
:100AC6007202031CF02CF201F30183120313851545
:100AD6000630F6001330F500AD30F400F40B712D3E
:100AE600F50B712DF60B712D782D831203138511DD
:100AF60087100710051785178713F201F3010B1DE1
:100B0600822D0B110130F2070318F30A0030F307A8
:100B160083120313861BE92D85157530F500E13028
:100B2600F400F40B942DF50B942D83120313851109
:100B36004130F500EE30F400F40B9F2DF50B9F2DA0
:100B460000008312031385157530F500E130F400BB
:100B5600F40BAB2DF50BAB2D83120313851141302E
:100B6600F500EE30F400F40BB62DF50BB62D0000B3
:100B76008312031385157530F500E130F400F40B8C
:100B8600C22DF50BC22D8312031385114130F500DA
:100B9600EE30F400F40BCD2DF50BCD2D00008312B5
:100BA600031385157530F500E130F400F40BD92DEB
:100BB600F50BD92D8312031385114130F500EE3064
:100BC600F400F40BE42DF50BE42D0000831203135F
:100BD600061A0C2EF201F3018511051385130B304D
:100BE600F6002630F5005D30F400F40BF82DF50B19
:100BF600F82DF60BF82DFF2D831203130710823004
:100C0600F500DD30F400F40B062EF50B062E0B2E48
:100C1600582E7308803AFF0083307F02031D152E7D
:100C260093307202031C362E831203138717061E97
:100C3600822D85150330F600CB30F5004530F400E3
:100C4600F40B232EF50B232EF60B232E8312031300
:100C560085118230F500DD30F400F40B302EF50BF3
:100C6600302E352E822D7308803AFF0083307F02A6
:100C7600031D3F2E93307202031C822D8312031331
:100C8600061A822D8713F201F301851105138513C8
:100C96000B30F6002630F5005D30F400F40B512ED3
:100CA600F50B512EF60B512E582E831203130710F7
:100CB6008710612E0710851105138513861BC82F13
:100CC600861F632E87140710C62E83120313061B76
:100CD600C62E85157530F500E130F400F40B712E43
:100CE600F50B712E8312031385114130F500EE309A
:100CF600F400F40B7C2EF50B7C2E000083120313FC
:100D060085157530F500E130F400F40B882EF50BEF
:100D1600882E8312031385114130F500EE30F4005E
:100D2600F40B932EF50B932E0000831203138515F7
:100D36007530F500E130F400F40B9F2EF50B9F2E75
:100D46008312031385114130F500EE30F400F40BE5
:100D5600AA2EF50BAA2E00008312031385157530F3
:100D6600F500E130F400F40BB62EF50BB62E831227
:100D7600031385114130F500EE30F400F40BC12E5B
:100D8600F50BC12E000083120313861AF52E0B1DD8
:100D9600C62E0B110130F2070318F30A0030F307D1
:100DA6007308803AFF0083307F02031DDC2E8430F7
:100DB6007202031C682EF201F301831203138515D8
:100DC6000630F6001330F500AD30F400F40BE92ED2
:100DD600F50BE92EF60BE92EF02E8312031385117F
:100DE6008710071005178517F201F3010B1DF92E61
:100DF6000B110130F2070318F30A0030F3078312D0
:100E06000313061B602F85157530F500E130F400DD
:100E1600F40B0B2FF50B0B2F8312031385114130A7
:100E2600F500EE30F400F40B162FF50B162F00002C
:100E36008312031385157530F500E130F400F40BC9
:100E4600222FF50B222F8312031385114130F50053
:100E5600EE30F400F40B2D2FF50B2D2F000083122E
:100E6600031385157530F500E130F400F40B392FC6
:100E7600F50B392F8312031385114130F500EE303F
:100E8600F400F40B442FF50B442F000083120313D8
:100E960085157530F500E130F400F40B502FF50B95
:100EA600502F8312031385114130F500EE30F40004
:100EB600F40B5B2FF50B5B2F000083120313861ACE
:100EC600772FF201F3018511051385130B30F60018
:100ED6002630F5005D30F400F40B6F2FF50B6F2F05
:100EE600F60B6F2F762FC32F7308803AFF008330DF
:100EF6007F02031D802F93307202031CA12F8312E1
:100F060003138717861EF92E85150330F600CB309E
:100F1600F5004530F400F40B8E2FF50B8E2FF60BF3
:100F26008E2F8312031385118230F500DD30F40015
:100F3600F40B9B2FF50B9B2FA02FF92E7308803AED
:100F4600FF0083307F02031DAA2F93307202031C19
:100F5600F92E83120313861AF92E8713F201F30171
:100F66008511051385130B30F6002630F5005D302C
:100F7600F400F40BBC2FF50BBC2FF60BBC2FC32FC4
:100F86008312031387100710CC2F871085110513C2
:100F960085138710071005138513061EE42C87108A
:100FA60007100513851385110330F6008A30F50006
:100FB6005530F400F40BDD2FF50BDD2FF60BDD2F8E
:100FC600E42F8312031385150330F6008A30F500EB
:100FD6005530F400F40BED2FF50BED2FF60BED2F3E
:100FE600F42F8312031387170713CC2FF001F10197
:0A0FF600F201F30183018A11CB2CF4
:04400E00D4E3FFFFF9
:00000001FF
