:100000000A128A11FC2F00308A000408840A820731
:10001000003465346C3465346334743472346F3452
:1000200053346F346D34653420344C3443344434A9
:100030002034483465346C346C346F342034573495
:0A0040006F3472346C346434003401
:100CE80001300A128A119726080018300A128A1150
:100CF800972608001C300A128A1197260800F5006A
:100D08007503031D8D2E7408803E0A128A119726DA
:100D1800080002307506031D08007408C03E0A1258
:100D28008A1197260800F300831203130613730829
:100D38000A128A11EC260A128A11831203138617E3
:100D48000730F2007D30F100F10BA82EF20BA82E2F
:100D58008312031386130800F30083120313061784
:100D680073080A128A11EC260A128A1183120313D5
:100D780086170630F2003030F100F10BC12EF20B6D
:100D8800C12E00008312031386130800F600F40135
:100D9800F5017408760784000A128A1103200A12E2
:100DA8008A11003A031908007408760784000A12A9
:100DB8008A1103200A128A110A128A11B0260A120D
:100DC8008A110130F4070318F50A0030F507CD2E13
:100DD800F000701CF32E831203130714F62E8312EF
:100DE80003130710F01CFA2E8714FB2E8710701DB2
:100DF800FF2E0715002F0711F01D042F8715052F4B
:100E08008711701E092F07160A2F0712F01E0E2FC2
:100E180087160F2F8712701F132F0717142F07130A
:100E2800F01F182F871708008713080000300A12D0
:100E38008A11EC260A128A11831203130613213031
:100E4800F5007630F400F40B272FF50B272F000060
:100E580030300A128A1197260A128A110730F500D3
:100E68007D30F400F40B362FF50B362F30300A1294
:100E78008A1197260A128A111430F5007930F40085
:100E8800F40B442FF50B442F492F30300A128A11E6
:100E980097260A128A1138300A128A1197260A12DE
:100EA8008A110C300A128A1197260A128A11013007
:100EB8000A128A1197260A128A1106300A128A1112
:100EC8009726080083160313860187010A128A11E0
:100ED8001A270A128A11F401F40A01300A128A1137
:100EE80083260A128A1101300A128A11CA260A12A6
:100EF8008A11FA01FB017B08803AFF0080307F02EB
:100F0800031D882F0F307A020318A92F8230F800AA
:100F1800DD30F700F70B8E2FF80B8E2F932F0A1268
:100F28008A1179260A128A110130FA070318FB0A76
:100F38000030FB077B08803AFF0080307F02031DEA
:100F4800A72F0F307A02031C8A2FFA01FB017B08B6
:100F5800803AFF0080307F02031DB42F0F307A02E1
:100F68000318D52F8230F800DD30F700F70BBA2FC1
:100F7800F80BBA2FBF2F0A128A117E260A128A117D
:100F88000130FA070318FB0A0030FB077B08803A98
:100F9800FF0080307F02031DD32F0F307A02031C1D
:100FA800B62F0A128A1174260A128A11F401F40A59
:100FB80002300A128A1183260A128A1165300A122F
:100FC8008A11B0260A128A1153300A128A11B026E1
:100FD8000A128A110B30F9002630F8005D30F7004C
:100FE800F70BF42FF80BF42FF90BF42FFB2F6F2FBF
:080FF80083010A128A11662F21
:02400E007A3FF7
:00000001FF
