:100000008A11F72F00308A000408840A820700341E
:10001000C0347F3444341D349B34393400340034CC
:100020000034003480343F34F034FF34BE34E234E2
:10003000A9343E3483347634BE34AE342B343E346B
:100040003C34C334BD34D23413343D347834D334E7
:10005000BB34CF345B343B34533465347434203494
:10006000543445344D3450342034313430342D340C
:1000700037343034003445346E347434653472347B
:1000800069346E34673420347334653474347534B1
:1000900070340034633475347234723465346E34C1
:1000A00074342034743465346D3470343A3400342C
:1000B0004F346E342034743465346D3470343A34D3
:1000C000203400344F34463446342034743465349C
:1000D0006D3470343A3400344F34663466345F34EF
:1000E000743465346D3470343A34003448344934EF
:1000F000473448342034543445344D34503400347B
:100100004F346E345F34743465346D3470343A3443
:1001100000344C344F3457342034543445344D3447
:10012000503400344F346E343A34203400344F3479
:10013000463446343A3400344F346E343A34003462
:060140003C343C340034A5
:1001480000308A154F218A1101308A154F21080085
:1001580083120313EC01ED016D08803AFF00803033
:100168007F02031DB9281E306C02031808008A118B
:10017800A0228A11831203135E08EB005D08EA00CF
:100188006208803AFF0080307F02031DCD280A30C4
:1001980061020318DC28831203136208803AFF0007
:1001A80080307F02031DDA284730610203180800F7
:1001B800831203138619E728013083160313CC0032
:1001C8000030CD00080083160313CC01CD01831243
:1001D80003136B08803AFF0080307F02031DF62866
:1001E80046306A0203180800831203136B08803A2A
:1001F800FF0080307F02031D03290B306A02031CB5
:1002080008008A11A4208A11F401F40A01308A1521
:10021800CE228A1179308A1581218A110E308312F3
:100228000313E7006708F40001308A15CE228A110B
:10023800831203136408F9006308F8008A15582329
:100248008A11F401F40A02308A15CE228A11653027
:100258008A1581218A110E3083120313E70067087B
:10026800F40002308A15CE228A118312031366081D
:10027800F9006508F8008A1558238A110630831298
:100288000313E9001330E800AD30E700E70B4A2913
:10029800E80B4A29E90B4A2900008A11A4208A118F
:1002A800F401F40A01308A15CE228A1143308A15E6
:1002B80081218A110E3083120313E7006708F400C6
:1002C80001308A15CE228A11831203136B08F900B4
:1002D8006A08F8008A1558238A11F401F40A0230D2
:1002E8008A15CE228A11831203136D08F9006C084F
:1002F800F8008A1558238A11063083120313E9007F
:100308001330E800AD30E700E70B8829E80B8829AF
:10031800E90B88290000013083120313EC07031846
:10032800ED0A0030ED07B028831203133008B60039
:100338003108B7003208B8000310370D380DB9007E
:100348003908BC003308B6003408B7003508B800CF
:100358000310370D380DB9003908BB003C080319E4
:10036800C1293B083C020318C8293C03FF3A3B0754
:10037800B60019303602031CC8293308B000340807
:10038800B1003508B20008003B08031908003C0812
:100398003B020318D7293B03FF3A3C07B600193044
:1003A8003602031808000630B6003608BA00B21B39
:1003B800BA17B51B3A17B117FF30B005FF30B105B2
:1003C8000030B205B417FF30B305FF30B405003074
:1003D800B5053B083C020318172A01300310B30D7A
:1003E800B40DB50DFF3E031DF2290130BB023B08D9
:1003F8003C060319122A0130BA023A0807390319D0
:10040800122AF12901300310B20CB10CB00CFF3ED6
:10041800031D072A0130B6003608BC073C083B0616
:100428000319402A062A3C083B020318402A0130D7
:100438000310B00DB10DB20DFF3E031D1C2A013093
:10044800BC023B083C0603193C2A0130BA023A08B0
:10045800073903193C2A1B2A01300310B50CB40CC8
:10046800B30CFF3E031D312A0130B6003608BB0726
:100478003C083B06031D302ABA1F522AFF30B0063B
:10048800FF30B106FF30B2060130B0070030031864
:100498000130B107003003180130B2073A1F642A4F
:1004A800FF30B306FF30B406FF30B5060130B3079E
:1004B800003003180130B407003003180130B507C5
:1004C800BA013008B307310803110318310A031DB4
:1004D800B407320803110318320A031DB507B51F04
:1004E800872AFF30B306FF30B406FF30B506013067
:1004F800B307003003180130B40700300318013087
:10050800B507BA01BA0A3308F0003408F100350813
:10051800F2003C08B6003608F3003A08B70037087E
:10052800F4008A15C024700883120313B000710800
:10053800B1007208B2000800053083160313AC003E
:100548000030AD00B301B401AE01AF012F08803A0D
:1005580083120313DF00831603132D08803A8312D6
:1005680003135F02031DBC2A831603132C082E02F3
:100578000318E02A00308A15BD218A118316031357
:1005880033087007B30034080318340A7107B4003D
:100598000D3083120313E000FB30DF00DF0BD22A9B
:1005A800E00BD22A0000013083160313AE070318AC
:1005B800AF0A0030AF07AA2A0530F0000030F1007A
:1005C800831603133408F3003308F2008A15A523B1
:1005D8008A11710883160313B4007008B300003041
:1005E80083120313B0008030B100BF30B20083160D
:1005F80003133408F9003308F8008A159D218A117D
:10060800780883120313A0007908A1007A08A200D1
:10061800013084008A1102208A11A3008A11022065
:100628008A11A4008A1102208A11A5008A15B8250A
:100638008A11831203132008B3002108B40022088A
:10064800B5008A1198218A11831203133008831682
:100658000313A60083120313310883160313A7009C
:1006680083120313320883160313A8002608831283
:100678000313D70083160313270883120313D80024
:1006880083160313280883120313D9008A156F26CB
:100698008A1183120313570883160313A9008312C0
:1006A8000313580883160313AA0083120313590867
:1006B80083160313AB00223084008A1102208A11AA
:1006C80083120313B0008A1102208A11B1008A1123
:1006D80002208A11B200043084008A1102208A1193
:1006E800BD008A1102208A11BE008A1102208A11D7
:1006F800BF0083160313290883120313C00083164F
:1007080003132A0883120313C100831603132B084B
:1007180083120313C2008A152E278A11831203132A
:100728003D08B3003E08B4003F08B5008A1198217F
:100738008A11831203133008A0003108A10032087F
:10074800A2000030A3008030A4003F30A5008A1525
:10075800B8258A1183120313200883160313A300F4
:1007680083120313210883160313A40083120313AF
:10077800220883160313A500933083120313B000D5
:100788008830B100C330B2008316031323088312E4
:100798000313B30083160313240883120313B4004E
:1007A80083160313250883120313B5008A119821B1
:1007B8008A1183120313300883160313B0008312BF
:1007C8000313310883160313B1008312031332088D
:1007D80083160313B200003083120313B0000030F5
:1007E800B1004230B2000030A000A030A10040307B
:1007F800A2000030BD001030BE004130BF0083169B
:100808000313300883120313C0008316031331083F
:1008180083120313C10083160313320883120313D0
:10082800C2008A152E278A11831203133D08A300DC
:100838003E08A4003F08A5008A15B8258A1183122E
:1008480003132008B3002108B4002208B5008A1158
:1008580098218A1183120313300883160313A0000A
:1008680083120313310883160313A10083120313A1
:10087800320883160313A2003008F0003108F10093
:100888003208F2008A152C25710883120313DE0042
:100898007008DD000800FF308316031385000F3051
:1008A800860087018316031789018A1531218A1169
:1008B8008A1512238A11463083160313C6000030A6
:1008C800C7000A30C8000030C900B801B901C20128
:1008D800C301BA01BB018A1512238A118A11A42007
:1008E8008A1183160313BC01BD018A11A4208A1141
:1008F8008A11A0228A11831203135E088316031338
:10090800C500831203135D0883160313C400831202
:1009180003138619C52E8A11A4208A11F401F40A3A
:1009280001308A15CE228A1134308A1581218A1124
:10093800063083160313B7001330B600AD30B50088
:10094800B50BA42CB60BA42CB70BA42C00008A1151
:10095800A4208A11F401F40A01308A15CE228A11E2
:1009680051308A1581218A11831603134908F90029
:100978004808F8008A1558238A11F401F40A02304D
:100988008A15CE228A115B308A1581218A11831635
:1009980003134708F9004608F8008A1558238A11F6
:1009A800831203130618EC2C013083160313C207B5
:1009B8000318C30A0030C307033042064304031D6B
:1009C800E92C0130C2000030C3008312061CE92C58
:1009D8008316031342034304031DC02D4308803AC2
:1009E800FF0080307F02031DFB2C033042020318F6
:1009F800C02D8A11A4208A11F401F40A01308A1545
:100A0800CE228A118B308A1581218A110C308316E7
:100A18000313B5003508F40001308A15CE228A1177
:100A2800831603134908F9004808F8008A15582363
:100A38008A11F401F40A02308A15CE228A11903004
:100A48008A1581218A110C3083160313B5003508E5
:100A5800F40002308A15CE228A1183160313470840
:100A6800F9004608F8008A1558238A110F308316B2
:100A78000313B5003508F40001308A15CE228A1117
:100A880099308A1581218A11013083160313BE001B
:100A98000030BF00831203138618882D0130831697
:100AA8000313C8070318C90A0030C90747084906CD
:100AB800031D602D46084806031D662D3C30C800FE
:100AC8000030C900F401F40A01308A15CE228A11D7
:100AD80095308A1581218A110C3083160313B500CD
:100AE8003508F40001308A15CE228A1183160313C3
:100AF8004908F9004808F8008A1558238A11831212
:100B080003138618A02E832D0619A02E3C308316B9
:100B1800031348064904031D952D4708C9004608D4
:100B2800C800FF30C8070318C90AFF30C9078A116F
:100B3800A4208A11F401F40A01308A15CE228A1100
:100B480095308A1581218A110C3083160313B5005C
:100B58003508F40001308A15CE228A118316031352
:100B68004908F9004808F8008A1558238A118312A1
:100B780003130619A02EBB2D023083160313420659
:100B88004304031DA02E4308803AFF0080307F02F3
:100B9800031DD02D033042020318A02E8A11A42071
:100BA8008A11F401F40A01308A15CE228A118B3099
:100BB8008A1581218A110C3083160313B500350874
:100BC800F40001308A15CE228A11831603134908CE
:100BD800F9004808F8008A1558238A11F401F40A24
:100BE80002308A15CE228A1190308A1581218A1105
:100BF8000C3083160313B5003508F40002308A154B
:100C0800CE228A11831603134708F9004608F80014
:100C18008A1558238A110F3083160313B500350837
:100C2800F40002308A15CE228A1199308A15812162
:100C38008A11023083160313BE000030BF008312EE
:100C4800031386185D2E6230831603134606470485
:100C5800031D322E4908C7004808C6000130C607E0
:100C68000318C70A0030C7078A11A4208A11F401A3
:100C7800F40A02308A15CE228A1190308A15812111
:100C88008A110C3083160313B5003508F4000230BE
:100C98008A15CE228A11831603134708F9004608DD
:100CA800F8008A1558238A11831203138618A02E78
:100CB800582E0619A02E831603134708C1004608AC
:100CC800C0004008FF3EC00041080318013EFF3E37
:100CD800C10049084106031D732E48084006031D3C
:100CE800792E6330C6000030C700FF30C6070318EE
:100CF800C70AFF30C707F401F40A02308A15CE226A
:100D08008A1190308A1581218A110C3083160313B9
:100D1800B5003508F40002308A15CE228A118316F0
:100D280003134708F9004608F8008A1558238A1162
:100D380083120313061D9C2E831203138619AA2EF1
:100D4800831603133E033F040319C02E831286192A
:100D5800B42E0230831603133E063F040319C02E37
:100D6800823083160313B600DD30B500B50BBA2EFA
:100D7800B60BBA2E0000D42C831203138619CB2E7F
:100D8800C02E831603133C033D0403198F2C8A11CC
:100D9800A4208A11831603134508803AFF00803087
:100DA8007F02031DD92E0A304402031C9D2F83168F
:100DB80003134508803AFF0080307F02031DE62EAA
:100DC8004730440203189D2F831603134508803AC1
:100DD800B5004908803A3502031DF42E480844023C
:100DE800031C772F831603134708803AB50045087C
:100DF800803A3502031D022F44084602031C772F50
:100E0800831603134908803AFF0080307F02031DD0
:100E18000F2F0A304802031C772F83160313470845
:100E2800803AFF0080307F02031D1C2F47304602A6
:100E38000318772F831203138617831603134508A5
:100E480083120313E2008316031344088312031367
:100E5800E10083160313490883120313E400831681
:100E68000313480883120313E30083160313470888
:100E780083120313E6008316031346088312031331
:100E8800E5008A11AC208A11831203138613831696
:100E98000313450883120313E2008316031344085F
:100EA80083120313E1008316031349088312031303
:100EB800E40083160313480883120313E300831620
:100EC8000313470883120313E60083160313460827
:100ED80083120313E5008A11AC208A1183160313C9
:100EE800BA01BB01792C8A11A4208A11F401F40AF1
:100EF80001308A15CE228A1125308A1581218A115E
:100F0800831203138613013083160313BA000030CB
:100F1800BB00063083160313B7001330B600AD309C
:100F2800B500B50B952FB60B952FB70B952F000075
:100F3800792C831603134508803AFF0080307F021E
:100F4800031DA82F0A3044020318CA2F8A11A420AF
:100F58008A11831203138613F401F40A01308A15E7
:100F6800CE228A1182308A1581218A110630831691
:100F78000313B7001330B600AD30B500B50BC22F60
:100F8800B60BC22FB70BC22F0000792C83160313A0
:100F98004508803AFF0080307F02031DD52F473077
:100FA8004402031C792C8A11A4208A11831203138A
:100FB8008613F401F40A01308A15CE228A116F30A3
:100FC8008A1581218A11063083160313B70013305E
:100FD800B600AD30B500B50BEF2FB60BEF2FB70B42
:100FE800EF2F0000792C83160313CA01CB01CC0123
:080FF800CD0183018A114F2C89
:1012620001308316031788000130831203139F0095
:101272008030831603139F000800F300F201731CF1
:1012820046297008F1007108F2070310F00D0310EF
:10129200F30C7308031D402972080800F30083123F
:1012A2000313071073088A1567218A158312031323
:1012B20087140630F2003030F100F10B5E29F20B98
:1012C2005E2900008312031387100800F000701CCF
:1012D2006E29831203130715712983120313071151
:1012E200F01C7529871576298711701D7A29071632
:1012F2007B290712F01D7F29871608008712080034
:10130200F700F501F6017508770784008A110220BB
:101312008A15003A031908007508770784008A11B4
:1013220002208A158A151F228A150130F507031833
:10133200F60A0030F6078429FD01F91FA729F809EA
:10134200F909F80A0319F90AFD01FD0A7808F00003
:101352007908F100F2018E30FB007B08F3007D0872
:10136200FC007C08F4008A15C0247008F80071089B
:10137200F9007208FA000800F40008307402031C35
:10138200C529F001F1010800C530F200720883128C
:1013920003139F057408F20002300310F20DFF3EA2
:1013A200031DCE290310720DF30073089F0403304E
:1013B200F3009730F200F20BDC29F30BDC29E12970
:1013C200831203139F149F18E4291E08F100831649
:1013D20003131E08F00008007008710403191A2A8A
:1013E200F501F50AF11B012A01300310F00DF10D90
:1013F200FF3E031DF6290130F4007408F507F329B6
:1014020071087302031D072A70087202031C0F2A57
:101412007008F2027108031CF303F3020130031097
:10142200F10CF00CFF3E031D102A0130F502031DE2
:10143200012A7308F1007208F0000800F400740831
:101442000F39F1007108F2007408F039F1007108E7
:10145200F3008312031307147308F100043003101E
:10146200F10CFF3E031D302A71088A1567218A1587
:101472008312031387140D30F100F10B3E2A8312FD
:101482000313871072088A1567218A1583120313C2
:1014920087140D30F100F10B4C2A831203138710CD
:1014A2000800F501F601700871040319892AF70191
:1014B200F70AF11B682A01300310F00DF10DFF3E0F
:1014C200031D5D2A0130F4007408F7075A2A01301F
:1014D2000310F50DF60DFF3E031D692A7108730214
:1014E200031D752A70087202031C7E2A7008F2021C
:1014F2007108031CF303F302751401300310F10C9D
:10150200F00CFF3E031D7F2A0130F702031D682AFB
:101512007608F1007508F000080072087104700482
:10152200031DA02A7308840083138001840A8001AA
:101532000030F0000030F1000030F20008007208C4
:101542007F39F400F5010310F40DF50D73088400E2
:10155200740883138000840A75088000710D710D70
:101562000139F400F5017308840074088004840AC8
:10157200750880047308840082308007840F000895
:101582000318000AFF00FF307F07800084037208FF
:1015920080393F38F200F1130800F7007703031D8A
:1015A200F02A74087F3EF5007508FA007A08F50003
:1015B20004300310F50CFF3E031DDA2A7508F6000D
:1015C2007608F8007A080F39F5007508F9007808EE
:1015D2008A154F218A1579088A154F210800023091
:1015E2007706031D08007408BF3EF5007508FA006F
:1015F2007A08F50004300310F50CFF3E031DFC2AA7
:101602007508F6007608F8007A080F39F5007508B3
:10161200F90078088A154F218A1579088A154F2111
:10162200080000308A1567218A151A30F500F83053
:10163200F400F40B1A2BF50B1A2B000003308A1559
:101642004F218A150730F5007D30F400F40B272B6B
:10165200F50B272B03308A154F218A150F30F50021
:101662004730F400F40B332BF50B332B382B0330BC
:101672008A154F218A1502308A154F218A150230A8
:101682008A154F218A1508308A154F218A15003094
:101692008A154F218A150C308A154F218A15003080
:1016A2008A154F218A1506308A154F2108001030FD
:1016B200F0002730F1007908F3007808F2008A156B
:1016C200ED218A157108F9007008F800E830F00081
:1016D2000330F1007908F3007808F2008A15ED2151
:1016E2008A157108F9007008F8006430F0000030C3
:1016F200F1007908F3007808F2008A15ED218A15C5
:101702007108F9007008F8000A30F0000030F100AA
:101712007908F3007808F2008A1552228A157008B7
:10172200303E8A151F228A150A30F0000030F1007F
:101732007908F3007808F2008A15ED218A157008FD
:10174200303E8A151F220800F601F11FAF2BF00967
:10175200F109F00A0319F10AF601F60AF31FBA2B8E
:10176200F209F309F20A0319F30A0130F4007408CA
:10177200F606F701F801700871040319F12BF5015F
:10178200F50AF11BD02B01300310F00DF10DFF3ED5
:10179200031DC52B0130F4007408F507C22B01307C
:1017A2000310F70DF80DFF3E031DD12B71087302D4
:1017B200031DDD2B70087202031CE62B7008F20277
:1017C2007108031CF303F302771401300310F10CC8
:1017D200F00CFF3E031DE72B0130F502031DD02B59
:1017E20076080319F92BF709F809F70A0319F80A19
:1017F2007808F1007708F0000800F21F252C00306D
:10180200F6000030F7008030F8007009F900710925
:10181200FA007209FB00F90A0319FA0A0319FB0A12
:101822007908F6077A0803187A0F182C192CF7078B
:101832007B0803187B0F1E2C1F2CF8077608F0007C
:101842007708F1007808F200F51F4C2C0030F60002
:101852000030F7008030F8007309F9007409FA00CB
:101862007509FB00F90A0319FA0A0319FB0A790838
:10187200F6077A0803187A0F3F2C402CF7077B08EB
:1018820003187B0F452C462CF8077608F3007708DF
:10189200F4007808F5008030F2068030F50675080D
:1018A2007202031D080074087102031D0800730808
:1018B20070020800033083120313D3005308F000B0
:1018C20051088A153E218A1583120313500784009A
:1018D2008A1102208A15D4008A1102208A15D500A5
:1018E2008A1102208A15D600510852040319B92C14
:1018F2000330D3005308F000FF30D1070318D20A97
:10190200FF30D20751088A153E218A15831203132C
:10191200500784008A1102208A15B0008A11022021
:101922008A15B1008A1102208A15B2005408BD003E
:101932005508BE005608BF004D08C0004E08C10041
:101942004F08C2008A152E278A15831203133D08F9
:10195200B3003E08B4003F08B5008A1198218A15E9
:10196200831203133008D4003108D5003208742CD6
:101972005408CD005508CE005608CF000800730861
:101982000319C82C720871047004031DDB2C00308B
:10199200F0000030F1000030F20008000130F500E4
:1019A2007508F30701300310F20CF10CF00CFF3E46
:1019B200031DD42CFE3072050319F62CCF2C0130F6
:1019C200F5007508F3070130F00700300318013005
:1019D200F107003003180130F20701300310F20C56
:1019E200F10CF00CFF3E031DEF2CFF3072050319C2
:1019F200052DE02C0130F30201300310F00DF10D42
:101A0200F20DFF3E031DFE2CF11B0B2D0230730263
:101A12000318FB2C7318132DFF30F0057F30F105EE
:101A2200FF30F2050310F30C7308F500F601F7011D
:101A320010300310F50DF60DF70DFF3E031D1A2DA4
:101A42007508F0047608F1047708F20474080319A3
:101A52000800F21708007008F4007108F500720817
:101A6200F6000310750D760DF7007708FD007D086E
:101A7200031D442D0030F3000030F2000030F1006D
:101A82000030F00008007008F4007108F5007208D8
:101A9200F60017300310F60CF50CF40CFF3E031D94
:101AA2004B2D7408F7007708F800F117FF30F005A6
:101AB200FF30F1050030F2057008F9007108FA00F4
:101AC2007208FB00FC018E30FD02FD1F862D7D0891
:101AD200803A8F3E0318762D0030F3000030F2007A
:101AE2000030F1000030F000080001300310FC0C5F
:101AF200FB0CFA0CF90CFF3E031D772D0130F400AC
:101B02007408FD070319A12D762D18307D02031CE0
:101B12009E2D0030F3000030F2000030F100003062
:101B2200F00008000130F4000310F90DFA0DFB0D6E
:101B3200FC0DF40B952D0130FD027D08031D932D44
:101B420078080319AF2DF909FA09FB09FC09F90A0A
:101B52000319FA0A0319FB0A0319FC0A7C08F300A9
:101B62007B08F2007A08F1007908F000080083127D
:101B720003132308A6002408A7002508A8000310C1
:101B8200270D280DA9002908AE002E08031DD02D0F
:101B92000030A0000030A1000030A20008002008A0
:101BA200A6002108A7002208A8000310270D280D6F
:101BB200A9002908AF002F08031DE62D0030A00060
:101BC2000030A1000030A20008000030AB0000305D
:101BD200AC000030AD0089302F07A6002608AE0207
:101BE2002308A6002408A7002508A8001030031027
:101BF200A80CA70CA60CFF3E031DF82D2608A90071
:101C02002908AF002008A6002108A7002208A80082
:101C120010300310A80CA70CA60CFF3E031D0A2EC1
:101C22002608A9002908AF068030A6002608AF05BD
:101C3200A417FF30A305FF30A4050030A505A117A6
:101C4200FF30A005FF30A1050030A2051830A60024
:101C52002608AA0001300310AB0DAC0DAD0DFF3EFE
:101C6200031D2C2E22082502031D3D2E21082402CD
:101C7200031D3D2E20082302031C4A2E2008A30226
:101C82002108031C210FA4022208031C220AA50218
:101C92002B1401300310A30DA40DA50DFF3E031D4F
:101CA2004B2E0130AA02031D2B2E2B08F0002C080C
:101CB200F1002D08F2002E08A6002608F3002F08D6
:101CC200A7002708F4008A15C024700883120313A2
:101CD200A0007108A1007208A20008008312031379
:101CE2005708F0005808F1005908F2000030F300DC
:101CF2000030F4000030F5008A15FE238A1503181F
:101D0200912E213083160313CA000030CB0000301D
:101D120083120313D7000030D8000030D900080026
:101D220083120313590858045704031DA72E2230A7
:101D320083160313CA000030CB0000308312031352
:101D4200D7000030D8000030D90008000030B000C1
:101D52008030B100BF30B2000030BD000030BE00A4
:101D62004030BF005B30DA005A08F3005708F00039
:101D72005808F1005908F2008A158E228A15700857
:101D820083120313C0007108C1007208C2008A15D1
:101D92002E278A15831203133D08B3003E08B400B0
:101DA2003F08B5008A1198218A158312031330085F
:101DB200D7003108D8003208D900FF30DB070318FA
:101DC200DC0AFF30DC075708CD005808CE0059085E
:101DD200CF000730DA005A08D0000830D1000030B6
:101DE200D2008A155B248A15831203134D08D7008B
:101DF2004E08D8004F08D9005708B0005808B10063
:101E02005908B2007230BD003130BE003F30BF0011
:101E12005C08F9005B08F8008A159D218A1578088C
:101E220083120313C0007908C1007A08C2008A1520
:101E32002E278A15831203133D08B3003E08B4000F
:101E42003F08B5008A119821831203133008D70086
:101E52003108D8003208D9000800831203133D0864
:101E6200C3003E08C4003F08C5000310440D450DE1
:101E7200C6004608C7004708031D462F0030BD00B4
:101E82000030BE000030BF0008004008C300410817
:101E9200C4004208C5000310440D450DC6004608A3
:101EA200CC004C08031D5C2F0030BD000030BE008A
:101EB2000030BF0008004C087B3EC3004308C70740
:101EC2003D08C3003E08C4003F08C500103003109F
:101ED200C50CC40CC30CFF3E031D682F4308C6008B
:101EE2004608CC004008C3004108C4004208C500AF
:101EF20010300310C50CC40CC30CFF3E031D7A2F17
:101F02004308C6004608CC068030C3004308CC050F
:101F1200BE17C117FF30C005FF30C1050030C20532
:101F22000030C8000030C9000030CA000730C300CA
:101F32004308CB003D1CAB2F4008C80741080311E2
:101F42000318410A031DC907420803110318420A74
:101F5200031DCA0701300310BF0CBE0CBD0CFF3EAF
:101F6200031DAC2F01300310C00DC10DC20DFF3E89
:101F7200031DB42F0130CB02031D9B2F0930C30078
:101F82004308CB003D1CD32F4008C807410803116A
:101F92000318410A031DC907420803110318420A24
:101FA200031DCA0701300310BF0CBE0CBD0CFF3E5F
:101FB200031DD42F01300310CA0CC90CC80CFF3EFC
:101FC200031DDC2F0130CB02031DC32F4808F00094
:101FD2004908F1004A08F2004708C3004308F30029
:101FE2004C08C4004408F4008A15C0247008831207
:0E1FF2000313BD007108BE007208BF00080096
:00000001FF
