:02000000FD2BD6
:100374008312A400F330A20022089F05CB291F1585
:10038400D3290C30A20022089F04D329A001A10183
:1003940008002408023A0319C1290A3A0319C32997
:1003A400C8290D30A300FB30A200A20BD729A30B50
:1003B400D729DC2983129F149F18DE291E08A10067
:1003C40083161E088312A000080083160510051664
:1003D400851585168514051109309F000730831291
:1003E400990083309F00831699010730810083129E
:1003F4008101B601B701B801B901B201B301B40179
:10040400B501AC01AD01AE01AF01AA01AB01B00170
:10041400B101A601A701A801A90105110830BA215B
:1004240083122108B7002008B6000230BA218312D3
:100434002108B9002008B800B71B302A3708803AD1
:10044400DF0080305F02031D292AC83036020318FA
:10045400302A1A308312B2000430B30083123708F2
:10046400803ADF0080305F02031D3A2AC930360229
:10047400031C4D2A83123708803ADF0081305F0263
:10048400031D462A9030360203184D2A2E3083125B
:10049400B2000830B30083123708803ADF0081309D
:1004A4005F02031D572A91303602031C6A2A831205
:1004B4003708803ADF0082305F02031D632A583018
:1004C400360203186A2A44308312B2000C30B30097
:1004D40083123708803ADF0082305F02031D742ADA
:1004E40059303602031C872A83123708803ADF000A
:1004F40083305F02031D802A203036020318872AC6
:100504001D308312B2001030B30083123708803AD2
:10051400DF0083305F02031D912A21303602031C61
:10052400A42A83123708803ADF0084305F02031D57
:100534009D2A013036020318A42A64308312B200C3
:100544001430B3008312B91BB72A3908803ADF008C
:1005540080305F02031DB02A643038020318B72AC2
:100564000F308312B4000030B50083123908803A8A
:10057400DF0080305F02031DC12A65303802031C8E
:10058400D42A83123908803ADF0080305F02031DC9
:10059400CD2AC83038020318D42A1E308312B4007E
:1005A4000030B50083123908803ADF0080305F02E2
:1005B400031DDE2AC9303802031CF12A83123908CC
:1005C400803ADF0081305F02031DEA2A2C303802B2
:1005D4000318F12A2D308312B4000030B5008312C1
:1005E4003908803ADF0081305F02031DFB2A2D3079
:1005F4003802031C0E2B83123908803ADF00813045
:100604005F02031D072B9030380203180E2B3C3079
:100614008312B4000030B50083123908803ADF0039
:1006240081305F02031D182B91303802031C2B2BE1
:1006340083123908803ADF0081305F02031D242BC6
:10064400F430380203182B2B4B308312B4000030E3
:10065400B50083123908803ADF0081305F02031D40
:10066400352BF5303802031C482B83123908803AA5
:10067400DF0082305F02031D412B5830380203181B
:10068400482B5A308312B4000030B5008312390865
:10069400803ADF0082305F02031D522B593038024A
:1006A400031C652B83123908803ADF0082305F0215
:1006B400031D5E2BBC3038020318652B693083128E
:1006C400B4000030B50083123908803ADF0082306C
:1006D4005F02031D6F2BBD303802031C822B831273
:1006E4003908803ADF0083305F02031D7B2B203002
:1006F40038020318822B78308312B4000030B5001E
:1007040083123908803ADF0083305F02031D8C2B8B
:1007140021303802031C9F2B83123908803ADF00F2
:1007240083305F02031D982B8430380203189F2BFB
:1007340087308312B4000030B50083123908803A40
:10074400DF0083305F02031DA92B85303802031CB0
:10075400BC2B83123908803ADF0084305F02031D0A
:10076400B52B013038020318BC2B96308312B40029
:100774000030B5000B1D102A0B1183122D08803A8E
:10078400A5003308803A2502031DCA2B32082C0227
:100794000318DE2B01308312AC070318AD0A0030B6
:1007A400AD0730083104031DE92B0515051401308C
:1007B400B0000030B100E92B831205110510B0011F
:1007C400B1010130AE070318AF0A0030AF072F089C
:1007D400803AA5003508803A2502031DF32B34081E
:1007E4002E02031C102A8312AC01AD01AE01AF012D
:0A07F400AA01AB01102A8301E729D6
:02400E00D431AB
:00000001FF
