:100000008A11FD2F00308A000408840A8207003418
:10001000573445344C3443344F344D3445342E3406
:100020002E342E342E342E342E34003442344134C7
:0E0030004C3441344A3449342E3450340034B8
:100E060001308A113C278A110330F4009730F30031
:100E1600F30B0B2FF40B0B2F102F08008312031369
:100E26008716C730F000172FF00B162F1A2F1B2F1F
:100E3600831203138712C730F000212FF00B202FE7
:100E4600242F252F0800F400740884008A1102203C
:100E56008A11003A03190800740884008A110220D6
:100E66008A118A1156278A110130F3007308F40794
:100E7600272FF2008312031307127208F1000430C1
:100E86000310F10CFF3E031D432F71080F39860036
:100E96008A1111278A1172080F39831203138600EB
:100EA6008A1111270800F20083120313071672082D
:100EB600F10004300310F10CFF3E031D5D2F710895
:100EC6000F3986008A1111278A1172080F39831289
:100ED600031386008A1111270800F83083160313BE
:100EE6008500F030860001308700083089008312C3
:100EF60003138601870185018901073083160313D1
:100F0600810080308B008316031788018901F03039
:100F1600831603139500960165308F00080083122F
:100F26000313871207120610861006118611831600
:100F36000313871307130610861006118611023055
:100F46008A113C278A1128308A113C278A110C30D5
:100F56008A113C278A1101308A113C278A110630F2
:100F66008A113C2708008A1170278A118A11922754
:100F76008A118230F600DD30F500F50BC02FF60B36
:100F8600C02FC52F8A1103278A1180308A113C276A
:100F96008A110F308A1126278A11FF308312031314
:100FA60087000630F7001330F600AD30F500F50B7C
:100FB600DA2FF60BDA2FF70BDA2FE12F8A11032738
:100FC6008A1180308A113C278A1101308A1126271E
:100FD6008A118312031387010630F7001330F600D7
:100FE600AD30F500F50BF52FF60BF52FF70BF52FBA
:0A0FF600FC2FC52F83018A11B62FCE
:04400E00D4E3FFFFF9
:00000001FF
