:10000000FE2F00308A000408840A8207003463341B
:1000100075347234723465346E347434203474340C
:1000200065346D3470343A3400347334743461346C
:1000300074347534733420343A3420344F344634B5
:100040004634003465346E347434723469346E343A
:10005000673420346D346F34643465340034733461
:100060007434613474347534733420343A34203445
:100070004F344E3400347334743461347434753412
:10008000733420344F344634463400344F346E34A5
:100090002034743465346D3470343A342034003490
:1000A0004F34463446342034743465346D347034FF
:1000B0003A3400344F34663466345F347434653413
:1000C0006D3470343A3400347334743461347434BD
:1000D0007534733420344F344E3400344F346E341E
:1000E0005F34743465346D3470343A3400344F34D2
:1000F0006E343A34203400344F34463446343A3483
:1001000000344F346E343A3400343C343C340034E0
:1007180000309123013091230800F3008312031362
:1007280085107308D6238312031305150630F200CB
:100738003030F100F10B9E2BF20B9E2B0000831240
:10074800031305110800F700F501F601750877078E
:1007580084000120003A031908007508770784000F
:10076800012015240130F5070318F60A0030F607B2
:10077800AA2B0A30F0000030F1007A08F30079085B
:10078800F200AB257008303E15240A30F000003026
:10079800F1007A08F3007908F20060257008303E0D
:1007A80015240800F000701CDD2B831203130714B6
:1007B800E02B831203130710F01CE42B8714E52B9E
:1007C8008710701DE92B0715EA2B0711F01DEE2B7A
:1007D8008715080087110800831603130510831274
:1007E800031305109F30F000F00BF82BFB2B83163A
:1007F800031305141330F000F00B002C032C8312A4
:10080800031305180E2C9F30F000F00B092C0C2C4C
:10081800003008009F30F000F00B102C132C013032
:100828000800F40074080F39F1007108F200740828
:10083800F039F1007108F30083120313851473086B
:10084800F10004300310F10CFF3E031D262C710843
:10085800D6238312031305150D30F100F10B322C4A
:100868008312031305117208D62383120313051587
:100878000D30F100F10B3E2C831203130511080013
:100888000030D6231A30F500F830F400F40B4A2C67
:10089800F50B4A2C0000033091230730F5007D301A
:1008A800F400F40B552CF50B552C033091230F3025
:1008B800F5004730F400F40B5F2CF50B5F2C642C2B
:1008C8000330912302309123023091230830912381
:1008D800003091230C30912300309123063091236E
:1008E8000800F201831603130514F301083073029C
:1008F8000318A62C8316031305108312031305107F
:10090800852C83160313051483120313051C992CD5
:100918000130F000730A922C0310F00DFF3E031D06
:10092800902C7008F1007108F2041330F000F00BFD
:100938009B2C9E2C0130F0007008F30708307302DE
:10094800031C7E2C72080800F1007108F000700882
:10095800F200831603130514F30108307302031819
:1009680008000130F000730ABB2C0310F00DFF3EA5
:10097800031DB92C700872050319D22C83160313B2
:1009880005108312031305100000831603130514C2
:100998001330F000F00BCE2CD12CE02C831603136F
:1009A80005108312031305101330F000F00BDA2C36
:1009B800DD2C8316031305140130F0007008F307CB
:1009C800B12CF801F901FA01FB01FC01FD01F0234A
:1009D800003A031D1D2DCC30A8244430A824C7306C
:1009E800F600F60BF52CF82CF023CC30A824BE30FA
:1009F800A8247524F600F7017608F8007708F900AE
:100A08007524F600F7017608FA007708FB007A08E3
:100A1800F700F60178087604FC0079087704FD00F1
:100A28007C0E0F39FC007D0EF039FC047D0E0F3969
:100A3800FD007D08F5007C08F4000800F700770346
:100A4800031D412D74087F3EF5007508FA007A08E9
:100A5800F50004300310F50CFF3E031D2E2D75081C
:100A6800F6007608F8007A080F39F5007508F900DD
:100A78007808912379089123080002307706031D2E
:100A880008007408BF3EF5007508FA007A08F500FA
:100A980004300310F50CFF3E031D4D2D7508F600BC
:100AA8007608F8007A080F39F5007508F900780813
:100AB8009123790891230800F601F31F6A2DF209A2
:100AC800F309F20A0319F30AF601F60AF11F712D68
:100AD800F009F109F00A0319F10A70087104031901
:100AE8009E2DF501F50AF11B852D01300310F00D3F
:100AF800F10DFF3E031D7A2D0130F4007408F5074F
:100B0800772D71087302031D8B2D70087202031C68
:100B1800932D7008F2027108031CF303F3020130ED
:100B28000310F10CF00CFF3E031D942D0130F5026B
:100B3800031D852D76080319A62DF209F309F20A7B
:100B48000319F30A7308F1007208F0000800F601AF
:100B5800F11FB52DF009F109F00A0319F10AF601A0
:100B6800F60AF31FC02DF209F309F20A0319F30A72
:100B78000130F4007408F606F701F80170087104F2
:100B88000319F72DF501F50AF11BD62D01300310D5
:100B9800F00DF10DFF3E031DCB2D0130F40074085C
:100BA800F507C82D01300310F70DF80DFF3E031DA2
:100BB800D72D71087302031DE32D70087202031C00
:100BC800EC2D7008F2027108031CF303F30277148A
:100BD80001300310F10CF00CFF3E031DED2D013028
:100BE800F502031DD62D76080319FF2DF709F8091C
:100BF800F70A0319F80A7808F1007708F0000800E6
:100C0800831203139901A301A401A501A601A70159
:100C1800A8016030B5000030B6005C30B700003085
:100C2800B800A901AA01B301B40130308316031337
:100C380087008510051185150516851282308312E7
:100C48000313A100DD30A000A00B282EA10B282E35
:100C5800000044248C23E524750883120313B00094
:100C68007408AF00071A2B2F8C23F401F40A013003
:100C780022251C30A723063083120313A200133049
:100C8800A100AD30A000A00B472EA10B472EA20B50
:100C9800472E00008C234030A72383120313380803
:100CA800FA003708F900BD23F401F40A02302225BE
:100CB8004A30A723831203133608FA003508F900CF
:100CC800BD2383120313AD01AE01AD01AE012E08A1
:100CD800803AFF0080307F02031D742E65302D029C
:100CE80003182B2F83120313051AFA2E0130B307AA
:100CF8000318B40A0030B4078C2383120313330398
:100D08003404031DBA2E3408803AFF0080307F0275
:100D1800031D902E033033020318BA2E8C23713032
:100D2800A723831203133808FA003708F900BD23F4
:100D3800F401F40A023022257630A7238312031324
:100D48003608FA003508F900BD230F308312031363
:100D5800A0002008F400013022257F30A7230130AD
:100D680083120313B1000030B200FA2E023083124E
:100D7800031333063404031DFA2E3408803AFF00A7
:100D880080307F02031DCA2E033033020318FA2E67
:100D98008C237130A723831203133808FA0037080D
:100DA800F900BD23F401F40A023022257630A72386
:100DB800831203133608FA003508F900BD230F30F3
:100DC80083120313A0002008F400023022257F308C
:100DD800A723023083120313B1000030B20002309F
:100DE80033063404031DFA2EB301B401831203132E
:100DF800071A022F3103320403192B2F071A092F60
:100E080002303106320403192B2F033083120313E7
:100E1800A2008A30A1005530A000A00B112FA10B11
:100E2800112FA20B112F0000013083120313AD07FD
:100E38000318AE0A0030AE072E08803AFF00803053
:100E48007F02031D292F65302D02031C762E831285
:100E580003138519422F0130B7070318B80A003069
:100E6800B80736083806031D3B2F35083706031D1B
:100E7800652F3C30B7000030B800652F871A4B2F1C
:100E8800FF30B7070318B80AFF30B807652F851970
:100E9800582F023031063204031D582F0130B50790
:100EA8000318B60A0030642F871A7C2F02303106E7
:100EB8003204031D7C2FFF30B5070318B60AFF3034
:100EC800B6078C237B30A723831203133808FA0054
:100ED8003708F900BD23F401F40A023022257630E0
:100EE800A723831203133608FA003508F900BD2337
:100EF800831203133008803AA0003808803A200291
:100F0800031D882F37082F02031C9E2F83120313FB
:100F18003608803AA0003008803A2002031D962F38
:100F28002F083502031C9E2F831203138516AB016D
:100F3800AC01A52F8312031385120130AB000030DA
:100F4800AC00F401F40A013022256830A72383128B
:100F580003133808FA003708F900BD23F401F40A2E
:100F6800023022255430A723831203133608FA00CF
:100F78003508F900BD23063083120313A20013308D
:100F8800A100AD30A000A00BC72FA10BC72FA20B4B
:100F9800C72F00008C23F401F40A01302225013008
:100FA800A723831203133008FA002F08F900BD2382
:100FB800831203132B032C04031DE82FF401F40AF6
:100FC800023022253530ED2FF401F40A02302225B3
:100FD8005E30A723063083120313A2001330A1004A
:100FE800AD30A000A00BF62FA10BF62FA20BF62F09
:080FF80000002E2E8301042EDF
:02400E00C7FCED
:00000001FF
