:10000000F82B00308A000408840A82070034483440
:0E00100065346C346C346F346F346F340034EC
:1002BA0064008001840A04060319003404065E29D6
:1002CA0041308312A100EE30A000A00B6A29A10BD5
:1002DA006A290000080065210330F92265210330EC
:1002EA00F92265210330F92265210230F9226521BC
:1002FA002830F92265210630F92265210800831287
:10030A00B901BA013908370784000120003A0319F4
:10031A00AC293408AD003308AC003608AF00350804
:10032A00AE003908370784000120B8003808B00049
:10033A004B2301308312B5070318B60A0030B607FB
:10034A000130B9070318BA0A0030BA078729013001
:10035A00B3000030B4000130B5000030B600080028
:10036A008312200821040319E329A501A50AA11B68
:10037A00CA2901300310A00DA10DFF3E031DBF299C
:10038A000130A4002408A507BC2921082302031D63
:10039A00D02920082202031CD8292008A2022108F9
:1003AA00031CA303A30201300310A10CA00CFF3EFF
:1003BA00031DD9290130A502031DCA292308A1005A
:1003CA002208A00008008312A501A6012008210422
:1003DA000319202AA701A70AA11BFF29013003102C
:1003EA00A00DA10DFF3E031DF4290130A40024082D
:1003FA00A707F12901300310A50DA60DFF3E031D25
:10040A00002A21082302031D0C2A20082202031CA9
:10041A00152A2008A2022108031CA303A3022514FB
:10042A0001300310A10CA00CFF3E031D162A013057
:10043A00A702031DFF292608A1002508A00008001D
:10044A0083123408AD003308AC003608AF00350813
:10045A00AE000A30A0000030A1003808A300370817
:10046A00A200E82183122008303EB9003908B00002
:10047A004B2301308312B5070318B60A0030B607BA
:10048A003408AD003308AC003608AF003508AE00BA
:10049A000A30A0000030A1003808A3003708A200E3
:1004AA00B52183122008303EB9003908B0004B2329
:1004BA0001308312B5070318B60A0030B6070800E0
:1004CA0083169101870170210130F9220C30F9223B
:1004DA0001308312B3000030B4000130B50000309F
:1004EA00B6000130BB003B08B70084218312BE016D
:1004FA00BF013F08803ADF0080305F02031D872A70
:10050A000B303E0203186D2A02308312B30000300A
:10051A00B4000130B5000030B6003F08B8003E080C
:10052A00B700252206308312BD001330BC00AD305F
:10053A00BB00BB0B9E2ABC0B9E2ABD0B9E2AA52A7A
:10054A0001308312BE070318BF0A0030BF077E2A94
:10055A00831287120711441CB52A83120714B72A7B
:10056A0083120710071507110830CA000030CB00A4
:10057A00C601C701003047020430031946020318B6
:10058A00ED2A4A082005C2004B082105C30042088B
:10059A004304031DD22A0710D32A0714071507118B
:1005AA004B08A3004A08A2000310A30CA20C2208BD
:1005BA00CA002308CB000130C6070318C70A003057
:1005CA00C70700304702043003194602031CC62A33
:1005DA000715071107108716A630A200A20BF32AE7
:1005EA0000008312871208008312AB00C401C50100
:1005FA002B080F39A900AA012908D2002A08D3001A
:10060A001030A0000030A1002B08A900AA01290877
:10061A00A2002A08A3009E2383122108D1002008E1
:10062A00D0005108A1005008A000AD22831253083F
:10063A00A1005208A000AD220C3083122B06031928
:10064A00492B2B030319492B0E302B060319492B6F
:10065A000F302B060319492B10302B060319492B8F
:10066A001E302B060319492B18302B060319492B68
:10067A0008302B060319492B14302B060319492B72
:10068A0002302B06031D080065210800602B831227
:10069A002E087F3EF922742B83122E08BF3EF922C0
:1006AA00742B83122E08933EF922742B83122E0880
:1006BA00D33EF922742B83122D08003A0319662BB4
:1006CA00742B2C08013A03194C2B033A0319512BAA
:1006DA00013A0319562B073A03195B2B742B013085
:1006EA008312C4000030C50030080F39B100B201CE
:1006FA003108D2003208D3001030A0000030A10027
:10070A003008B100B2013108A2003208A3009E23CA
:10071A0083122108D1002008D0005108A1005008F6
:10072A00A000AD2283125308A1005208A000AD22F6
:10073A0008008312A601A11FA92BA009A109A00ADA
:10074A000319A10AA601A60AA31FB42BA209A30989
:10075A00A20A0319A30A0130A4002408A606A701C5
:10076A00A801200821040319EB2BA501A50AA11B46
:10077A00CA2B01300310A00DA10DFF3E031DBF2B94
:10078A000130A4002408A507BC2B01300310A70DD3
:10079A00A80DFF3E031DCB2B21082302031DD72BD7
:1007AA0020082202031CE02B2008A2022108031CB5
:1007BA00A303A302271401300310A10CA00CFF3ECF
:1007CA00031DE12B0130A502031DCA2B26080319BC
:1007DA00F32BA709A809A70A0319A80A2808A10040
:1007EA002708A000080083134030840054305D219C
:0407FA008301652AE8
:02400E00D4FFDD
:00000001FF
