:100000000A128A11FC2F00308A000408840A820731
:10001000003465346C3465346334743472346F3452
:1000200053346F346D34653420344C3443344434A9
:100030002034483465346C346C346F342034573495
:0A0040006F3472346C346434003401
:100CD60001300A128A118E26080018300A128A116B
:100CE6008E2608001C300A128A118E260800F5008E
:100CF6007503031D842E7408803E0A128A118E26FF
:100D0600080002307506031D08007408C03E0A126A
:100D16008A118E260800F300831203130613730844
:100D26000A128A11E4260A128A11831203138617FD
:100D36000D30F200FB30F100F10B9F2EF20B9F2ECF
:100D4600A42E8312031386130800F30083120313E1
:100D5600061773080A128A11E4260A128A118312E8
:100D6600031386170B30F2006230F100F10BB92E37
:100D7600F20BB92E00008312031386130800F60047
:100D8600F401F5017408760784000A128A1103201B
:100D96000A128A11003A03190800740876078400BB
:100DA6000A128A1103200A128A110A128A11A82627
:100DB6000A128A110130F4070318F50A0030F50704
:100DC600C52EF000701CEB2E831203130714EE2EB3
:100DD600831203130710F01CF22E8714F32E8710CC
:100DE600701DF72E0715F82E0711F01DFC2E87151E
:100DF600FD2E8711701E012F0716022F0712F01EF7
:100E0600062F8716072F8712701F0B2F07170C2F19
:100E16000713F01F102F87170800871308000030EC
:100E26000A128A11E4260A128A1183120313061380
:100E36004130F500EE30F400F40B1F2FF50B1F2F99
:100E4600000030300A128A118E260A128A110D30DD
:100E5600F500FB30F400F40B2E2FF50B2E2F332F5D
:100E660030300A128A118E260A128A112730F500AE
:100E7600F530F400F40B3D2FF50B3D2F30300A1200
:100E86008A118E260A128A1138300A128A118E2683
:100E96000A128A110C300A128A118E260A128A1137
:100EA60001300A128A118E260A128A1106300A1297
:100EB6008A118E26080083160313860187010A12FB
:100EC6008A1112270A128A11F401F40A01300A1251
:100ED6008A117A260A128A1101300A128A11C2264A
:100EE6000A128A11FA01FB017B08803AFF00803062
:100EF6007F02031D802F0F307A020318A52F0230C0
:100F0600F9000430F800BA30F700F70B882FF80B19
:100F1600882FF90B882F00000A128A1170260A12F0
:100F26008A110130FA070318FB0A0030FB077B0819
:100F3600803AFF0080307F02031DA32F0F307A0214
:100F4600031C822FFA01FB017B08803AFF008030E8
:100F56007F02031DB02F0F307A020318D52F0230FF
:100F6600F9000430F800BA30F700F70BB82FF80B89
:100F7600B82FF90BB82F00000A128A1175260A122B
:100F86008A110130FA070318FB0A0030FB077B08B9
:100F9600803AFF0080307F02031DD32F0F307A0284
:100FA600031CB22F0A128A116B260A128A11F40147
:100FB600F40A02300A128A117A260A128A11653058
:100FC6000A128A11A8260A128A1153300A128A11A5
:100FD600A8260A128A111530F9004B30F800BE30E7
:100FE600F700F70BF42FF80BF42FF90BF42F000092
:0A0FF600672F83010A128A115E2F93
:00000001FF
