:100000000A128A11FC2F00308A000408840A820731
:10001000003420342A3420344234523445345734A6
:100020004D344134533454344534523420342A341A
:1000300020340034203445344E3454344534523462
:100040002034503441345334533457344F345234C1
:100050004434203400342034453458345434453446
:1000600052344E3441344C34203442344F344934C9
:100070004C34453452340034773472346F346E3437
:1000800067342034703461347334733477346F34AC
:1000900072346434003445346E34743465347234EC
:1000A0002034703461347334733477346F34723481
:1000B0006434003453344534543420344D3449349A
:1000C0004E342034543445344D3450343A340034B2
:1000D00053344534543420344D344134583420346E
:1000E000543445344D3450343A3400345434453467
:1000F0004D345034453452344134543455345234F0
:1001000045342034003473347434613474347534B9
:10011000733420343A3420344F3446344634003477
:100120007734683469346C34653420346534783419
:100130006934743465346434003473347434613431
:1001400074347534733420343A3420344F344E349C
:100150000034413443345434553441344C343A340B
:1001600000345334453454343A3400343C3400348D
:0401700043340034E0
:10017600F1006400831603178C18BC2871088312DB
:1001860003178D003F30F0007008831603178C05A7
:100196000C1403100C1803140030031801308312DA
:1001A60003170C080800F201831603138715F301E1
:1001B6000830730203180729831603138711831265
:1001C60003138711E6288316031387158312031377
:1001D600871DFA280130F000730AF3280310F00D8A
:1001E600FF3E031DF1287008F1007108F204133078
:1001F600F000F00BFC28FF280130F0007008F30730
:1002060008307302031CDF287208080083120313E8
:10021600A1000A30F0000030F1007D08F3007C08F0
:10022600F2000A128A11AD210A128A11700883128D
:100236000313A0002008F80021080A128A15A8272F
:100246000A128A110A30F0000030F1007D08F3002E
:100256007C08F2000A128A15CE270A128A11700843
:1002660083120313A0002008F8007B080A128A15DF
:10027600A8270800F40074080F39F1007108F2008D
:100286007408F039F1007108F3008312031307169E
:100296007308F10004300310F10CFF3E031D4E29D4
:1002A60071080A128A150C270A128A11831203137F
:1002B60087160D30F100F10B5E29831203138712A6
:1002C60072080A128A150C270A128A11831203135E
:1002D60087160D30F100F10B6E2983120313871276
:1002E600080083120313A000A101A201A301A40127
:1002F60020080A128A11BB200A128A11F800F90195
:10030600780883120313A1007908A20076080A125E
:100316008A11BB200A128A11F800F90178088312A3
:100326000313A3007908A4002208F1002108F000B5
:100336000A30F2000030F3000A128A1540278312B1
:10034600031323087007F60024080318240A71070C
:10035600F7000800F501F601700871040319E42995
:10036600F701F70AF11BC32901300310F00DF10D57
:10037600FF3E031DB8290130F4007408F707B529BC
:1003860001300310F50DF60DFF3E031DC42971085B
:100396007302031DD02970087202031CD929700844
:1003A600F2027108031CF303F30275140130031003
:1003B600F10CF00CFF3E031DDA290130F702031D94
:1003C600C3297608F1007508F0000800F1007108ED
:1003D600F0007008F200831603138715F301083046
:1003E6007302031808000130F000730AFC29031099
:1003F600F00DFF3E031DFA29700872050319132A32
:1004060083160313871183120313871100008316C3
:10041600031387151330F000F00B0F2A122A212A36
:100426008316031387118312031387111330F00009
:10043600F00B1B2A1E2A8316031387150130F000C2
:100446007008F307F229F7007703031D4B2A740897
:100456007F3EF5007508FA007A08F50004300310AF
:10046600F50CFF3E031D322A7508F6007608F800E3
:100476007A080F39F5007508F90078080A128A1506
:1004860026270A128A1179080A128A1526270800D1
:1004960002307706031D08007408BF3EF500750894
:1004A600FA007A08F50004300310F50CFF3E031D30
:1004B600572A7508F6007608F8007A080F39F5000D
:1004C6007508F90078080A128A1526270A128A1171
:1004D60079080A128A15262708001030F0002730FE
:1004E600F1007908F3007808F2000A128A15CE277F
:1004F6000A128A117108F9007008F800E830F00055
:100506000330F1007908F3007808F2000A128A1520
:10051600CE270A128A117108F9007008F8006430B3
:10052600F0000030F1007908F3007808F2000A12B2
:100536008A15CE270A128A117108F9007008F80088
:100546000A30F0000030F1007908F3007808F20074
:100556000A128A11AD210A128A117008303E0A1257
:100566008A113D210A128A110A30F0000030F1008A
:100576007908F3007808F2000A128A15CE270A12C3
:100586008A117008303E0A128A113D210800003097
:100596000A128A150C270A128A111A30F500F83049
:1005A600F400F40BD42AF50BD42A000003300A1207
:1005B6008A1526270A128A110730F5007D30F400C5
:1005C600F40BE32AF50BE32A03300A128A152627D1
:1005D6000A128A110F30F5004730F400F40BF12AA5
:1005E600F50BF12AF62A03300A128A1526270A1273
:1005F6008A1102300A128A1526270A128A11023037
:100606000A128A1526270A128A1108300A128A1532
:1006160026270A128A1100300A128A1526270A127C
:100626008A110C300A128A1526270A128A110030FE
:100636000A128A1526270A128A1106300A128A1504
:1006460026270800F801F901FA01FB01FC01FD016A
:100656000A128A1583270A128A11003A031D7B2B78
:10066600CC300A128A11E9210A128A1144300A1280
:100676008A11E9210A128A11C730F600F60B412BBE
:10068600442B0A128A1583270A128A11CC300A12C1
:100696008A11E9210A128A11BE300A128A11E92149
:1006A6000A128A110A128A11D6200A128A11F60033
:1006B600F7017608F8007708F9000A128A11D620A1
:1006C600F600F7017608FA007708FB007A08F700CB
:1006D600F60178087604FC0079087704FD007C0EA4
:1006E6000F39FC007D0EF039FC047D0E0F39FD003C
:1006F6007D08F5007C08F40008000130831603131A
:100706008500F03086008701810183160317880172
:100716008901F030831603139500960165308F002A
:1007260083120313AA01AB01B201B301B001B101F7
:100736001E30B6000030B7001930B4000030B500E6
:10074600AC01AD01A801A901AE01AF01823083124F
:100756000313A600DD30A500A50BAF2BA60BAF2B10
:100766000A128A11CA220A128A110A128A15012746
:100776000A128A11FB01FB0A831203133508FD00D6
:100786003408FC0000300A128A1109210A128A1163
:10079600033083120313A5002508FB003708FD006C
:1007A6003608FC0002300A128A1109210A128A113F
:1007B6000A128A1501270A128A11F401F40A013075
:1007C6000A128A1126220A128A1101300A128A1581
:1007D60061270A128A11F401F40A02300A128A11F8
:1007E60026220A128A1123300A128A1561270A1252
:1007F6008A110B3083120313A7002630A6005D3042
:10080600A500A50B042CA60B042CA70B042C0A127E
:100816008A1501270A128A11831203130518172C49
:100826000130AA000030AB002A032B04031D222F3F
:100836000A128A1501270A128A11F401F40A0130F4
:100846000A128A1126220A128A1112300A128A15EF
:1008560061270A128A11073083120313A50025089F
:10086600F40002300A128A1126220A128A11831211
:1008760003133308F9003208F8000A128A117022AD
:100886000A128A119B2C323032063304031D4D2C7A
:10089600B201B3010130B2070318B30A0030B3073F
:1008A600061B9B2C532C32033304031D5E2C323063
:1008B600B2000030B300FF30B2070318B30AFF30AE
:1008C600B307861A9B2C642C0A128A1501270A1272
:1008D6008A11F401F40A01300A128A1126220A1238
:1008E6008A1134300A128A1561270A128A110B30CE
:1008F60083120313A7002630A6005D30A500A50BC2
:10090600822CA60B822CA70B822C0A128A15012791
:100916000A128A11F401F40A01300A128A112622F7
:100926000A128A1143300A128A1561270A128A119D
:10093600073083120313A5002508F40002300A12BB
:100946008A1126220A128A11831203133308F90028
:100956003208F8000A128A1170220A128A118312CA
:100966000313061F462C861E562C061A9B2C023095
:1009760032063304031D672CAA01AB010130A8001F
:100986000030A900B201B3010A128A1501270A1222
:100996008A11F401F40A01300A128A1126220A1277
:1009A6008A1188300A128A1561270A128A110630BE
:1009B60083120313A7001330A600AD30A500A50BC4
:1009C600E22CA60BE22CA70BE22C0A128A150127B1
:1009D6000A128A11F401F40A01300A128A11262237
:1009E6000A128A1152300A128A1561270A128A11CE
:1009F6000E3083120313A5002508F40001300A12F5
:100A06008A1126220A128A11831203133508F90065
:100A16003408F8000A128A1170220A128A11F401A7
:100A2600F40A02300A128A1126220A128A1160304A
:100A36000A128A1561270A128A110E3083120313CD
:100A4600A5002508F40002300A128A1126220A128D
:100A56008A11831203133708F9003608F8000A12C0
:100A66008A1170220A128A118312031305184C2D5B
:100A76000130B0070318B10A0030B1070330300661
:100A86003104031D4A2D0130B0000030B100051CB1
:100A96004A2D30033104031D162E3108803AFF001B
:100AA60080307F02031D592D033030020318162EA5
:100AB6000A128A1501270A128A11F401F40A013072
:100AC6000A128A1126220A128A1152300A128A152D
:100AD60061270A128A110E3083120313A500250816
:100AE600F40001300A128A1126220A128A11831290
:100AF60003133508F9003408F8000A128A11702227
:100B06000A128A11F401F40A02300A128A11262204
:100B16000A128A1160300A128A1561270A128A118E
:100B26000E3083120313A5002508F40002300A12C2
:100B36008A1126220A128A11831203133708F90032
:100B46003608F8000A128A1170220A128A11103029
:100B560083120313A5002508F40001300A128A1136
:100B660026220A128A11AE300A128A1561270A1243
:100B76008A11013083120313AC000030AD0003303C
:100B860083120313A7008A30A6005530A500A50BD3
:100B9600CA2DA60BCA2DA70BCA2D83120313061B3B
:100BA600F42D0130B4070318B50A0030B5070E302E
:100BB600A5002508F40001300A128A1126220A121D
:100BC6008A11831203133508F9003408F8000A1253
:100BD6008A1170220A128A1183120313061BC42E6D
:100BE600EF2D861AC42EFF30B4070318B50AFF305E
:100BF600B5070E30A5002508F40001300A128A1147
:100C060026220A128A11831203133508F9003408C2
:100C1600F8000A128A1170220A128A11831203132B
:100C2600861AC42E112E02308312031330063104A5
:100C3600031DC42E3108803AFF0080307F02031D59
:100C4600262E033030020318C42E0A128A150127F5
:100C56000A128A11F401F40A01300A128A112622B4
:100C66000A128A1152300A128A1561270A128A114B
:100C76000E3083120313A5002508F40001300A1272
:100C86008A1126220A128A11831203133508F900E3
:100C96003408F8000A128A1170220A128A11F40125
:100CA600F40A02300A128A1126220A128A116030C8
:100CB6000A128A1561270A128A110E30831203134B
:100CC600A5002508F40002300A128A1126220A120B
:100CD6008A11831203133708F9003608F8000A123E
:100CE6008A1170220A128A11103083120313A5008A
:100CF6002508F40002300A128A1126220A128A11E5
:100D0600AE300A128A1561270A128A11023083123E
:100D16000313AC000030AD00033083120313A700A9
:100D26008A30A6005530A500A50B972EA60B972E48
:100D3600A70B972E83120313061BA72E0130B607A7
:100D46000318B70A0030AE2E861AC42EFF30B60737
:100D56000318B70AFF30B7070E30A5002508F400C0
:100D660002300A128A1126220A128A1183120313EA
:100D76003708F9003608F8000A128A1170220A129A
:100D86008A1183120313861BCC2E2C032D04031900
:100D9600CE2E861BED2E861FCE2EFB01FB0A3508B6
:100DA600FD003408FC0000300A128A1109210A12DB
:100DB6008A11033083120313A5002508FB003708A8
:100DC600FD003608FC0002300A128A1109210A12B7
:100DD6008A11222F861B132F02302C062D04031D89
:100DE600132F861FF42EFB01FB0A3508FD0034087D
:100DF600FC0000300A128A1109210A128A110330F6
:100E060083120313A5002508FB003708FD003608EA
:100E1600FC0002300A128A1109210A128A11222FB5
:100E2600033083120313A7008A30A6005530A500AD
:100E3600A50B1B2FA60B1B2FA70B1B2FE82C831212
:100E46000313051C132C0A128A1125230A128A1170
:100E5600750883120313AF007408AE00F601F60A94
:100E660000300A128A1174210A128A117708831235
:100E76000313B5007608B4000330A5002508F60074
:100E860002300A128A1174210A128A117708831213
:100E96000313B7007608B6000A128A1501270A124C
:100EA6008A11F401F40A01300A128A1126220A1262
:100EB6008A116E300A128A1561270A128A11DF30EA
:100EC6000A128A113D210A128A110E308312031367
:100ED600A5002508F40001300A128A1126220A12FA
:100EE6008A11B0300A128A1561270A128A11F40192
:100EF600F40A02300A128A1126220A128A11A9302D
:100F06000A128A1561270A128A1105308312031301
:100F1600A5002508F40002300A128A1126220A12B8
:100F26008A11831203133708F9003608F8000A12EB
:100F36008A1170220A128A11083083120313A5003F
:100F46002508F40002300A128A1126220A128A1192
:100F5600A1300A128A1561270A128A110F308312EC
:100F66000313A5002508F40002300A128A1126226E
:100F76000A128A11831203132F08F9002E08F800AB
:100F86000A128A1170220A128A110230831203137E
:100F9600A7004530A600A930A500A50BD02FA60BAB
:100FA600D02FA70BD02F831203132F08803AA5004A
:100FB6003508803A2502031DE22F34082E02031C51
:100FC600F72F831203133708803AA5002F08803ABB
:100FD6002502031DF02F2E083602031CF72F83125D
:100FE600031307148514222F831203130710851089
:0A0FF600222F83010A128A11802BBA
:101E020000300A128A1526270A128A1501300A1290
:101E12008A1526270800F000701C132F8312031363
:101E22000614162F831203130610F01C1A2F8614A1
:101E32001B2F8610701D1F2F0615202F0611F01D57
:101E4200242F8615080086110800F300831203135D
:101E5200071273080A128A150C270A128A158312AE
:101E6200031387160630F2003030F100F10B372FE2
:101E7200F20B372F00008312031387120800F401BC
:101E8200F501701C4A2F7208F4070318F50A73084B
:101E9200F50701300310F20DF30DFF3E031D4B2F2A
:101EA20001300310F10CF00CFF3E031D522F70089D
:101EB2007104031D422F7508F1007408F000080038
:101EC200F700F501F6017508770784000A128A11F6
:101ED20003200A128A15003A0319080075087707C9
:101EE20084000A128A1103200A128A150A128A1120
:101EF2003D210A128A150130F5070318F60A00304F
:101F0200F607642F831603138711831203138711B5
:101F12009F30F000F00B8B2F8E2F83160313871543
:101F22001330F000F00B932F962F831203138719AF
:101F3200A12F9F30F000F00B9C2F9F2F0030080044
:101F42009F30F000F00BA32FA62F01300800FA00FB
:101F5200831603178C18A92F7A08831203178D0092
:101F620078088C003F30F9007908831603178C0536
:101F72008312031303108B1B03148B138316031793
:101F82000C1555308D00AA308D008C140C11831263
:101F92000313031C08008B1708007008710403194F
:101FA200FB2FF501F50AF11BE22F01300310F00DB2
:101FB200F10DFF3E031DD72F0130F4007408F50721
:101FC200D42F71087302031DE82F70087202031CDC
:101FD200F02F7008F2027108031CF303F3020130C0
:101FE2000310F10CF00CFF3E031DF12F0130F5023E
:0E1FF200031DE22F7308F1007208F0000800D2
:04400E00D5E3FFFFF8
:00000001FF
