:060000000A128A11FC2F18
:100DE80000300A128A1119270A128A1101300A12D0
:100DF8008A1119270800F000701C062F83120313AC
:100E08000615092F831203130611F01C0D2F8615E2
:100E18000E2F8611701D122F0616132F0612F01DA5
:100E2800172F8616080086120800F3008312031392
:100E3800061073080A128A11FF260A128A118312F1
:100E4800031386140630F2003030F100F10B2A2F1C
:100E5800F20B2A2F00008312031386100800F400F7
:100E680074080F39F1007108F2007408F039F100C4
:100E78007108F3008312031306147308F100043099
:100E88000310F10CFF3E031D442F71080A128A114A
:100E9800FF260A128A118312031386140D30F100FB
:100EA800F10B542F83120313861072080A128A1149
:100EB800FF260A128A118312031386140D30F100DB
:100EC800F10B642F83120313861008002530831258
:100ED80003139400831603139401831603178901DF
:100EE80088011430831203139F0083160313851699
:100EF8008601871287158312031386010A128A1145
:100F0800A1270A128A110A128A11F4260A128A11D2
:100F1800F701F801F901FA0183160313141C902F45
:100F2800831203131308F6007608FB007B080A12E5
:100F38008A1133270A128A11902F00300A128A1157
:100F4800FF260A128A111A30F500F830F400F40B63
:100F5800AB2FF50BAB2F000003300A128A111927AB
:100F68000A128A110730F5007D30F400F40BBA2F0D
:100F7800F50BBA2F03300A128A1119270A128A119F
:100F88000F30F5004730F400F40BC82FF50BC82FCD
:100F9800CD2F03300A128A1119270A128A1102303A
:100FA8000A128A1119270A128A1102300A128A11A2
:100FB80019270A128A1108300A128A1119270A12E7
:100FC8008A1100300A128A1119270A128A110C3064
:100FD8000A128A1119270A128A1100300A128A1174
:100FE80019270A128A1106300A128A1119270800CD
:080FF80083010A128A116A2F1D
:04400E00D4E3FFFFF9
:00000001FF
