:100000000A128A11FC2F00308A000408840A820731
:0E00100000346A346F34733468346934003459
:100F820020308312031394008316031394018711F4
:100F92008712F401F501F601F70101300A128A11F4
:100FA200D5270A128A11CE2FF300F101F20171083E
:100FB200730784000A128A1103200A128A11003A66
:100FC200031908007108730784000A128A110320AA
:100FD2000A128A11831203139300C730F000F12F13
:100FE200F00BF02FF42FF52F0130F1070318F20A5E
:0E0FF2000030F207D82F83010A128A11C12F96
:04400E00D4FFFFFFDD
:00000001FF
