:02000000EF2BE4
:1004FE0064008001840A0406031900340406802A6D
:10050E0041308312CE00EE30CD00CD0B8C2ACE0BB7
:10051E008C2A000008005E088A005F088200922282
:10052E008000840A04085D0603190034DF0A0319EB
:10053E00DE0A962A7534733469346E346734203487
:10054E003734343448344334353439343534003464
:10055E0033342D34573469347234653420344C348A
:10056E00433444340034831255087F3EB900560894
:10057E000318013E003EBA00023053065404031D18
:10058E00D02A3908403EB9003A080318013E003E11
:10059E00BA003A08D2003908D100D62208008312D8
:1005AE00BD01BE010F305105CB0000305205CC000D
:1005BE00510E0F39C900520EF039C904520E0F39BF
:1005CE00CA004A08CE004908CD00A92383124C0860
:1005DE00CE004B08CD00A923080001308312BD00C8
:1005EE000030BE000F305105CB0000305205CC005C
:1005FE00510E0F39C900520EF039C904520E0F397F
:10060E00CA004A08CE004908CD00A92383124C081F
:10061E00CE004B08CD00A92308008312D800D601C6
:10062E00D70156085807D3005308840083130008D7
:10063E000319080056085807D30053088400831383
:10064E000008D400D5015408D1005508D200F42278
:10065E0001308312D6070318D70A0030D707182B9C
:10066E00872220308312D1000030D200D62287227A
:10067E0020308312D1000030D200D62287222030C3
:10068E008312D1000030D200D62287222830831266
:10069E00D1000030D200D62287220C308312D10036
:1006AE000030D200D622872206308312D1000030CD
:1006BE00D200D622872201308312D1000030D20020
:1006CE00D622872208008316910187013723013035
:1006DE008312D3000030D4000430D5000030D60091
:1006EE00BA222E30142302308312D3000030D400ED
:1006FE000230D5000030D600BA2220301423083044
:10070E008312DB009D30DA000530D900D90B8D2B1A
:10071E00DA0B8D2BDB0B8D2B942B01308312D1003A
:10072E000030D200D62206308312DB001330DA00FE
:10073E00AD30D900D90BA12BDA0BA12BDB0BA12BE2
:10074E00A82B6E2B8312871607113D1CB12B83121B
:10075E000714B32B83120710071507110830C300B7
:10076E000030C400BF01C001003040020430031944
:10077E003F020318E92B43084D05BB0044084E0504
:10078E00BC003B083C04031DCE2B0710CF2B0714D7
:10079E00071507114408D0004308CF000310D00CF2
:1007AE00CF0C4F08C3005008C4000130BF07031818
:1007BE00C00A0030C00700304002043003193F0267
:1007CE00031CC22B07150711071087128716080086
:1007DE0083133930DD000230DE00A130DF0020301F
:1007EE0084009622393084004D307F2283016A2B9B
:02400E00D4FFDD
:00000001FF
